:020000040800F2
:10000000F05601204901000879740008F92A000817
:10001000F1570008E906000871F000080000000030
:1000200000000000000000000000000061CB00089C
:100030006917000800000000F1B20008D1D70008DD
:100040006301000863010008630100086301000800
:1000500063010008630100086301000863010008F0
:100060006301000863010008D51900086301000856
:1000700063010008630100086301000863010008D0
:10008000630100086301000863010008A1EE000895
:10009000F9EE000863010008630100082D1A00084A
:1000A00063010008630100086301000863010008A0
:1000B00041D8000851D800088DD800086301000815
:1000C0006301000863010008630100086301000880
:1000D0006301000855EB0008630100086301000894
:1000E000911900086301000863010008630100081A
:1000F0006301000863010008630100086301000850
:10010000630100086301000863010008630100083F
:10011000630100086301000863010008630100082F
:10012000630100086301000863010008630100081F
:10013000DFF810D000F0C8F800480047F5070108C4
:10014000AFF30080F056012006488047064800477C
:10015000FEE7FEE7FEE7FEE7FEE7FEE7FEE7FEE777
:10016000FEE7FEE7E1D7000831010008202A04DBA2
:10017000203A00FA02F1002070479140C2F12003BA
:1001800020FA03F3194390407047202A04DB203AF9
:1001900021FA02F00021704721FA02F3D040C2F1A7
:1001A0002002914008431946704710B5431A934204
:1001B00009D28318881803E010F8011D03F8011D07
:1001C000521EF9D210BD40EA01039B0703D009E09B
:1001D00008C9121F08C0042AFAD203E011F8013B33
:1001E00000F8013B521EF9D210BDD2B201E000F876
:1001F000012B491EFBD270470022F6E710B51346CB
:100200000A4604461946FFF7F0FF204610BD421C7F
:1002100010F8011B0029FBD1801A704730B5044645
:100220000020034600E05B1C934203D2E05CCD5CFF
:10023000401BF8D030BD034611F8012B00F8012B0C
:10024000002AF9D11846704730B50546002003460C
:1002500000E05B1C934205D2EC5CC85C201A01D123
:10026000002CF6D130BD2DE9F05F05460020924606
:100270009B4688460646814640241BE02846414668
:1002800047462246FFF781FF53465A46C01A91411E
:1002900010D3114618462246FFF768FF2D1A67EB68
:1002A00001084F46224601200021FFF75FFF17EBB0
:1002B00000094E41201EA4F10104DFDC484631460E
:1002C0002A464346BDE8F09F064C074D06E0E0682D
:1002D00040F0010394E8070098471034AC42F6D38D
:1002E000FFF72AFF807E0508A07E050870B58C18F0
:1002F00010F8015B15F0070301D110F8013B2A113A
:1003000006D110F8012B03E010F8016B01F8016B26
:100310005B1EF9D12B0705D40023521E0DD401F822
:10032000013BFAE710F8013BCB1A921C03E013F8EB
:10033000015B01F8015B521EF9D5A142D8D3002020
:1003400070BD000010B500200249087004F076FD71
:1003500010BD00000C040020002010490860104966
:10036000086010490860104908600C4908600F498E
:1003700008700F4908700F4908700F4908600F494D
:1003800008600F49086001200E49087000200E49DE
:10039000087001200D4908707047000020040020FB
:1003A00014040020180400201C040020280400204D
:1003B00029040020090400206C03002070030020A1
:1003C0001004002074030020540000205600002078
:1003D0002DE9F04FC7B015469A46DDF840B1519C63
:1003E00000204690BAF1040F00D115B907204690BD
:1003F00010E1BBF1000F02D1072046900AE100BFD7
:1004000020780006617840EA0140A17840EA0120A6
:10041000E178084300F0FF08404610F0F1FE48EA9A
:1004200000207F49C88020780006617840EA0140BA
:10043000A17840EA0120E1780843C0F3072840464C
:1004400010F0DEFE48EA002075498880207800061A
:10045000617840EA0141A07841EA0020E178084350
:10046000C0F30748404610F0CBFE48EA00206C4934
:10047000488020780106607841EA0041A07841EA8E
:100480000020E17808434FEA1068404610F0B8FEBB
:1004900048EA00206249088000BF00270FE060485A
:1004A00030F81700001200905D4810F817000102A4
:1004B000009841EAC0105A4921F817007F1C042F08
:1004C000EDDB58A00EF03EFF002606E0544830F861
:1004D000161057A00EF036FF761C042EF6DB56A041
:1004E0000EF030FF0020419042904390449000264F
:1004F00006E04B4830F81600000A01A98855761C22
:10050000042EF6DB28208DF8080001A9052005F04F
:1005100029F9C0B24690469810B148A00EF012FFDB
:100520004598082807D0082246A045990EF00AFFF2
:1005300051A00EF007FF0121564810F010FD58465B
:1005400011F070F820780306607843EA0043A07841
:1005500043EA0020E37840EA03022878030668783B
:1005600043EA0043A87843EA0020EB7840EA03011D
:10057000484810F089FB28780106687841EA004174
:10058000A87841EA0020E97840EA01091FFA89F2D7
:100590004FEA194140A00EF0D5FE9DF80401000677
:1005A0009DF8053140EA03409DF8063140EA0320FA
:1005B0009DF80731184382B29DF8040103069DF8A7
:1005C000050143EA00439DF8060143EA00209DF837
:1005D00007311843010C35A00EF0B4FE2D48001D64
:1005E00082B2001F4068010C35A00EF0ABFE294816
:1005F000083082B208388068010C36A00EF0A2FEE6
:10060000002600E0761C082EFCDB41A9214810F0F2
:100610004DFB00BF469840B247B0BDE8F08F0000E8
:10062000543A0120753136627566666572200000A5
:100630005B253034585D20000D0A00006572722081
:100640000D0A0000453A207265636569766564208D
:1006500025642062797465732C20657870656374F5
:100660006564202564206279746573202D3E2061C5
:10067000626F7274210D0A00493A204661696C6507
:10068000643A2041757468205374657020310D0AF6
:1006900000000000483A0120493A207569643A2078
:1006A0003078255825580D0A00000000493A204EA0
:1006B0005F633A203078255825580D0A0000000065
:1006C000443A206F6464203D203078257825780DE9
:1006D0000A000000443A2065766E203D20307825DF
:1006E0007825780D0A00000000BFFEE70146CAB277
:1006F0000B1243EA0220704770B505460024062D10
:1007000011D110480068007800F07F0001280AD15C
:100710000C4800684079012805D10A4800688078B3
:10072000222800D1084C0CB9022070BD0548006891
:10073000846100210348006841820020A047002016
:10074000F3E70000E40400203128000810B5044657
:10075000024920460CF082FE10BD0000D0050020AA
:1007600010B50446024920460CF078FE10BD00008A
:10077000C805002070B5054606480068C478052CF9
:1007800001DD002070BD044800EBC40128460CF0D8
:1007900065FEF7E7E4040020D805002002460029A2
:1007A00001DD02207047012A01DD0220FAE7002066
:1007B000F8E701460220704710B5002028498872EA
:1007C0002848C079284909684872002026490968E4
:1007D000C8720CF01BFA4FF4007100200CF0F6FA0E
:1007E000202100200CF0D2FA802100200CF03EFAEB
:1007F0001E4890F82C1000200CF04AFA40210020EE
:100800000CF0A6FA002000F097FB00200CF086FA0E
:100810004FF4C06103200CF0D9FA4FF4A07103200B
:100820000CF096FA4FF4C07103200CF01FFA40212F
:1008300003200CF09DFA402103200CF029FA4FF41C
:10084000405103200CF04AFA202103200CF09EFABC
:1008500000200CF0E3F901200549086010BD0000FC
:1008600004330120B0770508E4040020740500205B
:10087000000600207047704710B500200549096840
:1008800088720BF0EBFB0EF03BFB00200249086086
:1008900010BD0000E40400200006002001490860AB
:1008A00008687047003002400149012088607047A5
:1008B0000030024010B5002449E047F6FF70294996
:1008C00008602948008800F00F0028490870084691
:1008D0000078274901EB8000D0F8000C84B204F4C2
:1008E0000040C8B12148007801EB8000D0F8000C2E
:1008F000C0F30E0048F68F7108401C4909781C4A65
:1009000002EB8101C1F8000C18490978491E194A07
:1009100052F8210080471AE004F08000B8B1134873
:100920000078134901EB8000D0F8000C48F60F71F5
:1009300008400E4909780E4A02EB8101C1F8000C0B
:100940000A490978491E0C4A52F821008047054897
:10095000006880B20449088000F400400028ACD14F
:1009600010BD0000445C004034050020E00400207D
:1009700000500040540500203805002008B5002034
:10098000009022E19748008800F00F009649087017
:100990000846007800287CD1944800689449088073
:1009A0000846008800F0300092490880904800888E
:1009B00000F440508E4908808C4909684BF6BF729C
:1009C00001EA020080F4005080F0200040F4004171
:1009D00041F08001854A11608248008800F01000D3
:1009E00090BB1046006848F60F7108401146086039
:1009F00004F042F97D4909684BF6BF7201EA020032
:100A00007B49098801F4805109B180F4805078490C
:100A1000098801F4005109B180F400507549098832
:100A200001F0100109B180F010007249098801F04D
:100A3000200109B180F0200081B241F4004141F071
:100A400080016A4A116008BDFFE76848006880B20B
:100A50000090BDF8000000F40060B0B36348006887
:100A6000C0F30E0048F68F710840604908600CF032
:100A70003BFA5E4909684BF6BF7201EA02005C4925
:100A8000098801F4805109B180F4805058490988DF
:100A900000E056E001F4005109B180F400505549DE
:100AA000098801F0100109B180F01000514909884E
:100AB00001F0200109B180F0200081B241F4004131
:100AC00041F08001494A1160BDE7FFE7BDF8000031
:100AD00000F40040002878D044480068C0F30E00BD
:100AE00048F68F7108404149086006F0A9FD3F496A
:100AF00009684BF6BF7201EA02003D49098801F41A
:100B0000805109B180F480503949098801F40051BD
:100B100009B180F400503749098801F0100109B18A
:100B200080F010003349098801F0200109B180F0FC
:100B3000200081B241F4004141F080012B4A116054
:100B400081E7294800782C4901EB8000D0F8000C9F
:100B500080B20090BDF8000000F40040C0B122480F
:100B6000007801EB8000D0F8000CC0F30E0048F6CE
:100B70008F7108401C4909781F4A02EB8101C1F8B6
:100B8000000C19490978491E1C4A52F82100804777
:100B9000BDF8000000F08000B8B113480078164995
:100BA00001EB8000D0F8000C48F60F7108400E49A8
:100BB0000978114A02EB8101C1F8000C0A49097851
:100BC000491E0F4A52F82100804708484430006807
:100BD00080B20449088000F4004000287FF4D2AEBF
:100BE00000BF30E734050020E0040020005C004036
:100BF000F4040020F60400200050004054050020BA
:100C00003805002010B540480078032870D13F48CF
:100C1000007804281BD13E48007801280AD13D48BD
:100C20003DA1026840480EF09DFB00203F4908604E
:100C3000374908703E480068000236490968B0FB31
:100C4000F1F03C490860084600683B4908603B48B1
:100C5000007800284AD0354800683949086039A032
:100C60000FF0C2F939490860012039490870374846
:100C700038A102683C480EF075FB3C4800683349D7
:100C80000968884216D12E4839A102683B480EF007
:100C900069FB3B4820A1026823480EF063FB00205B
:100CA000234908602549087000BF364800780028AD
:100CB000FBD01BE0254827A102682B480EF052FB11
:100CC0002A4824A1026828480EF04CFB2C4812A1A7
:100CD000026815480EF046FB0020154908601749C8
:100CE000087000BF274800780028FBD001E0FFE72C
:100CF00000BF00BF23480078012802D100F076FA37
:100D000010BD00BFFCE70000090400200C04002017
:100D1000740300201404002046696C652073697A0E
:100D2000653A2025642042008903002050000020FD
:100D300010040020700300206C0300202804002011
:100D40002404002066772E62696E000020040020D3
:100D500029040020202020435243203A20255820F7
:100D6000202020200A000000750300201C04002021
:100D70002020202020202025642000009D0300202A
:100D8000180400205400002010B596B000201590E3
:100D900001AC15A806F01CFB13220BA12046FFF79F
:100DA00004FA01200D49087004200D4908702046FE
:100DB00004F02CFEFFF7D0FA0A49042000F0E0F816
:100DC000FFF7C0FA16B010BD636F6D2E6E66632E0E
:100DD00073743935686664656D6F00008D0400209A
:100DE0008E040020050C000810B52E48007830B99C
:100DF00001202C4908702CA1022004F049F9304848
:100E00000078082838D2DFE800F0372D19230F04C6
:100E100037310FF0E1FC18B92A48007929490876E2
:100E200000202749087027E00FF0D6FC10B90520F4
:100E3000244948750020224908701DE00FF0CCFCC1
:100E400010B908201F49487500201D49087013E09B
:100E50000FF0C2FC10B907201A4948750020184944
:100E6000087009E000201649087005E000F0BEF99E
:100E700000201349087000BF00BF13480078012804
:100E800004D110F067FD00200F4908700F4800786A
:100E9000012805D10B498875C87500200B490870D9
:100EA00010BD000030000020436F6D6D756E692E1F
:100EB0002045737461626C697368656400000000AA
:100EC0005500002018720020280000204400002057
:100ED0000B4A02EB8001D1F8001C01F4804171B192
:100EE00002EB8001D1F8001C48F68F7211404CF2E1
:100EF00080021143024B03EB8002C2F8001C7047D2
:100F0000005000400B4A02EB8001D1F8001C01F0B8
:100F1000400171B102EB8001D1F8001C48F68F72DC
:100F2000114048F2C0021143024B03EB8002C2F8A9
:100F3000001C704700500040084A02EB8001D1F8C5
:100F4000001C48F68F62114048F280021143034BA7
:100F500003EB8002C2F8001C704700000050004004
:100F60007047000003480068807A10B105200249EC
:100F700008607047E404002000060020704700006D
:100F800070B505460C4600F01FF9284608F09AF99E
:100F900003E008F029FA04B1A047034800780028CC
:100FA000F7D008F099F870BD9204002010B5002425
:100FB00000F03AF800F0B4F80B4800F027F80BA066
:100FC0000EF0C0F900BF05E00748015D0BA00EF070
:100FD000B9F9641C142CF7D30AA00EF0B3F9024837
:100FE000407B0949087010BD74FB0020535439350B
:100FF00048462049443A0D0A000000003078253068
:10100000325820000D0A00008F04002038B5044635
:1010100004A000680090214668460EF0BBFE002048
:1010200038BD00000100000010B50EF06DFD0EF09F
:101030001DFD0EF085FD10BD2DE9F04105460C4665
:101040000026002700F0C0F80221002010F00EFB5F
:10105000C6B206B904E0012E00D119E036E000BFA7
:1010600005F0010098B114B120460CF075FB07E0C3
:10107000082000F0F7F8082802D10120BDE8F0812F
:101080001548007818B9154800780028F0D000BF3E
:1010900005F01000102819D1042008F013F914B13C
:1010A00020460CF059FB0AE008F09EF90746052F90
:1010B00005D10B480078012801D11020DEE7064851
:1010C000007818B9054800780028EDD0024800786B
:1010D0000028C4D00020D1E7920400209104002011
:1010E000FF03002010B504460AF0E4F80BE009F015
:1010F000B3FF18B100F07AF8F32010BD1CB1064818
:10110000007800B1A047054800780028EFD007F02C
:10111000FBFB0020F1E700004F04002092040020B8
:1011200038B5002413A0006800900EF00FFE0EF0FA
:10113000E5FC012801D10EF08BFD00BF0E49684689
:101140000EF028FE0C480078552801D1002038BD4B
:101150000EF0D4FC012801D10EF07AFD064800788B
:10116000552804D02046611C8CB20528E6DB6FF0C0
:101170000D00ECE75500000074FB002070B504463C
:101180000AF0A8F814E008F02FF90546042D09DA52
:101190000B48007830B100F029F8002008490870A9
:1011A000F32070BD24B106480078012800D1A04783
:1011B000044800780028E6D007F08EFF0020F0E712
:1011C0004F040020920400200020044908700449C4
:1011D00008700449087004490870704792040020A0
:1011E000910400208D0400208E040020012001497C
:1011F00008707047920400202DE9F04105460C4626
:1012000016460027FFF7E0FF284608F05BF814B108
:1012100020460CF0A1FA00200F4908700DE008F0FC
:10122000E3F80D480078A84207D134B12FB90CF08B
:10123000BFFA30460CF090FA01270848007818B938
:10124000074800780028EAD007F046FF17B1FF20D2
:10125000BDE8F0810020FBE7930400209204002009
:101260009104002010B50446FFF7AEFF04F0010022
:1012700078B107F049FB05200EF0B4FB02F0B4F89A
:1012800002F0DCF828B931480CF08EFB08B90120D7
:1012900010BD04F0020010B904F0080028B307F0F4
:1012A00033FB05200EF09EFB02F09EF802F0C6F81C
:1012B000D8B901F0F9FEC0B92548807B00F0600084
:1012C00048B904F0020030B104F028FB08B1022054
:1012D000DEE7FF20DCE71E48807B00F0200020B125
:1012E00004F0080008B10820D2E704F0040058B167
:1012F00007F00AFB05200EF075FB00F0B5FC00F0CE
:10130000BDFC08B90420C3E704F0100060B107F089
:10131000FBFA05200EF066FB02F0C6FA20B902F0D7
:10132000FFF908B91020B3E704F0200050B107F02E
:10133000EBFA05200EF056FB044802F0D3FC08B986
:101340002020A5E707F0E0FA0020A1E7630A0120CA
:10135000B90301202DE9F0472848006800F1100585
:101360002E8826480068077AD6B9042F18D1244859
:10137000007801280FD100212248006880B2801C2B
:10138000214A42F8101030202049088000BF002078
:101390001B49087003E0072710201C49088027E03C
:1013A000AC88A64201D8042000E002200746B442DF
:1013B00000D93446A0B2A96888478046002000F0D2
:1013C0002FFF8146A2B2494640460DF053FEA1B21E
:1013D00000200BF0CDFC2888001B28806888204462
:1013E000688030200949088000020949088000BF50
:1013F000024909680F72BDE8F0870000E40400208C
:10140000DC040020505C004000600040F604002036
:10141000F40400202DE9F0412848006800F1100490
:101420002688A068C0B1BEB1A588B54200D93546AE
:10143000A8B2A168884707462088401B20806088A2
:1014400028446080002000F0C9FE8046AAB24146D0
:10145000384609F0B3FA00BF208850B14FF440502D
:1014600017490880002108460BF082FC30201549FE
:1014700008802088A188884204DB03200F4909687E
:10148000087218E02088002804DD05200B4909684F
:10149000087210E0208870B90620084909680872AF
:1014A00000210948006880B2801C084A42F81010E8
:1014B000302004490880BDE8F0810000E4040020E9
:1014C000F4040020F6040020505C0040006000405E
:1014D0002DE9F84F9B48006845780027BA46062D4D
:1014E0001BD198480068007800F07F00002813D1D5
:1014F000944909688878012803D193490968CF691C
:101500000AE0022803D1904909680F6A04E0032821
:1015100002D18D4909684F6A94E0002D64D1894851
:101520000068408800285FD186480068C08802288B
:101530005AD1844800680079002855D18148006854
:10154000007800F07F0028B97E480068808808B9DC
:101550007E4F77E07B480068007800F07F0001282C
:1015600010D1784909684879774909688A69002162
:101570009047002866D173480068807A002861D0BF
:10158000724F5FE06F480068007800F07F0002282B
:1015900058D16C480068407900F00F06694800682F
:1015A000407900F0700967480068407900F08000D9
:1015B00038B1674901EB8600D0F8000C00F0300824
:1015C00006E0634901EB8600D0F8000C00F44058B7
:1015D00060480078B04235D9B9F1000F32D1B8F186
:1015E000000F2FD0594F2DE0082D07D15548006826
:1015F000007800F07F0028BB574F23E00A2D21D14F
:1016000050480068007800F07F0001281AD14D484A
:101610000068807AB0B14B480068408890B949486A
:101620000068007970B947480068C088012809D16E
:10163000444909684879444909688A690021904702
:1016400000B9464F57B13F480068A0F812A03D4886
:10165000006887610020B84700240FE0394A12680B
:101660005078394A1268116988470446032C05D11D
:101670000920344909680872BDE8F88F31480068CC
:10168000008A4FF6FF71884204D109202D4909686C
:101690000872F1E7022C03D02A480068008A20B9BA
:1016A0000820284909680872E6E72648006800789B
:1016B00000F08000E0B323480068C0880090214813
:1016C0000068008A0099884204D91E490098096878
:1016D000088223E01B480068008A1A490968C98803
:1016E00088421BDA17480068008A1749096891F890
:1016F0002C10884203DA0020194908700EE01148C6
:101700000068008A1049096891F82C1090FBF1F2EA
:1017100001FB120010B90120114908700A48006845
:1017200090F82C10074800688182FFF713FE07E04D
:10173000FFE703200349096808720003094908808C
:1017400000BF99E7E4040020E8040020ADD40008BD
:10175000005000407005002031D4000881D40008FA
:10176000DC040020F40400207047000010B50024C1
:1017700000BF10E0094B53F82420094B03EB84030E
:101780005B88DB1C99B2064B33F824309B1C98B263
:1017900003F04CFE641C052CECD310BD5C00002053
:1017A0007000002070B50024002503F03BFF1F20CF
:1017B00003F03CFD4FF6FF7003F026FE4FF6FF707E
:1017C00003F01AFC2B4A12682046116803F060FCF3
:1017D000641C4FF6FF7003F029FD1F2003F014FE78
:1017E0000AE024480068406800EB0516A0B23168A2
:1017F00003F04EFC6D1C641C1E480068007A401EFD
:10180000A842EED81B480068406800EB0516092086
:10181000316803F03DFC4FF4FC6003F007FD4FF628
:10182000FF7003F0F1FD1348006840681249097821
:1018300000EB0110114908600E480068007A401E54
:101840000D490978884208D00C48006801680A48A8
:101850000078401C03F01CFC05E0084800680168A3
:10186000092003F015FC012003F00CFB00200449C3
:10187000087070BD94000020850000208C000020BE
:101880005600002010B53648007800B910BD4FF65C
:10189000FF7003F0CBFC1F2003F0B6FD3148006859
:1018A00040683149097800EB0110304908602D4843
:1018B0000068007A401E2C490978884208D02B48DD
:1018C0000068016828480078401C03F0E1FB05E04F
:1018D000264800680168092003F0DAFB2148006807
:1018E000007A401E20490978884203DC00201E4906
:1018F000087004E01C480078401C1B4908704FF435
:10190000FC6003F093FC4FF6FF7003F07DFD15487B
:10191000006840681449097800EB01101349086019
:1019200010480068007A401E0F490978884208D0A4
:101930000E48006801680C480078401C03F0A8FBC2
:1019400005E00A4800680168092003F0A1FB064889
:1019500000780749074A1278885400BF96E70000CC
:101960008400002094000020850000208C000020CE
:10197000870000208600002070477047704710B530
:1019800000F09CFD10BD10B500F09AFD10BD0000E8
:1019900010B54FF4006000F0CDF890B14FF4006046
:1019A00000F0C2F80748006820F4006005490860AC
:1019B0000548007810B1012004490870012004494D
:1019C000087010BD00040140490000204A000020BA
:1019D0004800002010B50F48007850B90E48007834
:1019E00080F001000C49087003F00EFC01200B4947
:1019F000087007200A490870102000F095F809487F
:101A0000007808B9FFF7F2FB0748007808B1FFF744
:101A1000EDFB10BD4C0000204B00002058000020C2
:101A2000550000204D0000204E00002010B5202061
:101A300000F080F840B1202000F076F80120344911
:101A40000870032033490870402000F073F850B14B
:101A5000012031490860402000F066F801202C493F
:101A600008702C490870802000F064F8D0B12B4831
:101A7000007838B92A48007810B10DF081FA01E0F9
:101A8000FFF700FF802000F04FF801202049087088
:101A90002348007818B104201E49087002E0052090
:101AA0001C4908704FF4807000F044F848B14FF4BE
:101AB000807000F039F8012015490870022015499E
:101AC00008704FF4007000F035F8D8B11348007872
:101AD00038B91348007810B1FFF7D4FE01E00DF0DB
:101AE0004FFA4FF4007000F01FF801200849087009
:101AF0000B48007818B105200649087002E0042060
:101B0000044908700748007808B9FFF76FFB10BD5B
:101B100054000020550000200C000020560000203A
:101B20004B0000204D000020014908607047000074
:101B300014040140064A014600201268044B0A4082
:101B400014331B680B4202D0002A00D001207047DA
:101B50000004014030B51A498379026853B30B6819
:101B600093430B600A1D13680468A3431360027952
:101B70000A441368046823431360114A0832136847
:101B80000468A3431360131D1C680568AC431C6004
:101B90004479102C05D021440A68006802430A6089
:101BA00030BD116804682143116019680068014361
:101BB000196030BD0079084401689143016030BD6F
:101BC000000401400021016001710C224271817109
:101BD000704700007FB504461FA0006803901FA057
:101BE000006802901EA000680190234603AA042109
:101BF000052006F09BFF05460DB1012000E0002006
:101C000000B125E003201749087002AB01226821CA
:101C10000420009407F0F4F805460DB1012000E01F
:101C2000002000B114E001AB01220A21042000943D
:101C300007F0E6F805460DB1012000E0002000B1F4
:101C400006E044F6B0700DF0EBFE002004B070BD6D
:101C50006FF03E00FAE700005113010D0151000042
:101C600002A10000E003002000B5ADF5057D01A84C
:101C7000FFF7B0FF0DF5057D00BD000000B5ADF527
:101C8000057D4FF4047101A8FEF7B6FA01A800F033
:101C900025F820B16FF03E000DF5057D00BD012057
:101CA0000B4981F8280020220DF106010848FEF7B3
:101CB0007CFA0748411C0A680262496841620220B6
:101CC000044908700320044908700020E4E700007C
:101CD000AD0601208D0400208E04002010B50446BE
:101CE0002146074806F0F2FD10B16FF03E0010BD2E
:101CF000A078012802D06FF03E00F8E70020F6E758
:101D00003D6505080349002801DAC8647047C860CA
:101D10007047000000200240F0B505461848194CF5
:101D20004FF43026854241F6FD77304613D200F05D
:101D3000FFF804280ED1206940F00200206165619F
:101D4000206940F040002061304600F0F1F8216940
:101D500039402161F0BD00F0FDF80428FAD1206D72
:101D600040F0020020656565206D40F04000206570
:101D7000304600F0EFF8216D39402165F0BD0000DC
:101D8000FFFF07080020024008490420CA68D20764
:101D900001D001207047CA68520701D50220704760
:101DA000C968C906FBD50320704700000020024027
:101DB00008490420CA6CD20701D001207047CA6CC0
:101DC000520701D502207047C96CC906FBD5032014
:101DD00070470000002002400448016941F0800182
:101DE0000161016D41F080010165704700200240F2
:101DF00001B500200099C1F30A021AB1012202EBD9
:101E0000D12000E0C80A08BD2DE9F84704460020AB
:101E10003E4A41F6FE750090A61C0F0CA81CDFF888
:101E2000F0901FFA81F894421ED2824600F080F8AA
:101E3000042817D1D9F8101041F00101C9F8101089
:101E4000A4F800805446504600F096F8042804D1C7
:101E500000963780204600F08FF8D9F810202A40ED
:101E6000C9F81020BDE8F88728498246491C8C42F1
:101E700033D100F05DF80428484608D001692940B4
:101E80000161504600F066F8042810D01FE0006998
:101E900040F00101C9F81010A4F80080504600F08D
:101EA00047F8D9F810002840C9F81000E9E7D9F838
:101EB00050004C4640F00100C9F8500000963780B1
:101EC000504600F047F8216D29402165CAE7D9F84E
:101ED00050202A40C9F85020C4E700F03BF80428FD
:101EE000C0D1D9F8501041F00101C9F85010A4F840
:101EF00000805446504600F02DF80428E7D10096A3
:101F00003780204600F026F8E1E70000FDFF0708D3
:101F100000200240044803494160044A4260416491
:101F2000426470472301674500200240AB89EFCD32
:101F300000B50346FFF728FF03E000BFFFF724FFCB
:101F40005B1E012803D0002B00D1052000BD002B13
:101F5000F4D1FAE700B50346FFF72AFF03E000BF1C
:101F6000FFF726FF5B1E012803D0002B00D10520C0
:101F700000BD002BF4D1FAE700B50346FFF704FFDC
:101F800003E000BFFFF700FF5B1E012803D0002B1A
:101F900000D1052000BD002BF4D1FAE7014609B9B4
:101FA00010207047012901D11820FAE7022901D138
:101FB0002020F6E7032901D12820F2E7042901D1E6
:101FC0003020EEE7052901D14020EAE7062901D1BA
:101FD0006020E6E7072901D18020E2E74FF4807016
:101FE000DFE7000010B5044621460948FEF723F953
:101FF00008A10B48FEF71FF90AA109484030FEF777
:102000001AF90AA10648A430FEF715F910BD000020
:1020100048810020746573744073742E636F6D0083
:10202000D47800205375626A656374006D657367C8
:102030000000000010B5044621460748FEF7FBF8F3
:1020400006A105482838FEF7F6F807A1024814381B
:10205000FEF7F1F810BD00000083002034382E3167
:1020600033323937340000002D312E3633353931D3
:102070003200000010B5044621460648FEF7DBF8A2
:1020800005A10848FEF7D7F8074906481030FEF7C3
:10209000D2F810BD44770020303132333435363732
:1020A00038390000A4750020247E050810B50446C8
:1020B00021460648FEF7BFF805A10748FEF7BBF822
:1020C00006A105485030FEF7B6F810BD1474002084
:1020D000687474703A2F2F003472002073742E636A
:1020E0006F6D2F6E66632D726669640010B58A0786
:1020F00021F003040649130F21440F228C689A40F3
:1021000094438C608A68984002438A6010BD000046
:1021100000000140F0B5CA78002502F00F03D20696
:1021200001D58A7813430A784FF00F0E12F0FF0F93
:102130004FF001021CD004680F8802FA05F6374000
:10214000B74211D14FEA850C0EFA0CF724EA0707C3
:1021500003FA0CF43C43CF78282F02D0482F02D04A
:1021600002E0466100E006616D1C082DE4D30460C6
:102170000C88FF2C1ED944685FF0000606F10807A2
:1021800002FA07F50F882F40AF420FD14FEA860CB5
:102190000EFA0CF7BC4303FA0CF73C43CF78282F18
:1021A00000D14561CF78482F00D10561761C082EFB
:1021B000E4D34460F0BD806880B2704702460020DE
:1021C00092680A4200D00120704741617047016166
:1021D00070470AB101617047416170470146054887
:1021E000006880B200EBC100001D034A32F8100005
:1021F00080B27047505C00400060004001460648D5
:10220000006880B200EBC100801D044A32F8100063
:10221000C0F3090070470000505C004000600040BF
:1022200001460548006880B200EBC100034A32F85D
:10223000100080B270470000505C00400060004019
:1022400010B5BCB00446522127A8FDF7D5FF9C224B
:1022500005496846FDF7A9FF214668460DF09AFD3D
:1022600000203CB010BD00003879050838B505469F
:102270000C46F820207000206070684600F0CAF913
:1022800058B980202070022060709DF80000083846
:10229000A0709DF800000830E070002038BD0000FC
:1022A00070B5ADF5047D05460C4600260CE0F01C2B
:1022B000285C3F493F4A12888854701CC6B23D488A
:1022C0000088401C3B4908806878B042EFDCA87861
:1022D00000F01000002863D1364908806946344870
:1022E0000DF058FD9DF801003C2805DA9DF800002E
:1022F00000F0E000802845DD3C202F490880A72021
:10230000207020782A4908702B4800786070607827
:1023100048701020A070A07888702748028869460D
:10232000E01CFDF742FF9DF8000000F0E00080286F
:1023300008D19DF80100821C69461D48C01CFDF7AC
:1023400034FF30E09DF8000000F0E000A02809D143
:102350009DF8010000F5817269461548C01CFDF723
:1023600024FF20E09DF8000000F0E000C0281AD112
:102370009DF8010000F2022269460D48C01CFDF7DD
:1023800014FF10E0A72020709DF80100801C6070F1
:102390000020A07062786946E01CFDF706FF02E0AD
:1023A000A6202070667000200DF5047D70BD000031
:1023B00074FB0020300500202C05002010B50146DC
:1023C00000220023A72008703148C07800F0E00008
:1023D000802807D12E480079801C2E4C2488001BB1
:1023E00083B21CE02A48C07800F0E000A02808D1A1
:1023F0002748007900F58170264C2488001B83B2A1
:102400000DE02348C07800F0E000C02807D1204844
:10241000007900F202201F4C2488001B83B21C4864
:102420008078401C1A4CA0702046807888703C2B25
:1024300012DD0DE017480088C01C154C245CD01C30
:102440000C54501CC2B213480088401C114C208010
:102450003C2AEFDB4A7018E00DE00E480088C01CF3
:102460000B4C245CD01C0C54501CC2B20948008890
:10247000401C084C20809A42EFDB4A70887800F0BC
:102480000F0088700020034C2080002010BD000049
:1024900074FB00202C05002010B5BCB00446F022CF
:1024A00005496846FDF781FE214668460DF072FC3D
:1024B00000203CB010BD0000D47905087047000032
:1024C00000B5ADF5157D32480078012841D1FEF701
:1024D0008DFE3048007810B901202E4908704FF465
:1024E000405103200AF0FAFB85A903200CF01AFDE5
:1024F0009DF81402012802D0022812D10AE09DF8AA
:1025000015020A2805D00DF105010DF215200DF078
:1025100041FC06E00DF105010DF2152000F051FA25
:1025200000BF00BF07208DF804009DF806003D287D
:1025300001DD3D2001E09DF806008DF80600302108
:1025400003200AF023FC402201A983200CF001FDA6
:102550001AE04FF4405103200AF0C0FB85A9032084
:102560000CF0E0FC07208DF80400FE208DF805003B
:1025700001208DF80600302103200AF007FC4022DC
:1025800001A983200CF0E5FC0DF5157D00BD0000D0
:10259000100000202F0500207CB5044606A103C9C9
:1025A000CDE9000107250020207065702A466946A4
:1025B000A01CFDF7FAFD7CBD4D4231313435780069
:1025C00010B50548FFF7F7FD00F0080008B101203D
:1025D00010BD0020FCE70000000C014010B50446CF
:1025E00080202070012060700DF07EFAA07010BD78
:1025F00008B507A10968009100210170032141700D
:10260000BDF8001041809DF80210017108BD000066
:10261000030703007FB50446002539A30FCB8DE8DF
:102620000F00FC2020700DF069FA012801D10DF097
:102630000FFB374806F05AF935480078552803D083
:102640006FF0070004B070BD69460E2006F066F911
:102650002F480DF081FA2E4800F0A9F8012802D089
:102660006FF00700EEE720788DF80B0069460E202A
:1026700006F054F926480DF06FFA254800F0A4F84A
:10268000012802D06FF00700DCE7002524E0204895
:1026900000F09AF8012805D1217880202841081AF5
:1026A00020700DE01A4800F082F8012805D1217849
:1026B000802028410844207002E06FF00700C1E745
:1026C00020788DF80B0069460E2006F027F9104897
:1026D0000DF042FA681CC5B2052DD8DD0C4800F09B
:1026E00073F8012803D12078001F207006E0084805
:1026F00000F05DF8012801D1207820700020A1E7CA
:1027000003A100F801180020606000003F010000F4
:1027100074FB00207FB505460C4616A30FCB8DE851
:102720000F00F5202070002060700DF0E7F90128FF
:1027300001D10DF08DFA134806F0D8F81148007851
:10274000552803D06FF00A0004B070BD0A208DF840
:102750000000A8788DF80A00E8788DF80B0069462B
:102760000E2006F0DBF80420074948700020207096
:1027700000BFE9E70A2100790118002060606C744D
:102780003F01000074FB0020CD03002070B505461A
:102790000C468020207001206070FFF711FF10B1FF
:1027A0000120A07001E00020A070002070BD014653
:1027B000087838B94878012804D18878022801D1EE
:1027C000012070470020FCE70146087830B94878BE
:1027D000012803D18878012800D170470020FCE748
:1027E00030B59DB005460C4600201C90FE202070A0
:1027F0000020607069461CA800F0EEFE802020706A
:102800009DF8700000EB400101EBC000401C6070BF
:102810009DF87000A0709DF8700000EB400101EB86
:10282000C0026946E01CFDF7C0FC00201DB030BDB1
:1028300010B50446024920460AF010FE10BD000003
:10284000F805002070B505460C460020607006F0C3
:1028500031F910B90020207001E04420207070BDD3
:102860002DE9F041AEB005460C46002700202D9022
:10287000FE20207000206070AE786B462DAA39468D
:10288000304601F071FD8046B8F1000F01D0012003
:1028900000E0002000B11EE0802020709DF8B40010
:1028A00000EBC000401C60709DF8B400A0709DF863
:1028B000B40000280BDD9DF8B400142807DA9DF859
:1028C000B40000EBC0026946E01CFDF76EFC00207E
:1028D0002EB0BDE8F0816FF00100F9E72DE9F0417D
:1028E000AEB005460C46002700202D90FE2020703B
:1028F00000206070AE786B462DAA3946304601F054
:1029000033FE8046B8F1000F01D0012000E0002026
:1029100000B11CE0802020709DF8B400C000401C75
:1029200060709DF8B400A0709DF8B40000280ADD26
:102930009DF8B400102806DA9DF8B400C20069467C
:10294000E01CFDF732FC00202EB0BDE8F0816FF0F6
:102950000100F9E730B5B9B005460C4600203890C3
:10296000FE2020700020607001A938A800F0C4FD8E
:10297000802020709DF8E00005280ADD3820607076
:102980009DF8E000A070372201A9E01CFDF70DFCC6
:1029900014E09DF8E00000EB400101EBC000401C9A
:1029A00060709DF8E000A0709DF8E00000EB400131
:1029B00001EBC00201A9E01CFDF7F7FB002039B0D4
:1029C00030BD70B505460C46802020700020607038
:1029D0002878B82832D00FDCA0F1A00013287CD2D0
:1029E000DFE800F046415F5A64696D73777B7B7B5B
:1029F0007B7B7B7B7B7B3400BE2819D008DCB9282D
:102A000019D0BA282BD0BC281CD0BD2865D108E02D
:102A1000C3281FD0C4283AD0D0282ED0D1285CD1CA
:102A200030E00DF06BF8012801D10DF011F957E0FD
:102A30000DF08CF954E00AF0CFF851E020460DF08B
:102A40008BF84DE02046FFF7D3FD49E02046FFF725
:102A5000A3FD45E021462846FFF7F4FE40E020466E
:102A6000FFF7BCFD3CE021462846FFF737FF37E083
:102A700021462846FFF7F4FE32E021462846FFF7BC
:102A800069FF2DE021462846FFF7AAFE28E02146EF
:102A9000284600F027F823E021462846FFF73AFEB3
:102AA0001EE021462846FFF771FE19E02146284620
:102AB000FFF7DCFB14E02046FFF7EEFC10E02146B8
:102AC0002846FFF7EDFB0BE007E02046FFF776FC1A
:102AD00006E02046FFF7B4FB02E0F720207000BFBD
:102AE00000BF70BD02460020024B1870087048708D
:102AF000704700002F05002000BFFEE730B50346F9
:102B0000002400BF1BE01D7828090A2803DA00F121
:102B10003005157002E000F137051570521C1D7864
:102B200005F00F000A2803DA00F13005157002E005
:102B300000F137051570521C5B1C651CECB28C4211
:102B4000E1DB30BD10B500F001F810BD08B5142070
:102B50008DF8030003208DF802004FF48060ADF87B
:102B6000000069460F48FFF7D5FA012291020D488F
:102B7000FFF72FFB48208DF8030003208DF802009B
:102B80004FF40060ADF800000121084609F0F8FBA1
:102B90000B210120FFF7AAFA69460248FFF7BAFAAB
:102BA00008BD0000000C01402DE9F04F87B004463D
:102BB0008B46A9A103C9CDE905010027B846B9464E
:102BC00000260025002004908246039002908DF894
:102BD00014B0224605A9032006F010F801900198D0
:102BE00008B1012000E0002000B133E16778B84669
:102BF000781E205C00F08009E65D781C255C082DBD
:102C000003D1612007B0BDE8F08F1DE14FF000094E
:102C1000202000EB0611681C0844C0B28DF8150096
:102C20008EB9A078691CFF228A4090438DF8160067
:102C3000681CC0B240F040008DF817009DF81600E7
:102C40008DF8080067E0012E18D1A0788DF81600E5
:102C5000E078691CFF228A4090438DF81700681CB9
:102C6000C0B240F040008DF818009DF816008DF8B5
:102C700008009DF817008DF809004CE0022E1FD1C6
:102C8000A0788DF81600E0788DF817002079691C7F
:102C9000FF228A4090438DF81800681CC0B240F0B3
:102CA00040008DF819009DF816008DF808009DF879
:102CB00017008DF809009DF818008DF80A002AE029
:102CC000032E26D1A0788DF81600E0788DF8170035
:102CD00020798DF818006079691CFF228A409043A2
:102CE0008DF81900681CC0B240F040008DF81A0041
:102CF0009DF816008DF808009DF817008DF8090062
:102D00009DF818008DF80A009DF819008DF80B0049
:102D100001E0612076E7311DC8B2224605A905F021
:102D20006DFF2078802801D061206BE76778781EDE
:102D3000205C00F08009B9F1800F04D114F807A0DD
:102D4000781C205C0390781E205C00F00F00C0F11E
:102D50000800C0B20490691C0498884245D196B915
:102D60009DF81600FF228A409043A17808438DF811
:102D70000800E0788DF8090020798DF80A00607964
:102D80008DF80B0033E0012E10D19DF81700691C5F
:102D9000FF228A409043A17808438DF80900E0782B
:102DA0008DF80A0020798DF80B0020E0022E0DD15D
:102DB0009DF81800691CFF228A409043A1780843BF
:102DC0008DF80A00E0788DF80B0010E0032E0AD190
:102DD0009DF81900691CFF228A409043A17808439E
:102DE0008DF80B0003E061200CE761200AE78020EA
:102DF000207084F801809DF80800A0709DF80900FB
:102E0000E0709DF80A0020719DF80B0060719DF83C
:102E100008009DF8091048409DF80A1048409DF8A8
:102E20000B104840A071B9F1800F0DD1564504D068
:102E300006EB0A00C6B2039D06E006EB0A00C6B226
:102E40000398401C2844C5B2B9F1800F3FF4DEAEB0
:102E50000020D7E66120D5E6002008000000000031
:102E60002DE9F0410646304D002493213046FFF70E
:102E70009BFE8046B8F1000F01D0012000E0002049
:102E800000B14EE02948C078042804D12748D6F87C
:102E90000210416005E02548B6F803108180717981
:102EA0008171B77993222046611CCCB22A547022DA
:102EB0002046611CCCB22A541C48C078042806D194
:102EC00028191A4949680160201DC4B20CE0882203
:102ED0002046611CCCB22A54281914498A880280E1
:102EE00089798170E01CC4B22046611CCCB22F5499
:102EF00028222046611CCCB22A543246294620465C
:102F000005F07CFE8046B8F1000F01D0012000E002
:102F1000002000B105E0B078044988730020BDE8C6
:102F2000F0816120FBE7000076FB0020B90301205F
:102F30002DE9F0410646324D002495213046FFF739
:102F400033FE8046B8F1000F01D0012000E00020E0
:102F500000B152E02B48C078072805D12948D6F89F
:102F60000210C0F8071006E02648B6F80310A0F8D3
:102F7000071071794172B77995222046611CCCB255
:102F80002A5470222046611CCCB22A541D48C078B5
:102F9000072807D129191B48D0F807000860201D11
:102FA000C4B20DE088222046611CCCB22A542919F3
:102FB0001448B0F807200A80407A8870E01CC4B238
:102FC0002046611CCCB22F5428222046611CCCB272
:102FD0002A5432462946204605F010FE8046B8F1B4
:102FE000000F01D0012000E0002000B105E0B07822
:102FF000044988730020BDE8F0816120FBE70000F0
:1030000076FB0020B90301202DE9F0410646244D4E
:10301000002497213046FFF7C7FD8046B8F1000F26
:1030200001D0012000E0002000B137E01D48D6F8B3
:103030000210C0F80710B77997222046611CCCB265
:103040002A5470222046611CCCB22A541548C078FC
:103050000A2806D129191348D0F807000860201D56
:10306000C4B22046611CCCB22F5428222046611CD9
:10307000CCB22A5432462946204605F0BFFD804690
:10308000B8F1000F01D0012000E0002000B105E000
:10309000B078044988730020BDE8F0816120FBE727
:1030A00076FB0020B903012070B52C4D2846FFF7B0
:1030B000D7FE04460CB1012000E0002000B14BE037
:1030C0002748807B00F0040048B12846FFF730FF16
:1030D00004460CB1012000E0002000B13CE0204893
:1030E000807B00F0040048B12846FFF78DFF0446BE
:1030F0000CB1012000E0002000B12DE01848807BD9
:1031000000F0200070B100F007F901201449C873E5
:10311000284600F077FA04460CB1012000E00020B8
:1031200000B119E0012000F041F802200D490870BB
:103130000B48807B00F0600018B902200A49087033
:1031400008E00748807B00F02000202802D10420FE
:1031500005490870002070BD6120FCE774FB002069
:10316000B90301208D0400208E0400200E49097847
:10317000890921B1012908D0022912D10BE00421CB
:10318000094AD170012191700BE00721064AD170E4
:103190000221917005E00A21034AD1700321917048
:1031A00000BF00BF70470000B9030120F0B585B033
:1031B000054629A103C9CDE9030129A000680290B1
:1031C00028A0006801900027274E2848007834285E
:1031D00001DB062700E0042725480088042802DADE
:1031E000042023490880224800788DF80D008DF8CE
:1031F0000E5000208DF80F00791CC8B2334603AA88
:10320000022105F093FC04460CB1012000E00020EF
:1032100000B11FE002AB00223A210420009605F025
:10322000EFFD04460CB1012000E0002000B111E0E8
:103230000D4801AB012268210090042005F0E0FD5B
:1032400004460CB1012000E0002000B102E00020A3
:1032500005B0F0BD6120FBE70000000003030000A3
:103260006004000001D0000074FB00208F040020E7
:10327000DE03002070B586B021A103C9CDE90401A9
:1032800021A00068039021A0006802900026204D34
:1032900020480078342801DB062600E00426711C53
:1032A000C8B22B4604AA022105F040FC04460CB12A
:1032B000012000E0002000B11FE003AB00223A2112
:1032C0000420009505F09CFD04460CB1012000E0AF
:1032D000002000B111E00E4802AB012268210090ED
:1032E000042005F08DFD04460CB1012000E0002013
:1032F00000B102E0002006B070BD6120FBE70000D5
:1033000000000000020200006004000001D0000084
:1033100074FB00208F04002070B586B025A103C97E
:10332000CDE9040125A00068039025A00068029063
:103330000026244D24480078342801DB062600E0CE
:10334000042604208DF8110000208DF812000C20B6
:103350008DF81300711CC8B22B4604AA022105F097
:10336000E5FB04460CB1012000E0002000B11FE0A5
:1033700003AB00223A210420009505F041FD0446EC
:103380000CB1012000E0002000B111E00D4802ABBB
:10339000012268210090042005F032FD04460CB1A2
:1033A000012000E0002000B102E0002006B070BD66
:1033B0006120FBE700000000030300006004000040
:1033C00001D0000074FB00208F04002038B50446B3
:1033D00004A00068009022466946032005F00EFC18
:1033E000002038BD5000280010B500F017F8FFF796
:1033F00041FF04460CB1012000E0002000B108E0CC
:1034000001200549087041F2EC300CF009FB002066
:1034100010BD6120FCE70000E00300200648002109
:103420000180416081608181002003498870C870FB
:10343000C873087470470000B903012070B50E4CC2
:10344000204600F02BF905460DB1012000E00020D8
:1034500000B10FE02146042005F0ADFA05460DB19C
:10346000012000E0002000B104E0012003490874BD
:10347000002070BD6120FCE774FB0020B90301202F
:1034800070B51B4D2846FFF7EBFC04460CB101203C
:1034900000E0002000B129E01648807B00F0040025
:1034A00048B12846FFF744FD04460CB1012000E076
:1034B000002000B11AE00F48807B00F0040048B102
:1034C0002846FFF7A1FD04460CB1012000E00020D2
:1034D00000B10BE02846FFF779FF04460CB101204C
:1034E00000E0002000B101E0002070BD6120FCE799
:1034F00046040120B90301202DE9F04104460E469F
:103500004FF000080027002500202F490870207088
:1035100005200CF067FAFFF781FF2DE0FFF77EFF33
:10352000FFF78CFF20BB32200CF07AFAFFF7A8FFE0
:1035300000BB2648C178207800EB400202EBC000B7
:10354000234A115400250DE02048001D415D681CF0
:10355000227802EB420303EBC20210441C4A1154CE
:10356000681CC5B20A2DEFDB2078401C207001E0FA
:103570004FF00108781CC7B2B8F1000F01D10A2F33
:10358000CCDD2078052809DC207800EB400101EB38
:10359000C0020F493046FCF708FE13E037220C4901
:1035A0003046FCF702FE2078401F074908700846A5
:1035B000007800EB400101EBC002054937310548B6
:1035C000FCF7F3FDBDE8F081DA030020B903012028
:1035D000B10201207903012070B504460D46074869
:1035E000007800EB400101EBC00205492846FCF7DA
:1035F000DCFD02480078207070BD0000DA03002076
:1036000079030120F8B5044621A000680090224605
:103610006946032005F0F2FA05460DB1012000E0ED
:10362000002000B132E02146042005F0C4F905462F
:103630000DB1012000E0002000B127E0214602206A
:1036400005F084F905460DB1012000E0002000B12D
:103650001CE0E07800F00F063046FEF79FFC0D49B5
:103660000880E07800F0200020280DD1E07800F0FC
:103670001000102804D1607900090749088003E090
:1036800020790009044908800020F8BD6120FCE78A
:10369000E0802800DC030020DE03002038B504466B
:1036A0000BA00068009022466946022005F0A6FAA9
:1036B00005460DB1012000E0002000B106E00548FC
:1036C00061880180FFF752FD002038BD6120FCE7D2
:1036D00026070000B90301207CB5044601200190B3
:1036E00001AB002268210320009405F089FB054608
:1036F0000DB1012000E0002000B10FE00123022203
:1037000068210320009405F049FA05460DB1012017
:1037100000E0002000B101E000207CBD7120FCE74A
:1037200038B5124D12A000680090284600F026F827
:1037300004460CB1012000E0002000B114E02B464B
:103740006A460321042005F0F1F904460CB101207A
:1037500000E0002000B107E00220064908700520C3
:1037600005490870002038BD7120FCE774FB00207B
:1037700001043E008D0400208E0400207FB5044625
:10378000124B0FCB8DE80F001148D0F80D00CDF88B
:10379000010022466946092005F030FA05460DB1C0
:1037A000012000E0002000B10DE02146032005F0DB
:1037B000CDF805460DB1012000E0002000B102E087
:1037C000002004B070BD7120FBE7000030650508E3
:1037D0005706012010B504460D22A11C0748FCF72E
:1037E000E4FC064854F8031FC0F80D106168C0F8E7
:1037F0001110A168E41EC0F8151010BD5706012075
:103800002DE9FC41194E1AA00068019019A000682A
:103810000090042718480078342801DA01AD00E050
:103820006D4600F02DF833462A460321042005F0AA
:103830007DF904460CB1012000E0002000B112E047
:1038400002200E49087000F087F804460CB10120F0
:1038500000E0002000B106E041F2EC300CF0E0F8AE
:103860000020BDE8FC817120FBE7000074FB002014
:103870000102000001001A008F040020E003002074
:1038800010B50D210748FCF7B7FC06480021C0F829
:103890000D100020034948763C2102481A30FCF7FD
:1038A000ABFC10BD5706012070B50C4DFFF7A8FF0B
:1038B00004460CB1012000E0002000B10BE02846D6
:1038C00000F00EF804460CB1012000E0002000B129
:1038D00001E0002070BD7120FCE7000074FB0020B7
:1038E00038B504460CA000680090224669460320C3
:1038F00005F084F905460DB1012000E0002000B17B
:1039000007E00120054948762046FFF763FF0020C5
:1039100038BD7120FCE700000500000057060120BB
:103920007CB50BA0006801900A4D01AB0122682113
:103930000420009505F064FA04460CB1012000E073
:10394000002000B101E000207CBD7120FCE70000F8
:103950000151000074FB002070B5104CFFF7E0FF30
:1039600005460DB1012000E0002000B113E0204623
:10397000FFF7B2FE05460DB1012000E0002000B1C6
:1039800009E0A078012804D1E078512801D1002075
:1039900070BD7120FCE77120FAE7000074FB002085
:1039A00030B503460C464FF6FF71002213E0985CD9
:1039B000414008250BE001F0010020B148F2084029
:1039C00080EA610000E048100146681E45B2002D03
:1039D000F1DC501C42B2A242E9DBC84300B230BD68
:1039E0002DE9F043044607AD95E8E0104FF00008DC
:1039F00001F00109204669F35F0002F0010940EA85
:103A0000890003F0010940EAC90005F0010940EA14
:103A1000091006F0010940EA491007F0010940EADF
:103A200089100CF0010940EAC9184FFA88F0BDE886
:103A3000F0832DE9FF478046894615461E460C9FB8
:103A400000242146641C0DF8018033222146641CA9
:103A50000DF80120404600F0E4F801280AD10DEBF2
:103A60000400D9F800100160D9F80410416004F195
:103A70000800C4B24FF6FF7000EA4515EAB22046CE
:103A8000611CCCB20DF800202A0A2046611CCCB281
:103A90000DF80020F2B22046611CCCB20DF80020D7
:103AA000320A2046611CCCB20DF800204FF49B7006
:103AB0000BF0B6FF3A466946204605F09FF83946B6
:103AC000042004F078FF20B16FF00E0004B0BDE8D0
:103AD000F087B87810B16FF00E00F7E70020F5E737
:103AE0002DE9FF410746884615461E46002421461B
:103AF000641C0DF8017030222146641C0DF8012071
:103B0000384600F08EF801280AD10DEB0400D8F8F1
:103B100000100160D8F80410416004F10800C4B23C
:103B2000EAB22046611CCCB20DF800202A0A2046D9
:103B3000611CCCB20DF800204FF49B700BF070FFAD
:103B400032466946204605F059F83146042004F013
:103B500032FF20B16FF00E0004B0BDE8F08100200C
:103B6000FAE72DE9F047ADF5047D0746884615468E
:103B700099468C9E00244FF0040A2146641C0DF8DF
:103B8000017031222146641C0DF80120384600F0F6
:103B900048F801280AD10DEB0400D8F800100160A4
:103BA000D8F80410416004F10800C4B2EAB220461B
:103BB000611CCCB20DF800202A0A2046611CCCB250
:103BC0000DF800200DEB040052464946FCF7EDFAD3
:103BD00004EB0A00C4B24FF49B700BF021FF38468F
:103BE00000F027F828B932466946204605F006F865
:103BF0000AE032466946204605F000F814200BF032
:103C0000F1FE304600F010FD3146042004F0D3FEF2
:103C100028B16FF00E000DF5047DBDE8F08700209F
:103C2000F9E7014601F0200008B1012070470020AB
:103C3000FCE7014601F0400008B101207047002078
:103C4000FCE7014601F0080008B1012070470020A0
:103C5000FCE7014601F0100008B101207047002088
:103C6000FCE72DE9FE430746884615460024214619
:103C7000641C0DF801702B222146641C0DF80120F4
:103C80003846FFF7CEFF01280AD10DEB0400D8F823
:103C900000100160D8F80410416004F10800C4B2BB
:103CA0004FF49B700BF0BCFE2A466946204604F098
:103CB000A5FF06460EB1012000E0002000B10AE099
:103CC0002946042004F077FE18B16FF00E00BDE81D
:103CD000FE830020FBE7FF202870002068706FF053
:103CE0000E00F4E7F0B589B0054600F045F804464B
:103CF0000CB1012000E0002000B136E005200BF0FF
:103D000071FE00200122CDE9000202900346114617
:103D10000390FFF765FE064605A80090F0B2002369
:103D20001A46194600F062F804460CB1012000E082
:103D3000002000B119E09DF81500401CC7B205A88D
:103D4000C05D00F0020018B16FF00E0009B0F0BDC8
:103D50001CB906982860079868600220044908701A
:103D60000620044908700020F0E76FF00E00EDE730
:103D70008D0400208E0400201FB50020039019A0A0
:103D8000006801900920039002AB03AA01210220E0
:103D900004F0CCFE04460CB1012000E0002000B18C
:103DA0001CE004201049087002A801AB0122682120
:103DB0000090042005F024F804460CB1012000E036
:103DC000002000B10AE002A9022004F0F4FD18B1BD
:103DD0006FF00E0004B010BD0020FBE76FF00E0086
:103DE000F8E7000001D10000E00300202DE9FF4FBB
:103DF00085B014469946129E002500200090824608
:103E00000027FF20307000207070402C04DD6FF020
:103E10000C0009B0BDE8F08F059800F035F9804638
:103E2000B8F1000F01D0012000E0002000B175E0E2
:103E300029466A1CD5B201AA059850540122284689
:103E4000691CCDB201A90A540598FFF702FF0128A9
:103E500005D129466A1CD5B201AA069850542846B5
:103E6000691CCDB201A90C54E4B3402C02D1082046
:103E7000009007E02046E11704EB5171C910491C7E
:103E8000C9B200910098401EA4EBC00000F0FF0AE8
:103E9000BAF1000F06D0012000FA0AF0401E4FFAD6
:103EA00080FB01E04FF0FF3B009801280EDD00276A
:103EB00008E019F807202846691CCDB201A90A5468
:103EC000781C47B20098401EB842F2DCBAF1000FED
:103ED00008D019F8070000EA0B0029466A1CD5B281
:103EE00001AA50544FF49B700BF09AFD324601A981
:103EF000284604F083FE8046B8F1000F01D001206F
:103F000000E0002000B109E03146042004F053FD38
:103F100010B16FF00E007CE700207AE76FF00E0022
:103F200077E72DE9FF4F85B006468A46DDE912475F
:103F30004FF00008C14626F020004FFA80FB002019
:103F4000207001A800900BF0FF005146DDE9072327
:103F5000FFF74CFF054635B901A800F073F810B91A
:103F60004FF001090AE04DB99DF80500821C01A936
:103F70003846FCF71AF92078401C207023E0052011
:103F80000BF0F4FC01A800F04FFB05465DB901A859
:103F900000F058F838B9012000FA08F040EA0900AA
:103FA0000FFA80F90FE075B923789DF80510891C88
:103FB00003FB01709DF805108A1C01A9FCF7F5F8B8
:103FC0002078401C20704046411C4FFA81F80F2891
:103FD000D5DB484609B0BDE8F08F2DE9F84F04461F
:103FE0000D4616461F46DDF8288044F020004FFAA3
:103FF00080F909F0FF003B4632462946CDF80080A3
:10400000FFF7F4FE82465046BDE8F88F0146087877
:10401000802801D1002070470878882801D100202D
:10402000F9E708788E2801D10020F4E76FF00E0040
:10403000F1E7014601F0200008B1002070476FF061
:104040000E00FBE701464878401C085C00F00302C4
:10405000032A01D1002070476FF00E00FBE770B516
:1040600005460C46002624B121462846FFF798FC59
:104070000646F04380B24FF2B801884202D06FF09A
:104080000E0070BD0020FCE7014601F0040008B1FD
:10409000002070476FF00E00FBE72DE9F05F8046CF
:1040A0000E4617461C460A9D4FF0F1092046E117BF
:1040B00004EB9171C1F38F0A2846E91705EB917162
:1040C000C1F38F0B282E0DD12046E11704EB91711F
:1040D000C1F38F0A5B4652463946404600F004F968
:1040E000814606E05B4652463946404600F05FF89E
:1040F00081464846BDE8F09F2DE9FF4707468846C0
:10410000154699460C9E00242146641C0DF801704A
:1041100023222146641C0DF801203846FFF781FD5B
:1041200001280AD10DEB0400D8F800100160D8F87E
:104130000410416004F10800C4B24FF6FF7000EAB9
:1041400045153846FFF77DFD30B9EAB22046611CBF
:10415000CCB20DF800200BE0EAB22046611CCCB2D4
:104160000DF800202A0A2046611CCCB20DF8002070
:104170002046611CCCB20DF800904FF49B700BF000
:104180004FFC32466946204604F038FD3146042093
:1041900004F011FC20B16FF00E0004B0BDE8F08710
:1041A000B07810B16FF00E00F7E70020F5E72DE9C9
:1041B000F04FA5B00546894616461F464FF0020A45
:1041C0004FF0000B4FF000083046F11706EBD161BD
:1041D0004911491C1FFA81FB3846F91707EBD161D9
:1041E000C1F34F18012D01D14FF00A0A00242BE032
:1041F00004EB0800082800DC0DB1012D0ED102A847
:10420000009004EB080082B21F2300215046FFF704
:1042100073FF80B1F12025B0BDE8F08F02A80090B7
:1042200004EB080082B21F2300215046FFF701FC77
:1042300008B1F120EFE709EBC41080220DF10B016A
:10424000FBF7B3FF601C84B25C45D1DB0020E2E7E2
:104250002DE9FF410746884615461E4600242146A3
:10426000641C0DF8017020222146641C0DF8012009
:104270003846FFF7D6FC01280AD10DEB0400D8F828
:1042800000100160D8F80410416004F10800C4B2C5
:104290003846FFF7D6FC30B9EAB22046611CCCB2F2
:1042A0000DF800200BE0EAB22046611CCCB20DF8FC
:1042B00000202A0A2046611CCCB20DF800204FF4E1
:1042C0009B700BF0ADFB32466946204604F096FC2D
:1042D0003146042004F06FFB20B16FF00E0004B0F3
:1042E000BDE8F0810020FAE72DE9FF470446884643
:1042F00091461F464FF0020A00253E460CB9F6B221
:104300000CE0012C02D14FF00A0A07E0022C01D187
:10431000B6B203E0F12004B0BDE8F08700251FE04D
:10432000781986B2FF2E00DC0CB1012C08D16B4647
:10433000324600215046FFF78BFF50B1F120EAE7EB
:104340006B46324600215046FFF7CAFB08B1F12008
:10435000E1E708EB8500DDF803100160681C85B219
:104360004D45DDDB0020D6E72DE9FF4FADF2344DA2
:104370008346154698460026CDF828B0B14601245C
:104380000027002006902BF0040040F0200005904C
:10439000042004900020039080210BA8FBF72CFF41
:1043A000002028706F480DF22C4332460090DDF853
:1043B00038140A98FFF711FE6A48FFF727FE20B16C
:1043C00000200DF2444DBDE8F08F04A80090654830
:1043D000417807AB09AA00F036F98246BAF1000F1E
:1043E00018D1012028705F489DF810208118059889
:1043F00000F057F99DF81C0088F8000059489DF816
:10440000101008440168C8F801104068C8F8050099
:104410000020D6E70A200BF0A9FA0020287000BF80
:104420000020CDF82C04CDF83004601EC4B20BA8D7
:1044300000EBC40050F8011FCDF82C144068CDF8F3
:104440003004484808A90DF22C433246CDE900104B
:10445000DDF838140A98FFF764FD80B203904FF03E
:104460000009002737E004A83E4A0090517802EB8B
:10447000090007AB09AA00F0E6F88246BAF1000F7E
:104480001FD19DF810004844364A8118059800F065
:1044900008F99DF81C00297801EBC10108F801001A
:1044A000287800EBC000401C40449DF8101049449F
:1044B0002C4A11440A680260496841602878401C0F
:1044C0002870284909F10100085C801C484400F06C
:1044D000FF09781CC7B29DF820008742C3DB301D5E
:1044E000C6B200272FE00120B8400399084040B32E
:1044F000301FC21700EB5272D2100DF22C439A5C9F
:10450000311FCB1701EB5373DB10A1EBC30307FA89
:1045100003F31A43D3B2C21700EB5272D2100DF25A
:104520002C4C0CF802300BA800F8346000EBC400EF
:10453000DDF82C1440F8011FDDF830144160601CD8
:10454000C4B2781CC7B2102FCDDB0698401CC0B295
:104550000690002C03DD06982028FFF661AF0020AE
:104560002FE7000074FB00202DE9F04FADF5097D29
:1045700080468A4614461E464FF0000BCDF8188040
:104580000025A94604200290802107A8FBF734FEED
:1045900000202070234804A987AB5A46CDE90010BB
:1045A00051460698FFF7BDFC9DF8100028B9002081
:1045B00020700DF5097DBDE8F08F0025A9462BE0A0
:1045C00002A8184A00905178501903AB05AA00F0D0
:1045D0003AF80746B7B99DF80C00217801EBC10104
:1045E0007054207800EBC000401C30449DF8081047
:1045F00029440C4A11440A680260496841602078E5
:10460000401C20700749681C085C801C2844C5B207
:1046100009F1010000F0FF099DF810008145CFDB92
:104620000020C6E774FB002010B50446204604F0C5
:10463000D7FA2146042004F0BEF910B16FF00E0045
:1046400010BD0020FCE72DE9F05F044617469846B0
:10465000DDF8289094F802A06078401E00F0FF0B6F
:104660000225BAF1000F03D06FF00E00BDE8F09FF5
:1046700060195946FFF7F3FC06460EB1012000E031
:10468000002000B10AE0605D3870681C205C88F88A
:104690000000A81C89F800000020E7E76FF00B007D
:1046A000E4E72DE9FF4105460E4600242846FFF7C2
:1046B000C0FC07460FB1012000E0002000B120E05F
:1046C0002046611CCCB201A90D5402222046611C77
:1046D000CCB201A90A5401A8204431680160716874
:1046E000416004F10800C4B24FF49B700BF098F9DC
:1046F0006A4601A9204604F081FA002004B0BDE812
:10470000F081FF208DF8000000208DF801006FF08F
:104710000E00F3E72DE9F04F8BB005460F46144627
:10472000984604200A9046A0006801902046E117B0
:1047300004EB9171C1F38F06E019C11700EB917181
:10474000C1F38F0A2046E11704EB91718910A4EBA5
:10475000810101F0FF0BE019C11700EB9171891085
:10476000A0EB8101C1F1040101F0FF0945B9F0B2EC
:104770008DF8060002AA01A9032004F03FFA1DE00B
:10478000012D0ED10A208DF80400F0B28DF806003C
:10479000300A8DF8070002AA01A9042004F02EFABD
:1047A0000CE0022D0AD1F0B28DF80600300A8DF827
:1047B000070002AA01A9042004F020FA9DF80800CD
:1047C000802803D0F1200BB0BDE8F08F5A460DF1E0
:1047D0000B014046FBF7E9FC149880F800B04DB996
:1047E0000AF0FF008DF8060002AA01A9032004F0D8
:1047F00005FA11E0022D0FD10A208DF804000AF00D
:10480000FF008DF806004FEA1A208DF8070002AA73
:1048100001A9042004F0F2F99DF80800802801D0D5
:10482000F120D0E7C9F1070002AA81184A4608F131
:104830000400FBF7BAFC159880F800900020C2E74E
:10484000022000002DE9F04387B080460E46144652
:104850001D462846E91705EB9171C1F38F09E11751
:1048600004EB91718910A4EB810131B92046E11765
:1048700004EB9171C1F38F0706E02046E11704EBCA
:1048800091718910491C8FB205A806A903AB2A466D
:10489000CDE9001021464046FFF73CFF9DF8181077
:1048A000494270189DF8182003A9FBF77EFC3019C7
:1048B0009DF8142004A9FBF778FC9DF818004042ED
:1048C00031184B463A46404600F072F818B1F120D4
:1048D00007B0BDE8F0830020FAE72DE9F047ADF519
:1048E000047D07468846154699468C9E00244FF065
:1048F000040A2146641C0DF8017021222146641C23
:104900000DF801203846FFF78CF901280AD10DEB8C
:104910000400D8F800100160D8F80410416004F1D8
:104920000800C4B23846FFF78CF930B9EAB2204625
:10493000611CCCB20DF800200BE0EAB22046611CED
:10494000CCB20DF800202A0A2046611CCCB20DF82A
:1049500000200DEB040052464946FBF726FC04EB11
:104960000A00C4B24FF49B700BF05AF83846FFF7B8
:1049700060F928B932466946204604F03FF90AE05A
:1049800032466946204604F039F914200BF02AF823
:104990003046FFF749FE3146042004F00CF828B1F8
:1049A0006FF00E000DF5047DBDE8F0870020F9E7FB
:1049B0002DE9F0478AB005460F4690461C464FF059
:1049C00002090026B2460DB9E4B20CE0012D02D175
:1049D0004FF00A0907E0022D01D1A4B203E0F12053
:1049E0000AB0BDE8F087264624E0FF2E00DC0DB1BA
:1049F000012D0CD102A80090301B07EB800332463A
:104A000000214846FFF769FF70B1F120E8E702A8EE
:104A10000090301B07EB8003324600214846FFF729
:104A2000A0F808B1F120DBE70AF104001FFA80FAD0
:104A3000701C86B204EB0800B042D6DC0020CFE741
:104A40002DE9F04104460D4617461E460020084950
:104A50000870B020487008468470C5700020087146
:104A6000084680F80571304600F030F8BDE8F08166
:104A7000AB0101202DE9F04104460D4616461F46C4
:104A800000200F490870A420487008468470C57043
:104A9000067102793946401DFBF787FB0021084863
:104AA00080F805118078042805D10548C07810B930
:104AB000022004490870044800F008F8BDE8F081BD
:104AC000AB010120D803002098FF0020F8B5044670
:104AD00000255248027829466D1C514842544F48DF
:104AE000007880F001004D4908704E480278294650
:104AF0006D1C4B4842544B48427829466D1C48482F
:104B000042544848827829466D1C454842544548DD
:104B1000C27829466D1C424842544248007930B15F
:104B2000404802792846691CCDB23D490A543D49A6
:104B30000A793B4948193B49491DFBF736FB39487F
:104B400000792844C5B2374890F8050130B9354896
:104B5000807804280AD13348C07838B9314890F8B1
:104B600005212846691CCDB22D490A542E480078EB
:104B7000042805D128222846691CCDB228490A54A8
:104B800022462749284604F039F806460EB101208E
:104B900000E0002000B13FE0A078F2281AD1E078D0
:104BA000FEF704FB6088ADF800001F480078042879
:104BB00008D128208DF8020022466946032004F01F
:104BC0001DF804E022466946022004F017F801208F
:104BD000FEF7ECFA14480078042809D16078401FE9
:104BE000205C124908706078001F205C487008E063
:104BF0006078C01E205C0D4908706078801E205CC3
:104C000048700A480078902804D10848407808B9CC
:104C10000020F8BD7220FCE77120FAE7D8030020DD
:104C200085FD0020AB0101208E040020D60300206A
:104C30002DE9F04104460D4616461F4600200B495B
:104C40000870D620487008468470C57006710279D5
:104C50003946401DFBF7A9FA0021044880F80511E8
:104C60000348FFF733FFBDE8F0810000AB010120EE
:104C700098FF00207047000010B518480068047ABB
:104C8000022C01D0042C05D1FCF764FB134800680A
:104C9000047A1CE0062C19D11048006840780528D9
:104CA0000ED10E480068007800F07F0040B90B4933
:104CB0000968C87807F0B2FF09490968086A80479F
:104CC0000849096888688047082400E008240349E7
:104CD00009680C7207F09EF910BD0000E404002082
:104CE000F0040020E804002000B5C1B04848007876
:104CF00030B901204649087046A1022000F0C8F9E9
:104D00004A48007808287ED2DFE800F07D693C5CE4
:104D100029047D774648407988B901204549887043
:104D20000321444806F0DEF8C0B900203F4908706E
:104D300001203F49487100208875C8750EE00020A9
:104D40003C49887003213B4806F0CCF830B900207C
:104D500036490870364948718875C87554E0042191
:104D6000354806F0BFF860B9002030490870324875
:104D700080782F4908713048C078C8700020887545
:104D8000C87541E02A48007B29490979884213DA2D
:104D90002748C0788DF804002548C078411C01A838
:104DA00006F0EEF868B92248007B401C20490873E1
:104DB00000208875C87504E000201C4908701C4953
:104DC000087321E01C488078642804DA1A48807847
:104DD0000A301949887000201449087014E01648F8
:104DE000C078C82804DA1448C07814301249C87052
:104DF00000200E49087007E005E0FCF7F7F90020F5
:104E00000A49087000E000BF00BF41B000BD0000CB
:104E100030000020436F6D6D756E692E20457374F0
:104E200061626C69736865640000000055000020D1
:104E30001872002039000020350000201CB50446FF
:104E40006846FCF7BFFE4CB94FF478700090002024
:104E50008DF806006846FCF77DFE12E04FF478708E
:104E6000FCF762FE00208DF804004FF4787000908B
:104E70000C208DF8050001208DF806006846FCF72F
:104E800069FE1CBD1CB504466846FCF79BFE44B990
:104E90001020009000208DF806006846FCF75AFEAE
:104EA00013E00020094908701020FCF73DFE0020A7
:104EB0008DF80400102000900C208DF805000120D2
:104EC0008DF806006846FCF745FE1CBD4C0000202E
:104ED00008B54FF4A06002F003FB28208DF8000015
:104EE00001208DF801008DF802008DF8030068465E
:104EF00002F0C4FA1D208DF8000000208DF801009A
:104F00008DF8020001208DF80300684602F0B6FA21
:104F10001E208DF8000000208DF8010001208DF882
:104F200002008DF80300684602F0A8FA1C208DF8F4
:104F3000000001208DF8010003208DF802000120FF
:104F40008DF80300684602F099FA17208DF80000EA
:104F500000208DF801008DF8020001208DF803007B
:104F6000684602F08BFA0A208DF8000000208DF8C8
:104F7000010001208DF802008DF80300684602F060
:104F80007DFA08BD014605290ED2DFE801F00305D0
:104F900007090B00002070470020FCE70020FAE71B
:104FA0000020F8E70020F6E72220F4E7014631B1BF
:104FB000122906D0132906D0142908D105E00020B3
:104FC00070470020FCE70020FAE70020F8E73220D5
:104FD000F6E7000010B504462CB94FF4805105489F
:104FE000FDF7F3F804E04FF480510248FDF7EFF8C5
:104FF00010BD0000000C014070B505460024F023F0
:105000004FF4A0720021084600F0BCF900F0E4FA69
:1050100000BF03E0284600F0C9FA641CB4F5963FCF
:10502000F8D300F0C9FA70BDF8B50646002408A010
:1050300000680090002508E09DF8002029463046D1
:1050400000F012F8681C85B2641C142CF4D3F8BD6F
:105050002000000070B504460D461646324629462B
:105060002046FDF7B6F870BD70B505460E461446ED
:10507000A4F12000C4B204EB4400044901EB001287
:105080003146284600F01AF870BD0000B0650508EA
:105090002DE9F04107460C460025002608E022785D
:1050A00031463846FFF7E0FF701C86B2641C6D1C69
:1050B000207808B1142DF2D3BDE8F0812DE9F04736
:1050C00080460E46174600250024A146A24608EB5E
:1050D00048004FF6FF7101EAC00A084600EA0619C7
:1050E00000224FF480512048FFF7B4FF5146484654
:1050F00000F0A4F800F070FA00BF2CE0B9F5987F3A
:1051000014D000240FE037F815000121A140084019
:1051100020B91648008800F049FA03E014480088D6
:1051200000F044FA641C112CEDD313E000240FE0CE
:1051300037F815000121A140084020B90B4800882C
:1051400000F034FA03E00A48008800F02FFA641CEB
:10515000102CEDD36D1C192DD0D301221103024860
:10516000FFF778FFBDE8F087000C0140C004002085
:10517000BE0400202DE9F0478046894614461E46AD
:105180000027012536B92B4622464946404600F005
:105190008DF806E0601C83B22A464946404600F07E
:1051A00085F800F019FA002704E00548008800F0AF
:1051B000FDF97F1C601C6843B842F6D8BDE8F08753
:1051C000BE0400202DE9F04104460D4617461E4658
:1051D0000023324621462846FFF7CCFFE01981B272
:1051E000002332462846FFF7C5FF01233A462146F1
:1051F0002846FFF7BFFFA91988B201233A46214686
:10520000FFF7B8FFBDE8F08110B5074800884CF201
:10521000C001484004490880362000F08BF902485C
:10522000008800F0A5F910BDC204002001B5BDF84A
:1052300000000149088008BDC004002070B5044684
:105240000D460021184807F0F1FB2A2000F072F902
:10525000200A00F08DF9E0B200F08AF904F11000A4
:10526000C0F3072000F084F904F11001C8B200F087
:105270007FF92B2000F05EF9280A00F079F9E8B2F6
:1052800000F076F905F11800C0F3072000F070F97E
:1052900005F11801C8B200F06BF9292000F04AF9B5
:1052A0002C2000F047F970BD003800402DE9F04790
:1052B00004460D4616461F464FF4A0784FF0F009FD
:1052C00000212F4807F0B2FB2A2000F033F94445B3
:1052D00001DA214600E04146080A00F049F9444558
:1052E00001DA214600E04146C8B200F041F9A119B7
:1052F000491E414502DAA119491E00E04146C1F3A9
:10530000072000F035F9A119491E414502DAA1191B
:10531000491E00E04146C8B200F02AF92B2000F0F7
:1053200009F94D4501DA294600E04946080A00F02E
:105330001FF94D4501DA294600E04946C8B200F0A0
:1053400017F9E919491E494502DAE919491E00E031
:105350004946C1F3072000F00BF9E919491E4945F8
:1053600002DAE919491E00E04946C8B200F000F926
:10537000292000F0DFF82C2000F0DCF8BDE8F087F1
:10538000003800402DE9F04104460D4616461F4600
:1053900000211C4807F04AFB3019401EB0F5A07FE1
:1053A0002EDA7819401EF0282ADA2A2000F0C2F8F6
:1053B000200A00F0DDF8E0B200F0DAF83119491EF9
:1053C000C1F3072000F0D4F83119491EC8B200F02B
:1053D000CFF82B2000F0AEF8280A00F0C9F8E8B2A8
:1053E00000F0C6F87919491EC1F3072000F0C0F893
:1053F0007919491EC8B200F0BBF80120BDE8F08160
:105400000020FBE70038004001B5BDF8000001496D
:10541000088008BDBE04002010B5F0234FF4A07230
:1054200000210846FFF7AEFF10BD00002DE9F74F41
:10543000824614464FF00008C34600250026002788
:105440002078451C6078461C05FB06FB00F0C4F87C
:1054500033462A4650460199FFF794FF28B900F0D9
:10546000ABF8FFF7D9FFBDE8FE8F2C2000F062F803
:105470004FF400610E4807F0D9FA671D4FF000089D
:105480000DE038884FEA1029387809EB00201FFA20
:1054900080F9484600F06CF8BF1C08F10108D845B7
:1054A000EFD300F089F8FFF7B7FF00BFDBE700009C
:1054B000003800402DE9FF5F824616461C460E9FCD
:1054C0004FF00008C346002504FB07FB00F084F8FA
:1054D0003B46224650460199FFF754FF28B900F099
:1054E0006BF8FFF799FFBDE8FF9F2C2000F022F832
:1054F0004FF400610E4807F099FA35464FF0000866
:105500000DE028884FEA1029287809EB00201FFABF
:1055100080F9484600F02CF8AD1C08F10108D84588
:10552000EFD300F049F8FFF777FF00BFDBE700009B
:105530000038004010B50446002240210A48FFF719
:1055400089FD0020FFF746FD2146084807F0A9FA2B
:1055500000BF8021054807F09BFA0028F9D10120FF
:10556000FFF738FD10BD000000100140003800407A
:1055700010B50446012240210A48FFF76BFD0020C8
:10558000FFF728FD2146084807F08BFA00BF80216D
:10559000054807F07DFA0028F9D10120FFF71AFD30
:1055A00010BD0000001001400038004010B5044656
:1055B0002046FFF7DDFF10BD10B50122110304489E
:1055C000FCF707FE0021034807F030FA10BD000089
:1055D000000C01400038004010B50021054807F0DC
:1055E00025FA2920FFF7A6FF2C20FFF7A3FF00F0E4
:1055F00003F810BD0038004010B50021074807F03F
:1056000015FA00224FF480510548FCF7E2FD4FF4F3
:105610000061024807F00AFA10BD0000003800409F
:10562000000C0140002008E0054931F81010054A3F
:1056300052F820201161411CC8B20428F4DD7047E3
:1056400094770508C4040020034931F81010034A78
:1056500052F820201161704794770508C404002097
:10566000034931F81010034A52F820205161704765
:1056700094770508C40400200C49097851B9012128
:105680000A4A11700A4931F810100A4A52F82020CB
:10569000116109E00021054A1170054931F8101027
:1056A000044A52F82020516170470000D8040020BD
:1056B00094770508C40400200749C97D59B9012819
:1056C00003D10121044A917502E00021024A91753B
:1056D0000121014AD17570471872002008B504A055
:1056E000006800906946022005F0FEF808BD000041
:1056F000AA14000070B510481049096801601049EB
:105700000A6842604A6882608968C1600D480A4D33
:105710002ECD2EC000240AE00A4901EB841101F1CC
:10572000300010220849FAF740FD601CC4B2402C3A
:10573000F2DB002070BD0000383801203106002067
:1057400035060020D43A01204106002008B504A007
:10575000006800906946022005F0C6F808BD000008
:10576000001400002DE9F04104460F46194DDFF802
:105770006880012C03DBFF2C01DC012000E000200D
:1057800010B93320BDE8F081062028706C702246E5
:105790003946A81CFAF709FD10A009F0D3FD002630
:1057A00005E0A95D0FA009F0CDFD701CC6B2A01CDC
:1057B0008642F6DB0DA009F0C5FD414628460AF0F9
:1057C000E9FA4146062004F081FF08B13120D9E70B
:1057D0000020D7E748380120473901203E3E3E20CF
:1057E000000000005B253032585D20000D0A0000EB
:1057F00000BFFEE7064807490860084600680649FA
:10580000064A127841F822000548064908607047A8
:105810005C030020940000206483002086000020A8
:105820000C0300208C000020F8B504460D461646F7
:105830000E480088B8B90E48C778602C0ED13B4698
:10584000021D3146204600950BF07CF80749088080
:105850000846008810B108460088F8BD05480BF0DE
:10586000FDF80249088001480088F6E7200600207C
:10587000B9030120443322112FB5054650208DF87D
:105880000C0000208DF80D0015202080002005213F
:105890000D4ACDE90021029023882A46022103A85F
:1058A0000BF0B0FD094908800846008820B90021A6
:1058B000074800680BF053FB03480088208003482A
:1058C000008804B020BD0000220600202006002031
:1058D0001C0600207FB505460E4630208DF80C00D2
:1058E0008DF80D501520208000200521094ACDE9B2
:1058F0000021029023883246022103A80BF082FD8A
:10590000054908800348008820800846008804B0C4
:1059100070BD0000220600202006002030B5C7B070
:1059200000241AA30FCB03AD0FC51CA103C9CDE9F9
:10593000010101250BF0B6FB84B2002030802A461D
:1059400001A96020FFF770FF044624B907A9284683
:10595000FFF7C0FF044607A80FC8CDE90523CDE92E
:1059600003019DF80D00401CC0B28DF80D0024B954
:1059700003A9284600F016F804461CB907A8FFF74B
:105980007BFF0446204647B030BD000000222222A3
:10599000445566778899AABBCCDDEEFFFFFFFFFF79
:1059A000FFFF00007FB504460D46A0208DF80C00D7
:1059B0008DF80D4001200A21114A0346CDE900214E
:1059C0000290104A022103A80BF01CFD0E4908802A
:1059D0000846008880B900200A21094ACDE9002143
:1059E00002903388074A102128460BF00BFD064928
:1059F00008800348008830800348008804B070BDE8
:105A00002206002024060020200600202DE9F84F61
:105A1000814601270024A346A246394A03210020DB
:105A200006F03EFE0746B7F5104F08D1344800781F
:105A30000602334840780643314890F802A036B158
:105A400006F1020B0AF0BF0A4FF0540803E04FF0D2
:105A5000020B4FF0D40800242146641C284800F8AB
:105A600001800F222146641C425400222146641CFE
:105A70004254014608190F2222A1FAF796FB484624
:105A8000FAF7C5FB1E4A04F10F0100905018494671
:105A9000009AFAF78AFB4846FAF7B9FB184988706A
:105AA0004846FAF7B4FB04F10F01084485B21FFA27
:105AB0008BF0134A294609F001FB0746B7F5104F52
:105AC00016D1701985B2280A0D4908704D704EB173
:105AD000084680F802A002460321002009F0EEFAF1
