:020000040800F2
:1000000058550120490100087D700008E1270008CB
:10001000F5530008D1030008C5EB000800000000FC
:10002000000000000000000000000000C9C6000839
:10003000511400080000000059AE000839D3000830
:100040006301000863010008630100086301000800
:1000500063010008630100086301000863010008F0
:100060006301000863010008BD1600086301000871
:1000700063010008630100086301000863010008D0
:10008000630100086301000863010008F5E9000846
:100090004DEA000863010008630100081517000815
:1000A00063010008630100086301000863010008A0
:1000B000A9D30008B9D30008F5D3000863010008EC
:1000C0006301000863010008630100086301000880
:1000D00063010008A9E60008630100086301000845
:1000E0007916000863010008630100086301000835
:1000F0006301000863010008630100086301000850
:10010000630100086301000863010008630100083F
:10011000630100086301000863010008630100082F
:10012000630100086301000863010008630100081F
:10013000DFF810D000F0C8F8004800476503010858
:10014000AFF3008058550120064880470648004715
:10015000FEE7FEE7FEE7FEE7FEE7FEE7FEE7FEE777
:10016000FEE7FEE749D3000831010008202A04DB3E
:10017000203A00FA02F1002070479140C2F12003BA
:1001800020FA03F3194390407047202A04DB203AF9
:1001900021FA02F00021704721FA02F3D040C2F1A7
:1001A0002002914008431946704710B5431A934204
:1001B00009D28318881803E010F8011D03F8011D07
:1001C000521EF9D210BD40EA01039B0703D009E09B
:1001D00008C9121F08C0042AFAD203E011F8013B33
:1001E00000F8013B521EF9D210BDD2B201E000F876
:1001F000012B491EFBD270470022F6E710B51346CB
:100200000A4604461946FFF7F0FF204610BD421C7F
:1002100010F8011B0029FBD1801A704730B5044645
:100220000020034600E05B1C934203D2E05CCD5CFF
:10023000401BF8D030BD034611F8012B00F8012B0C
:10024000002AF9D11846704730B50546002003460C
:1002500000E05B1C934205D2EC5CC85C201A01D123
:10026000002CF6D130BD2DE9F05F05460020924606
:100270009B4688460646814640241BE02846414668
:1002800047462246FFF781FF53465A46C01A91411E
:1002900010D3114618462246FFF768FF2D1A67EB68
:1002A00001084F46224601200021FFF75FFF17EBB0
:1002B00000094E41201EA4F10104DFDC484631460E
:1002C0002A464346BDE8F09F064C074D06E0E0682D
:1002D00040F0010394E8070098471034AC42F6D38D
:1002E000FFF72AFF807B0508A07B050870B58C18F6
:1002F00010F8015B15F0070301D110F8013B2A113A
:1003000006D110F8012B03E010F8016B01F8016B26
:100310005B1EF9D12B0705D40023521E0DD401F822
:10032000013BFAE710F8013BCB1A921C03E013F8EB
:10033000015B01F8015B521EF9D5A142D8D3002020
:1003400070BD000010B500200249087004F0EAFBFF
:1003500010BD00000C040020002010490860104966
:10036000086010490860104908600C4908600F498E
:1003700008700F4908700F4908700F4908600F494D
:1003800008600F49086001200E49087000200E49DE
:10039000087001200D4908707047000020040020FB
:1003A00014040020180400201C040020280400204D
:1003B00029040020090400206C03002070030020A1
:1003C0001004002074030020540000205600002078
:1003D00000BFFEE70146CAB20B1243EA0220704793
:1003E00070B505460024062D11D11048006800782C
:1003F00000F07F0001280AD10C48006840790128EC
:1004000005D10A4800688078222800D1084C0CB930
:10041000022070BD0548006884610021034800681F
:1004200041820020A0470020F3E70000E404002000
:100430001925000810B50446024920460CF0C2FDFB
:1004400010BD0000D005002010B50446024920462A
:100450000CF0B8FD10BD0000C805002070B50546C1
:1004600006480068C478052C01DD002070BD0448F2
:1004700000EBC40128460CF0A5FDF7E7E4040020DA
:10048000D80500200246002901DD02207047012A1C
:1004900001DD0220FAE70020F8E70146022070475C
:1004A00010B50020284988722848C0792849096871
:1004B0004872002026490968C8720CF05BF94FF4B5
:1004C000007100200CF036FA202100200CF012FA06
:1004D000802100200CF07EF91E4890F82C1000209E
:1004E0000CF08AF9402100200CF0E6F9002000F021
:1004F00097FB00200CF0C6F94FF4C06103200CF00C
:1005000019FA4FF4A07103200CF0D6F94FF4C07122
:1005100003200CF05FF9402103200CF0DDF94021AD
:1005200003200CF069F94FF4405103200CF08AF9D4
:10053000202103200CF0DEF900200CF023F901202B
:100540000549086010BD0000F8320120B0740508AC
:10055000E404002074050020000600207047704766
:1005600010B500200549096888720BF02BFB0EF0CE
:1005700071FA00200249086010BD0000E404002068
:1005800000060020014908600868704700300240FA
:1005900001490120886070470030024010B50024F6
:1005A00049E047F6FF70294908602948008800F0B3
:1005B0000F002849087008460078274901EB8000A1
:1005C000D0F8000C84B204F40040C8B1214800788F
:1005D00001EB8000D0F8000CC0F30E0048F68F71DC
:1005E00008401C4909781C4A02EB8101C1F8000C43
:1005F00018490978491E194A52F8210080471AE023
:1006000004F08000B8B113480078134901EB800072
:10061000D0F8000C48F60F7108400E4909780E4AD0
:1006200002EB8101C1F8000C0A490978491E0C4A05
:1006300052F8210080470548006880B204490880CC
:1006400000F400400028ACD110BD0000445C004024
:1006500034050020E0040020005000405405002034
:100660003805002008B50020009022E19748008856
:1006700000F00F00964908700846007800287CD1E9
:1006800094480068944908800846008800F03000CB
:10069000924908809048008800F440508E490880B4
:1006A0008C4909684BF6BF7201EA020080F40050E1
:1006B00080F0200040F4004141F08001854A116043
:1006C0008248008800F0100090BB1046006848F691
:1006D0000F7108401146086004F042F97D4909682D
:1006E0004BF6BF7201EA02007B49098801F4805190
:1006F00009B180F480507849098801F4005109B1AA
:1007000080F400507549098801F0100109B180F0AA
:1007100010007249098801F0200109B180F0200021
:1007200081B241F4004141F080016A4A116008BD84
:10073000FFE76848006880B20090BDF8000000F450
:100740000060B0B363480068C0F30E0048F68F71D4
:100750000840604908600CF07BF95E4909684BF677
:10076000BF7201EA02005C49098801F4805109B1B5
:1007700080F480505849098800E056E001F40051A7
:1007800009B180F400505549098801F0100109B100
:1007900080F010005149098801F0200109B180F072
:1007A000200081B241F4004141F08001494A1160CA
:1007B000BDE7FFE7BDF8000000F40040002878D056
:1007C00044480068C0F30E0048F68F710840414964
:1007D000086006F037FD3F4909684BF6BF7201EA31
:1007E00002003D49098801F4805109B180F480502C
:1007F0003949098801F4005109B180F400503749A2
:10080000098801F0100109B180F01000334909880E
:1008100001F0200109B180F0200081B241F40041D3
:1008200041F080012B4A116081E7294800782C496A
:1008300001EB8000D0F8000C80B20090BDF8000001
:1008400000F40040C0B12248007801EB8000D0F8ED
:10085000000CC0F30E0048F68F7108401C4909785F
:100860001F4A02EB8101C1F8000C19490978491EA1
:100870001C4A52F821008047BDF8000000F08000BB
:10088000B8B113480078164901EB8000D0F8000C8D
:1008900048F60F7108400E490978114A02EB8101B0
:1008A000C1F8000C0A490978491E0F4A52F8210084
:1008B000804708484430006880B20449088000F44A
:1008C000004000287FF4D2AE00BF30E7340500209E
:1008D000E0040020005C0040F4040020F604002046
:1008E00000500040540500203805002010B5404855
:1008F0000078032870D13F48007804281BD13E4877
:10090000007801280AD13D483DA1026840480EF018
:10091000D3FA00203F490860374908703E48006814
:10092000000236490968B0FBF1F03C49086008460E
:1009300000683B4908603B48007800284AD03548A9
:1009400000683949086039A00FF0F8F839490860A3
:10095000012039490870374838A102683C480EF038
:10096000ABFA3C48006833490968884216D12E48E2
:1009700039A102683B480EF09FFA3B4820A102686B
:1009800023480EF099FA0020234908602549087091
:1009900000BF364800780028FBD01BE0254827A17F
:1009A00002682B480EF088FA2A4824A102682848D9
:1009B0000EF082FA2C4812A1026815480EF07CFA5B
:1009C0000020154908601749087000BF27480078C3
:1009D0000028FBD001E0FFE700BF00BF23480078FC
:1009E000012802D100F076FA10BD00BFFCE700003C
:1009F000090400200C0400207403002014040020CB
:100A000046696C652073697A653A20256420420046
:100A100089030020500000201004002070030020F3
:100A20006C030020280400202404002066772E6236
:100A3000696E0000200400202904002020202043AB
:100A40005243203A20255820202020200A00000070
:100A5000750300201C0400202020202020202025B9
:100A6000642000009D030020180400205400002092
:100A700010B596B00020159001AC15A806F0AAFAA2
:100A800013220BA12046FFF790FB01200D490870AF
:100A900004200D490870204604F0BAFDFFF75CFC05
:100AA0000A49042000F0E0F8FFF74CFC16B010BD36
:100AB000636F6D2E6E66632E737439356866646578
:100AC0006D6F00008D0400208E040020ED080008EA
:100AD00010B52E48007830B901202C4908702CA19F
:100AE000022004F049F930480078082838D2DFE8BD
:100AF00000F0372D19230F0437310FF025FC18B9FA
:100B00002A4800792949087600202749087027E0FB
:100B10000FF01AFC10B9052024494875002022491D
:100B200008701DE00FF010FC10B908201F4948752F
:100B300000201D49087013E00FF006FC10B90720D3
:100B40001A49487500201849087009E00020164924
:100B5000087005E000F0BEF900201349087000BFDE
:100B600000BF13480078012804D110F073FD002065
:100B70000F4908700F480078012805D10B49887586
:100B8000C87500200B49087010BD0000300000201F
:100B9000436F6D6D756E692E2045737461626C696B
:100BA0007368656400000000550000200C7200208E
:100BB00028000020440000200B4A02EB8001D1F8FD
:100BC000001C01F4804171B102EB8001D1F8001CDE
:100BD00048F68F7211404CF280021143024B03EB36
:100BE0008002C2F8001C7047005000400B4A02EB24
:100BF0008001D1F8001C01F0400171B102EB8001CD
:100C0000D1F8001C48F68F72114048F2C00211431F
:100C1000024B03EB8002C2F8001C704700500040FA
:100C2000084A02EB8001D1F8001C48F68F6211409F
:100C300048F280021143034B03EB8002C2F8001C10
:100C400070470000005000407047000003480068F3
:100C5000807A10B10520024908607047E404002042
:100C6000000600207047000070B505460C4600F0F5
:100C70001FF9284608F01EF903E008F0ADF904B1A9
:100C8000A047034800780028F7D008F027F870BD87
:100C90009204002010B5002400F03AF800F0B4F8F7
:100CA0000B4800F027F80BA00EF0F6F800BF05E0A7
:100CB0000748015D0BA00EF0EFF8641C142CF7D36D
:100CC0000AA00EF0E9F80248407B0949087010BDFF
:100CD00068FB00205354393548462049443A0D0AF0
:100CE0000000000030782530325820000D0A000046
:100CF0008F04002038B5044604A000680090214607
:100D000068460EF0F1FD002038BD00000100000033
:100D100010B50EF0A3FC0EF053FC0EF0BBFC10BDA2
:100D20002DE9F04105460C460026002700F0C0F8EA
:100D30000221002010F01AFBC6B206B904E0012E11
:100D400000D119E036E000BF05F0010098B114B100
:100D500020460CF0B5FA07E0082000F0F7F8082864
:100D600002D10120BDE8F0811548007818B9154876
:100D700000780028F0D000BF05F01000102819D12D
:100D8000042008F097F814B120460CF099FA0AE014
:100D900008F022F90746052F05D10B4800780128F5
:100DA00001D11020DEE70648007818B90548007820
:100DB0000028EDD0024800780028C4D00020D1E7F8
:100DC0009204002091040020FF03002010B5044687
:100DD0000AF024F80BE009F0F3FE18B100F07AF8FD
:100DE000F32010BD1CB10648007800B1A0470548AB
:100DF00000780028EFD007F089FB0020F1E7000021
:100E00004F0400209204002038B5002413A000688D
:100E100000900EF045FD0EF01BFC012801D10EF0F4
:100E2000C1FC00BF0E4968460EF05EFD0C4800781C
:100E3000552801D1002038BD0EF00AFC012801D14F
:100E40000EF0B0FC06480078552804D02046611CFE
:100E50008CB20528E6DB6FF00D00ECE755000000D2
:100E600068FB002070B5044609F0E8FF14E008F0C4
:100E7000B3F80546042D09DA0B48007830B100F0CC
:100E800029F8002008490870F32070BD24B10648F5
:100E90000078012800D1A047044800780028E6D057
:100EA00007F01CFF0020F0E74F0400209204002010
:100EB0000020044908700449087004490870044976
:100EC0000870704792040020910400208D040020D7
:100ED0008E04002001200149087070479204002010
:100EE0002DE9F04105460C4616460027FFF7E0FFC6
:100EF000284607F0DFFF14B120460CF0E1F900208E
:100F00000F4908700DE008F067F80D480078A84216
:100F100007D134B12FB90CF0FFF930460CF0D0F9FD
:100F200001270848007818B9074800780028EAD057
:100F300007F0D4FE17B1FF20BDE8F0810020FBE7E9
:100F400093040020920400209104002010B5044670
:100F5000FFF7AEFF04F0010078B107F0D7FA0520E3
:100F60000EF0EAFA02F0B4F802F0DCF828B93148E1
:100F70000CF0CEFA08B9012010BD04F0020010B93F
:100F800004F0080028B307F0C1FA05200EF0D4FAE7
:100F900002F09EF802F0C6F8D8B901F0F9FEC0B927
:100FA0002548807B00F0600048B904F0020030B1B1
:100FB00004F0B6FA08B10220DEE7FF20DCE71E48A5
:100FC000807B00F0200020B104F0080008B1082068
:100FD000D2E704F0040058B107F098FA05200EF0AB
:100FE000ABFA00F0B5FC00F0BDFC08B90420C3E783
:100FF00004F0100060B107F089FA05200EF09CFAA9
:1010000002F0C6FA20B902F0FFF908B91020B3E7E0
:1010100004F0200050B107F079FA05200EF08CFAA8
:10102000044802F0D3FC08B92020A5E707F06EFAC7
:101030000020A1E7570A0120AD0301202DE9F04768
:101040002848006800F110052E8826480068077AB5
:10105000D6B9042F18D12448007801280FD10021D7
:101060002248006880B2801C214A42F810103020CB
:101070002049088000BF00201B49087003E00727B3
:1010800010201C49088027E0AC88A64201D8042023
:1010900000E002200746B44200D93446A0B2A96855
:1010A00088478046002000F02FFF8146A2B24946C3
:1010B00040460DF089FDA1B200200BF00DFC288800
:1010C000001B2880688820446880302009490880F7
:1010D00000020949088000BF024909680F72BDE893
:1010E000F0870000E4040020DC040020505C004095
:1010F00000600040F6040020F40400202DE9F041D7
:101100002848006800F110042688A068C0B1BEB16C
:10111000A588B54200D93546A8B2A16888470746D8
:101120002088401B2080608828446080002000F0D8
:10113000C9FE8046AAB24146384609F0F3F900BF1D
:10114000208850B14FF440501749088000210846CC
:101150000BF0C2FB3020154908802088A188884206
:1011600004DB03200F490968087218E02088002872
:1011700004DD05200B490968087210E0208870B969
:10118000062008490968087200210948006880B2F1
:10119000801C084A42F81010302004490880BDE83D
:1011A000F0810000E4040020F4040020F604002094
:1011B000505C0040006000402DE9F84F9B480068FB
:1011C00045780027BA46062D1BD19848006800785C
:1011D00000F07F00002813D194490968887801281D
:1011E00003D193490968CF690AE0022803D19049E5
:1011F00009680F6A04E0032802D18D4909684F6A23
:1012000094E0002D64D189480068408800285FD1AF
:1012100086480068C08802285AD18448006800794E
:10122000002855D181480068007800F07F0028B977
:101230007E480068808808B97E4F77E07B48006868
:10124000007800F07F00012810D1784909684879BA
:10125000774909688A6900219047002866D1734858
:101260000068807A002861D0724F5FE06F480068A4
:10127000007800F07F00022858D16C48006840795F
:1012800000F00F0669480068407900F0700967486F
:101290000068407900F0800038B1674901EB8600B2
:1012A000D0F8000C00F0300806E0634901EB86003E
:1012B000D0F8000C00F4405860480078B04235D9AE
:1012C000B9F1000F32D1B8F1000F2FD0594F2DE0F6
:1012D000082D07D155480068007800F07F0028BB32
:1012E000574F23E00A2D21D150480068007800F0C4
:1012F0007F0001281AD14D480068807AB0B14B4870
:101300000068408890B949480068007970B947483A
:101310000068C088012809D14449096848794449CE
:1013200009688A690021904700B9464F57B13F4884
:101330000068A0F812A03D48006887610020B84707
:1013400000240FE0394A12685078394A126811694E
:1013500088470446032C05D10920344909680872DE
:10136000BDE8F88F31480068008A4FF6FF71884267
:1013700004D109202D4909680872F1E7022C03D035
:101380002A480068008A20B908202849096808729C
:10139000E6E726480068007800F08000E0B32348C4
:1013A0000068C088009021480068008A009988423F
:1013B00004D91E4900980968088223E01B48006888
:1013C000008A1A490968C98888421BDA17480068E8
:1013D000008A1749096891F82C10884203DA002026
:1013E000194908700EE011480068008A1049096820
:1013F00091F82C1090FBF1F201FB120010B90120C2
:10140000114908700A48006890F82C1007480068D5
:101410008182FFF713FE07E0FFE703200349096815
:10142000087200030949088000BF99E7E40400201E
:10143000E804002015D0000800500040700500208E
:1014400099CF0008E9CF0008DC040020F404002054
:101450007047000010B5002400BF10E0094B53F89E
:101460002420094B03EB84035B88DB1C99B2064BF9
:1014700033F824309B1C98B203F04CFE641C052CFE
:10148000ECD310BD5C0000207000002070B500247B
:10149000002503F03BFF1F2003F03CFD4FF6FF70DB
:1014A00003F026FE4FF6FF7003F01AFC2B4A126879
:1014B0002046116803F060FC641C4FF6FF7003F0D7
:1014C00029FD1F2003F014FE0AE02448006840684C
:1014D00000EB0516A0B2316803F04EFC6D1C641CD5
:1014E0001E480068007A401EA842EED81B480068DB
:1014F000406800EB05160920316803F03DFC4FF40D
:10150000FC6003F007FD4FF6FF7003F0F1FD134898
:10151000006840681249097800EB01101149086021
:101520000E480068007A401E0D490978884208D0AC
:101530000C48006801680A480078401C03F01CFC55
:1015400005E0084800680168092003F015FC012047
:1015500003F00CFB00200449087070BD94000020CB
:10156000850000208C0000205600002010B5364871
:10157000007800B910BD4FF6FF7003F0CBFC1F20C0
:1015800003F0B6FD3148006840683149097800EB46
:101590000110304908602D480068007A401E2C492F
:1015A0000978884208D02B480068016828480078EC
:1015B000401C03F0E1FB05E02648006801680920B3
:1015C00003F0DAFB21480068007A401E20490978C0
:1015D000884203DC00201E49087004E01C480078A3
:1015E000401C1B4908704FF4FC6003F093FC4FF65D
:1015F000FF7003F07DFD15480068406814490978C4
:1016000000EB01101349086010480068007A401E82
:101610000F490978884208D00E48006801680C48D4
:101620000078401C03F0A8FB05E00A480068016848
:10163000092003F0A1FB064800780749074A127801
:10164000885400BF96E7000084000020940000202A
:10165000850000208C0000208700002086000020EC
:1016600070477047704710B500F09CFD10BD10B575
:1016700000F09AFD10BD000010B54FF4006000F0BE
:10168000CDF890B14FF4006000F0C2F80748006850
:1016900020F40060054908600548007810B1012079
:1016A0000449087001200449087010BD000401407D
:1016B000490000204A0000204800002010B50F48D3
:1016C000007850B90E48007880F001000C4908708D
:1016D00003F00EFC01200B49087007200A4908702E
:1016E000102000F095F80948007808B9FFF7F2FBE0
:1016F0000748007808B1FFF7EDFB10BD4C00002053
:101700004B00002058000020550000204D00002014
:101710004E00002010B5202000F080F840B12020BD
:1017200000F076F80120344908700320334908702E
:10173000402000F073F850B101203149086040208A
:1017400000F066F801202C4908702C4908708020B0
:1017500000F064F8D0B12B48007838B92A480078F6
:1017600010B10DF0B7F901E0FFF700FF802000F0A5
:101770004FF80120204908702348007818B1042050
:101780001E49087002E005201C4908704FF4807063
:1017900000F044F848B14FF4807000F039F80120AF
:1017A000154908700220154908704FF4007000F0C8
:1017B00035F8D8B11348007838B91348007810B11B
:1017C000FFF7D4FE01E00DF085F94FF4007000F052
:1017D0001FF80120084908700B48007818B105204F
:1017E0000649087002E004200449087007480078A0
:1017F00008B9FFF76FFB10BD540000205500002012
:101800000C000020560000204B0000204D0000205E
:10181000014908607047000014040140064A01466F
:1018200000201268044B0A4014331B680B4202D09C
:10183000002A00D0012070470004014030B51A4949
:101840008379026853B30B6893430B600A1D1368D6
:101850000468A343136002790A44136804682343AD
:101860001360114A083213680468A3431360131D00
:101870001C680568AC431C604479102C05D02144D9
:101880000A68006802430A6030BD11680468214399
:101890001160196800680143196030BD007908447F
:1018A00001689143016030BD0004014000210160E6
:1018B00001710C2242718171704700007FB50446AE
:1018C0001FA0006803901FA0006802901EA000687F
:1018D0000190234603AA0421052006F029FF0546AE
:1018E0000DB1012000E0002000B125E003201749E0
:1018F000087002AB012268210420009407F082F8EE
:1019000005460DB1012000E0002000B114E001AB5C
:1019100001220A210420009407F074F805460DB155
:10192000012000E0002000B106E044F6B0700DF0A8
:1019300021FE002004B070BD6FF03E00FAE7000009
:101940005113010D0151000002A10000E00300202D
:1019500000B5ADF5057D01A8FFF7B0FF0DF5057DDC
:1019600000BD000000B5ADF5057D4FF4047101A880
:10197000FEF742FC01A800F025F820B16FF03E0010
:101980000DF5057D00BD01200B4981F828002022BE
:101990000DF106010848FEF708FC0748411C0A68DB
:1019A0000262496841620220044908700320044928
:1019B00008700020E4E70000A10601208D0400204B
:1019C0008E04002010B504462146074806F080FD2D
:1019D00010B16FF03E0010BDA078012802D06FF06A
:1019E0003E00F8E70020F6E73D62050803490028BD
:1019F00001DAC8647047C8607047000000200240E8
:101A0000F0B505461848194C4FF43026854241F68A
:101A1000FD77304613D200F0FFF804280ED120697C
:101A200040F0020020616561206940F040002061C3
:101A3000304600F0F1F8216939402161F0BD00F035
:101A4000FDF80428FAD1206D40F00200206565659C
:101A5000206D40F040002065304600F0EFF8216D29
:101A600039402165F0BD0000FFFF0708002002405B
:101A700008490420CA68D20701D001207047CA680B
:101A8000520701D502207047C968C906FBD503205B
:101A9000704700000020024008490420CA6CD207A9
:101AA00001D001207047CA6C520701D5022070474F
:101AB000C96CC906FBD50320704700000020024016
:101AC0000448016941F080010161016D41F080012C
:101AD000016570470020024001B500200099C1F364
:101AE0000A021AB1012202EBD12000E0C80A08BDA7
:101AF0002DE9F847044600203E4A41F6FE75009065
:101B0000A61C0F0CA81CDFF8F0901FFA81F8944275
:101B10001ED2824600F080F8042817D1D9F81010A0
:101B200041F00101C9F81010A4F800805446504655
:101B300000F096F8042804D100963780204600F083
:101B40008FF8D9F810202A40C9F81020BDE8F8878E
:101B500028498246491C8C4233D100F05DF80428A4
:101B6000484608D0016929400161504600F066F8F6
:101B7000042810D01FE0006940F00101C9F81010DE
:101B8000A4F80080504600F047F8D9F8100028402B
:101B9000C9F81000E9E7D9F850004C4640F00100C0
:101BA000C9F8500000963780504600F047F8216D84
:101BB00029402165CAE7D9F850202A40C9F85020A9
:101BC000C4E700F03BF80428C0D1D9F8501041F028
:101BD0000101C9F85010A4F800805446504600F0A6
:101BE0002DF80428E7D100963780204600F026F82B
:101BF000E1E70000FDFF0708002002400448034918
:101C00004160044A42604164426470472301674571
:101C100000200240AB89EFCD00B50346FFF728FF57
:101C200003E000BFFFF724FF5B1E012803D0002B59
:101C300000D1052000BD002BF4D1FAE700B5034622
:101C4000FFF72AFF03E000BFFFF726FF5B1E012816
:101C500003D0002B00D1052000BD002BF4D1FAE702
:101C600000B50346FFF704FF03E000BFFFF700FFE6
:101C70005B1E012803D0002B00D1052000BD002BE6
:101C8000F4D1FAE7014609B910207047012901D1C2
:101C90001820FAE7022901D12020F6E7032901D113
:101CA0002820F2E7042901D13020EEE7052901D1EF
:101CB0004020EAE7062901D16020E6E7072901D1A3
:101CC0008020E2E74FF48070DFE7000010B50446A3
:101CD00021460948FEF7AFFA08A10B48FEF7ABFA18
:101CE0000AA109484030FEF7A6FA0AA10648A43026
:101CF000FEF7A1FA10BD00003C81002074657374EA
:101D00004073742E636F6D00C87800205375626A4B
:101D1000656374006D6573670000000010B50446CC
:101D200021460748FEF787FA06A105482838FEF73E
:101D300082FA07A102481438FEF77DFA10BD0000B0
:101D4000F482002034382E31333239373400000029
:101D50002D312E36333539313200000010B50446AE
:101D600021460648FEF767FA05A10848FEF763FA20
:101D7000074906481030FEF75EFA10BD387700209C
:101D80003031323334353637383900009875002019
:101D9000247B050810B5044621460648FEF74BFA99
:101DA00005A10748FEF747FA06A105485030FEF79F
:101DB00042FA10BD08740020687474703A2F2F0026
:101DC0002872002073742E636F6D2F6E66632D7200
:101DD0006669640010B58A0721F003040649130FF1
:101DE00021440F228C689A4094438C608A68984002
:101DF00002438A6010BD000000000140F0B5CA78BF
:101E0000002502F00F03D20601D58A7813430A7821
:101E10004FF00F0E12F0FF0F4FF001021CD00468BC
:101E20000F8802FA05F63740B74211D14FEA850C08
:101E30000EFA0CF724EA070703FA0CF43C43CF78B8
:101E4000282F02D0482F02D002E0466100E0066150
:101E50006D1C082DE4D304600C88FF2C1ED9446847
:101E60005FF0000606F1080702FA07F50F882F4019
:101E7000AF420FD14FEA860C0EFA0CF7BC4303FABF
:101E80000CF73C43CF78282F00D14561CF78482FFD
:101E900000D10561761C082EE4D34460F0BD806853
:101EA00080B270470246002092680A4200D00120AA
:101EB000704741617047016170470AB10161704725
:101EC0004161704701460548006880B200EBC100DF
:101ED000001D034A32F8100080B27047505C004089
:101EE0000060004001460648006880B200EBC10077
:101EF000801D044A32F81000C0F30900704700004A
:101F0000505C00400060004001460548006880B217
:101F100000EBC100034A32F8100080B270470000A5
:101F2000505C00400060004010B5BCB00446522137
:101F300027A8FEF761F99C2205496846FEF735F9A6
:101F4000214668460DF0D0FC00203CB010BD0000DA
:101F50003876050838B505460C46F8202070002074
:101F60006070684600F0CAF958B9802020700220DD
:101F700060709DF800000838A0709DF800000830DF
:101F8000E070002038BD000070B5ADF5047D054659
:101F90000C4600260CE0F01C285C3F493F4A1288A2
:101FA0008854701CC6B23D480088401C3B490880DC
:101FB0006878B042EFDCA87800F01000002863D108
:101FC00036490880694634480DF08EFC9DF80100C2
:101FD0003C2805DA9DF8000000F0E000802845DD8F
:101FE0003C202F490880A720207020782A490870BB
:101FF0002B4800786070607848701020A070A0783E
:102000008870274802886946E01CFEF7CEF89DF8E4
:10201000000000F0E000802808D19DF80100821C3B
:1020200069461D48C01CFEF7C0F830E09DF800006E
:1020300000F0E000A02809D19DF8010000F58172B0
:1020400069461548C01CFEF7B0F820E09DF8000076
:1020500000F0E000C0281AD19DF8010000F2022231
:1020600069460D48C01CFEF7A0F810E0A7202070BC
:102070009DF80100801C60700020A07062786946A5
:10208000E01CFEF792F802E0A620207066700020A7
:102090000DF5047D70BD000068FB002030050020B8
:1020A0002C05002010B5014600220023A72008704F
:1020B0003148C07800F0E000802807D12E48007930
:1020C000801C2E4C2488001B83B21CE02A48C07858
:1020D00000F0E000A02808D12748007900F58170C1
:1020E000264C2488001B83B20DE02348C07800F002
:1020F000E000C02807D12048007900F202201F4CE0
:102100002488001B83B21C488078401C1A4CA070A5
:102110002046807888703C2B12DD0DE0174800883F
:10212000C01C154C245CD01C0C54501CC2B213486B
:102130000088401C114C20803C2AEFDB4A7018E0DC
:102140000DE00E480088C01C0B4C245CD01C0C54C5
:10215000501CC2B209480088401C084C20809A429A
:10216000EFDB4A70887800F00F0088700020034C85
:102170002080002010BD000068FB00202C050020FE
:1021800010B5BCB00446F02205496846FEF70DF8CC
:10219000214668460DF0A8FB00203CB010BD0000B1
:1021A000D47605087047000000B5ADF5157D3248BE
:1021B0000078012841D1FEF78DFE3048007810B933
:1021C00001202E4908704FF4405103200AF03AFBD9
:1021D00085A903200CF050FC9DF81402012802D0C0
:1021E000022812D10AE09DF815020A2805D00DF147
:1021F00005010DF215200DF077FB06E00DF105014C
:102200000DF2152000F051FA00BF00BF07208DF835
:1022100004009DF806003D2801DD3D2001E09DF809
:1022200006008DF80600302103200AF063FB4022EF
:1022300001A983200CF037FC1AE04FF44051032031
:102240000AF000FB85A903200CF016FC07208DF88E
:102250000400FE208DF8050001208DF806003021D5
:1022600003200AF047FB402201A983200CF01BFC4D
:102270000DF5157D00BD0000100000202F05002089
:102280007CB5044606A103C9CDE90001072500205D
:10229000207065702A466946A01CFDF786FF7CBD4C
:1022A0004D4231313435780010B50548FFF7F7FD60
:1022B00000F0080008B1012010BD0020FCE700007C
:1022C000000C014010B50446802020700120607091
:1022D0000DF0B4F9A07010BD08B507A10968009110
:1022E0000021017003214170BDF8001041809DF86C
:1022F0000210017108BD0000030703007FB504460A
:10230000002539A30FCB8DE80F00FC2020700DF0C5
:102310009FF9012801D10DF045FA374806F0E8F899
:1023200035480078552803D06FF0070004B070BD21
:1023300069460E2006F0F4F82F480DF0B7F92E4844
:1023400000F0A9F8012802D06FF00700EEE720782E
:102350008DF80B0069460E2006F0E2F826480DF0D5
:10236000A5F9254800F0A4F8012802D06FF0070075
:10237000DCE7002524E0204800F09AF8012805D188
:10238000217880202841081A20700DE01A4800F0BA
:1023900082F8012805D12178802028410844207046
:1023A00002E06FF00700C1E720788DF80B00694666
:1023B0000E2006F0B5F810480DF078F9681CC5B28B
:1023C000052DD8DD0C4800F073F8012803D12078E2
:1023D000001F207006E0084800F05DF8012801D1D8
:1023E000207820700020A1E703A100F80118002048
:1023F000606000003F01000068FB00207FB50546DB
:102400000C4616A30FCB8DE80F00F520207000209E
:1024100060700DF01DF9012801D10DF0C3F91348CA
:1024200006F066F811480078552803D06FF00A00CE
:1024300004B070BD0A208DF80000A8788DF80A005D
:10244000E8788DF80B0069460E2006F069F8042044
:10245000074948700020207000BFE9E70A21007991
:102460000118002060606C743F01000068FB0020D0
:10247000CD03002070B505460C4680202070012059
:102480006070FFF711FF10B10120A07001E0002083
:10249000A070002070BD0146087838B9487801283E
:1024A00004D18878022801D1012070470020FCE780
:1024B0000146087830B94878012803D18878012886
:1024C00000D170470020FCE730B59DB005460C46B2
:1024D00000201C90FE2020700020607069461CA81F
:1024E00000F0EEFE802020709DF8700000EB4001AF
:1024F00001EBC000401C60709DF87000A0709DF85A
:10250000700000EB400101EBC0026946E01CFDF7E2
:102510004CFE00201DB030BD10B5044602492046D7
:102520000AF050FD10BD0000F805002070B505460A
:102530000C460020607006F0BFF810B90020207033
:1025400001E04420207070BD2DE9F041AEB0054699
:102550000C46002700202D90FE2020700020607087
:10256000AE786B462DAA3946304601F071FD8046A3
:10257000B8F1000F01D0012000E0002000B11EE002
:10258000802020709DF8B40000EBC000401C6070FB
:102590009DF8B400A0709DF8B40000280BDD9DF8F4
:1025A000B400142807DA9DF8B40000EBC0026946B5
:1025B000E01CFDF7FAFD00202EB0BDE8F0816FF0C1
:1025C0000100F9E72DE9F041AEB005460C460027C1
:1025D00000202D90FE20207000206070AE786B46A9
:1025E0002DAA3946304601F033FE8046B8F1000F7F
:1025F00001D0012000E0002000B11CE0802020700C
:102600009DF8B400C000401C60709DF8B400A0703C
:102610009DF8B40000280ADD9DF8B400102806DA01
:102620009DF8B400C2006946E01CFDF7BEFD002025
:102630002EB0BDE8F0816FF00100F9E730B5B9B018
:1026400005460C4600203890FE2020700020607067
:1026500001A938A800F0C4FD802020709DF8E0009A
:1026600005280ADD382060709DF8E000A070372250
:1026700001A9E01CFDF799FD14E09DF8E00000EBD6
:10268000400101EBC000401C60709DF8E000A070AC
:102690009DF8E00000EB400101EBC00201A9E01C45
:1026A000FDF783FD002039B030BD70B505460C46FE
:1026B00080202070002060702878B82832D00FDC8D
:1026C000A0F1A00013287CD2DFE800F046415F5A59
:1026D00064696D73777B7B7B7B7B7B7B7B7B34004F
:1026E000BE2819D008DCB92819D0BA282BD0BC28AC
:1026F0001CD0BD2865D108E0C3281FD0C4283AD01B
:10270000D0282ED0D1285CD130E00CF0A1FF0128D8
:1027100001D10DF047F857E00DF0C2F854E00AF08F
:102720000FF851E020460CF0C1FF4DE02046FFF7C6
:10273000D3FD49E02046FFF7A3FD45E021462846AA
:10274000FFF7F4FE40E02046FFF7BCFD3CE02146E9
:102750002846FFF737FF37E021462846FFF7F4FE0B
:1027600032E021462846FFF769FF2DE02146284642
:10277000FFF7AAFE28E02146284600F027F823E0CC
:1027800021462846FFF73AFE1EE021462846FFF77D
:1027900071FE19E021462846FFF7DCFB14E02046D5
:1027A000FFF7EEFC10E021462846FFF7EDFB0BE0BB
:1027B00007E02046FFF776FC06E02046FFF7B4FB73
:1027C00002E0F720207000BF00BF70BD024600206D
:1027D000024B187008704870704700002F050020E9
:1027E00000BFFEE730B50346002400BF1BE01D78A4
:1027F00028090A2803DA00F13005157002E000F11B
:1028000037051570521C1D7805F00F000A2803DAF1
:1028100000F13005157002E000F137051570521C0B
:102820005B1C651CECB28C42E1DB30BD10B500F0E6
:1028300001F810BD08B514208DF8030003208DF8B1
:1028400002004FF48060ADF8000069460F48FFF7C2
:10285000D5FA012291020D48FFF72FFB48208DF891
:10286000030003208DF802004FF40060ADF8000073
:102870000121084609F038FB0B210120FFF7AAFAD5
:1028800069460248FFF7BAFA08BD0000000C014093
:102890002DE9F04F87B004468B46A9A103C9CDE9C5
:1028A00005010027B846B9460026002500200490FF
:1028B0008246039002908DF814B0224605A90320A9
:1028C00005F09EFF0190019808B1012000E0002072
:1028D00000B133E16778B846781E205C00F08009CB
:1028E000E65D781C255C082D03D1612007B0BDE8AA
:1028F000F08F1DE14FF00009202000EB0611681C4D
:102900000844C0B28DF815008EB9A078691CFF226A
:102910008A4090438DF81600681CC0B240F0400019
:102920008DF817009DF816008DF8080067E0012E5D
:1029300018D1A0788DF81600E078691CFF228A4033
:1029400090438DF81700681CC0B240F040008DF82D
:1029500018009DF816008DF808009DF817008DF8F6
:1029600009004CE0022E1FD1A0788DF81600E07807
:102970008DF817002079691CFF228A4090438DF85A
:102980001800681CC0B240F040008DF819009DF896
:1029900016008DF808009DF817008DF809009DF8C5
:1029A00018008DF80A002AE0032E26D1A0788DF8B1
:1029B0001600E0788DF8170020798DF818006079FE
:1029C000691CFF228A4090438DF81900681CC0B230
:1029D00040F040008DF81A009DF816008DF80800B0
:1029E0009DF817008DF809009DF818008DF80A0071
:1029F0009DF819008DF80B0001E0612076E7311D8C
:102A0000C8B2224605A905F0FBFE2078802801D037
:102A100061206BE76778781E205C00F08009B9F1CF
:102A2000800F04D114F807A0781C205C0390781E56
:102A3000205C00F00F00C0F10800C0B20490691CD7
:102A40000498884245D196B99DF81600FF228A4025
:102A50009043A17808438DF80800E0788DF80900CC
:102A600020798DF80A0060798DF80B0033E0012E93
:102A700010D19DF81700691CFF228A409043A1786D
:102A800008438DF80900E0788DF80A0020798DF868
:102A90000B0020E0022E0DD19DF81800691CFF22CA
:102AA0008A409043A17808438DF80A00E0788DF8B9
:102AB0000B0010E0032E0AD19DF81900691CFF22BB
:102AC0008A409043A17808438DF80B0003E0612011
:102AD0000CE761200AE78020207084F801809DF8CF
:102AE0000800A0709DF80900E0709DF80A002071B0
:102AF0009DF80B0060719DF808009DF80910484092
:102B00009DF80A1048409DF80B104840A071B9F19B
:102B1000800F0DD1564504D006EB0A00C6B2039DC6
:102B200006E006EB0A00C6B20398401C2844C5B272
:102B3000B9F1800F3FF4DEAE0020D7E66120D5E684
:102B400000200800000000002DE9F0410646304D4D
:102B5000002493213046FFF79BFE8046B8F1000F1A
:102B600001D0012000E0002000B14EE02948C078EB
:102B7000042804D12748D6F80210416005E0254812
:102B8000B6F80310818071798171B779932220465C
:102B9000611CCCB22A5470222046611CCCB22A544B
:102BA0001C48C078042806D128191A4949680160D0
:102BB000201DC4B20CE088222046611CCCB22A54ED
:102BC000281914498A88028089798170E01CC4B26E
:102BD0002046611CCCB22F5428222046611CCCB266
:102BE0002A5432462946204605F00AFE8046B8F1AE
:102BF000000F01D0012000E0002000B105E0B07816
:102C0000044988730020BDE8F0816120FBE70000E3
:102C10006AFB0020AD0301202DE9F0410646324D4C
:102C2000002495213046FFF733FE8046B8F1000FAF
:102C300001D0012000E0002000B152E02B48C07814
:102C4000072805D12948D6F80210C0F8071006E079
:102C50002648B6F80310A0F8071071794172B779C9
:102C600095222046611CCCB22A5470222046611C59
:102C7000CCB22A541D48C078072807D129191B480F
:102C8000D0F807000860201DC4B20DE0882220465D
:102C9000611CCCB22A5429191448B0F807200A80C4
:102CA000407A8870E01CC4B22046611CCCB22F541C
:102CB00028222046611CCCB22A543246294620469E
:102CC00005F09EFD8046B8F1000F01D0012000E024
:102CD000002000B105E0B078044988730020BDE809
:102CE000F0816120FBE700006AFB0020AD030120BA
:102CF0002DE9F0410646244D002497213046FFF788
:102D0000C7FD8046B8F1000F01D0012000E000208F
:102D100000B137E01D48D6F80210C0F80710B779A7
:102D200097222046611CCCB22A5470222046611C96
:102D3000CCB22A541548C0780A2806D1291913485C
:102D4000D0F807000860201DC4B22046611CCCB238
:102D50002F5428222046611CCCB22A5432462946E0
:102D6000204605F04DFD8046B8F1000F01D001204E
:102D700000E0002000B105E0B0780449887300202D
:102D8000BDE8F0816120FBE76AFB0020AD03012074
:102D900070B52C4D2846FFF7D7FE04460CB1012034
:102DA00000E0002000B14BE02748807B00F00400E9
:102DB00048B12846FFF730FF04460CB1012000E07F
:102DC000002000B13CE02048807B00F0040048B1C6
:102DD0002846FFF78DFF04460CB1012000E00020DB
:102DE00000B12DE01848807B00F0200070B100F0A9
:102DF00007F901201449C873284600F077FA044601
:102E00000CB1012000E0002000B119E0012000F029
:102E100041F802200D4908700B48807B00F06000EB
:102E200018B902200A49087008E00748807B00F0C2
:102E30002000202802D1042005490870002070BD20
:102E40006120FCE768FB0020AD0301208D04002019
:102E50008E0400200E490978890921B1012908D082
:102E6000022912D10BE00421094AD170012191708D
:102E70000BE00721064AD1700221917005E00A217A
:102E8000034AD1700321917000BF00BF704700005A
:102E9000AD030120F0B585B0054629A103C9CDE9F0
:102EA000030129A00068029028A000680190002773
:102EB000274E28480078342801DB062700E0042745
:102EC00025480088042802DA042023490880224883
:102ED00000788DF80D008DF80E5000208DF80F0051
:102EE000791CC8B2334603AA022105F021FC04462E
:102EF0000CB1012000E0002000B11FE002AB002275
:102F00003A210420009605F07DFD04460CB1012015
:102F100000E0002000B111E00D4801AB0122682162
:102F20000090042005F06EFD04460CB1012000E085
:102F3000002000B102E0002005B0F0BD6120FBE7F9
:102F400000000000030300006004000001D0000046
:102F500068FB00208F040020DE03002070B586B0DF
:102F600021A103C9CDE9040121A00068039021A09B
:102F7000006802900026204D20480078342801DBAC
:102F8000062600E00426711CC8B22B4604AA0221C2
:102F900005F0CEFB04460CB1012000E0002000B19A
:102FA0001FE003AB00223A210420009505F02AFD22
:102FB00004460CB1012000E0002000B111E00E48F1
:102FC00002AB012268210090042005F01BFD04469D
:102FD0000CB1012000E0002000B102E0002006B0AA
:102FE00070BD6120FBE7000000000000020200004D
:102FF0006004000001D0000068FB00208F04002066
:1030000070B586B025A103C9CDE9040125A00068EB
:10301000039025A0006802900026244D24480078E3
:10302000342801DB062600E0042604208DF8110078
:1030300000208DF812000C208DF81300711CC8B20E
:103040002B4604AA022105F073FB04460CB10120B3
:1030500000E0002000B11FE003AB00223A21042071
:10306000009505F0CFFC04460CB1012000E00020E3
:1030700000B111E00D4802AB01226821009004204C
:1030800005F0C0FC04460CB1012000E0002000B1B6
:1030900002E0002006B070BD6120FBE700000000E8
:1030A000030300006004000001D0000068FB002062
:1030B0008F04002038B5044604A000680090224622
:1030C0006946032005F09CFB002038BD5000280015
:1030D00010B500F017F8FFF741FF04460CB10120CE
:1030E00000E0002000B108E001200549087041F22D
:1030F000EC300CF03FFA002010BD6120FCE700002E
:10310000E003002006480021018041608160818148
:10311000002003498870C870C873087470470000A5
:10312000AD03012070B50E4C204600F02BF905468A
:103130000DB1012000E0002000B10FE02146042085
:1031400005F03BFA05460DB1012000E0002000B17A
:1031500004E0012003490874002070BD6120FCE7F1
:1031600068FB0020AD03012070B51B4D2846FFF71A
:10317000EBFC04460CB1012000E0002000B129E086
:103180001648807B00F0040048B12846FFF744FD54
:1031900004460CB1012000E0002000B11AE00F4805
:1031A000807B00F0040048B12846FFF7A1FD0446EB
:1031B0000CB1012000E0002000B10BE02846FFF731
:1031C00079FF04460CB1012000E0002000B101E0CD
:1031D000002070BD6120FCE73A040120AD0301200E
:1031E0002DE9F04104460E464FF000080027002567
:1031F00000202F490870207005200CF09DF9FFF782
:1032000081FF2DE0FFF77EFFFFF78CFF20BB322010
:103210000CF0B0F9FFF7A8FF00BB2648C178207872
:1032200000EB400202EBC000234A115400250DE0E0
:103230002048001D415D681C227802EB420303EB2D
:10324000C20210441C4A1154681CC5B20A2DEFDB9F
:103250002078401C207001E04FF00108781CC7B2B4
:10326000B8F1000F01D10A2FCCDD2078052809DC48
:10327000207800EB400101EBC0020F493046FCF71B
:1032800094FF13E037220C493046FCF78EFF20787C
:10329000401F074908700846007800EB400101EB29
:1032A000C002054937310548FCF77FFFBDE8F081D2
:1032B000DA030020AD030120A50201206D030120E7
:1032C00070B504460D460748007800EB400101EB5D
:1032D000C00205492846FCF768FF024800782070C4
:1032E00070BD0000DA0300206D030120F8B504462C
:1032F00021A00068009022466946032005F080FA6C
:1033000005460DB1012000E0002000B132E0214669
:10331000042005F052F905460DB1012000E000201F
:1033200000B127E02146022005F012F905460DB153
:10333000012000E0002000B11CE0E07800F00F0662
:103340003046FEF79FFC0D490880E07800F0200031
:1033500020280DD1E07800F01000102804D1607909
:1033600000090749088003E0207900090449088022
:103370000020F8BD6120FCE7E0802800DC0300208D
:10338000DE03002038B504460BA0006800902246FA
:103390006946022005F034FA05460DB1012000E02F
:1033A000002000B106E0054861880180FFF752FD6A
:1033B000002038BD6120FCE726070000AD03012096
:1033C0007CB504460120019001AB00226821032056
:1033D000009405F017FB05460DB1012000E0002028
:1033E00000B10FE00123022268210320009405F0C0
:1033F000D7F905460DB1012000E0002000B101E041
:1034000000207CBD7120FCE738B5124D12A0006889
:103410000090284600F026F804460CB1012000E098
:10342000002000B114E02B466A460321042005F079
:103430007FF904460CB1012000E0002000B107E054
:10344000022006490870052005490870002038BD93
:103450007120FCE768FB002001043E008D04002081
:103460008E0400207FB50446124B0FCB8DE80F0071
:103470001148D0F80D00CDF8010022466946092018
:1034800005F0BEF905460DB1012000E0002000B1B5
:103490000DE02146032005F05BF805460DB1012043
:1034A00000E0002000B102E0002004B070BD7120F7
:1034B000FBE70000306205084B06012010B504460A
:1034C0000D22A11C0748FCF770FE064854F8031FA4
:1034D000C0F80D106168C0F81110A168E41EC0F8B2
:1034E000151010BD4B0601202DE9FC41194E1AA004
:1034F0000068019019A0006800900427184800781F
:10350000342801DA01AD00E06D4600F02DF83346B5
:103510002A460321042005F00BF904460CB10120D2
:1035200000E0002000B112E002200E49087000F017
:1035300087F804460CB1012000E0002000B106E04D
:1035400041F2EC300CF016F80020BDE8FC8171204F
:10355000FBE7000068FB00200102000001001A00E8
:103560008F040020E003002010B50D210748FCF770
:1035700043FE06480021C0F80D100020034948769C
:103580003C2102481A30FCF737FE10BD4B060120E3
:1035900070B50C4DFFF7A8FF04460CB1012000E008
:1035A000002000B10BE0284600F00EF804460CB1F4
:1035B000012000E0002000B101E0002070BD71207A
:1035C000FCE7000068FB002038B504460CA000684A
:1035D000009022466946032005F012F905460DB118
:1035E000012000E0002000B107E0012005494876F5
:1035F0002046FFF763FF002038BD7120FCE7000084
:10360000050000004B0601207CB50BA0006801906E
:103610000A4D01AB012268210420009505F0F2F962
:1036200004460CB1012000E0002000B101E00020C0
:103630007CBD7120FCE700000151000068FB002008
:1036400070B5104CFFF7E0FF05460DB1012000E01A
:10365000002000B113E02046FFF7B2FE05460DB191
:10366000012000E0002000B109E0A078012804D189
:10367000E078512801D1002070BD7120FCE7712055
:10368000FAE7000068FB002030B503460C464FF611
:10369000FF71002213E0985C414008250BE001F027
:1036A000010020B148F2084080EA610000E04810C3
:1036B0000146681E45B2002DF1DC501C42B2A24208
:1036C000E9DBC84300B230BD2DE9F043044607AD45
:1036D00095E8E0104FF0000801F00109204669F379
:1036E0005F0002F0010940EA890003F0010940EAA5
:1036F000C90005F0010940EA091006F0010940EA95
:10370000491007F0010940EA89100CF0010940EA6C
:10371000C9184FFA88F0BDE8F0832DE9FF478046CD
:10372000894615461E460C9F00242146641C0DF850
:10373000018033222146641C0DF80120404600F030
:10374000E4F801280AD10DEB0400D9F8001001605B
:10375000D9F80410416004F10800C4B24FF6FF70BC
:1037600000EA4515EAB22046611CCCB20DF80020F3
:103770002A0A2046611CCCB20DF80020F2B2204685
:10378000611CCCB20DF80020320A2046611CCCB27C
:103790000DF800204FF49B700BF0ECFE3A466946A2
:1037A000204605F02DF83946042004F006FF20B12C
:1037B0006FF00E0004B0BDE8F087B87810B16FF07C
:1037C0000E00F7E70020F5E72DE9FF4107468846A0
:1037D00015461E4600242146641C0DF80170302257
:1037E0002146641C0DF80120384600F08EF80128AF
:1037F0000AD10DEB0400D8F800100160D8F80410CD
:10380000416004F10800C4B2EAB22046611CCCB2A7
:103810000DF800202A0A2046611CCCB20DF80020C9
:103820004FF49B700BF0A6FE32466946204604F02A
:10383000E7FF3146042004F0C0FE20B16FF00E0017
:1038400004B0BDE8F0810020FAE72DE9F047ADF5BE
:10385000047D07468846154699468C9E00244FF005
:10386000040A2146641C0DF8017031222146641CB3
:103870000DF80120384600F048F801280AD10DEB78
:103880000400D8F800100160D8F80410416004F179
:103890000800C4B2EAB22046611CCCB20DF8002088
:1038A0002A0A2046611CCCB20DF800200DEB040062
:1038B00052464946FCF779FC04EB0A00C4B24FF4C7
:1038C0009B700BF057FE384600F027F828B93246B7
:1038D0006946204604F094FF0AE0324669462046D5
:1038E00004F08EFF14200BF027FE304600F010FD90
:1038F0003146042004F061FE28B16FF00E000DF592
:10390000047DBDE8F0870020F9E7014601F02000C2
:1039100008B1012070470020FCE7014601F040009B
:1039200008B1012070470020FCE7014601F00800C3
:1039300008B1012070470020FCE7014601F01000AB
:1039400008B1012070470020FCE72DE9FE4307463F
:103950008846154600242146641C0DF801702B2270
:103960002146641C0DF801203846FFF7CEFF0128E0
:103970000AD10DEB0400D8F800100160D8F804104B
:10398000416004F10800C4B24FF49B700BF0F2FDEB
:103990002A466946204604F033FF06460EB1012050
:1039A00000E0002000B10AE02946042004F005FEF2
:1039B00018B16FF00E00BDE8FE830020FBE7FF208A
:1039C0002870002068706FF00E00F4E7F0B589B041
:1039D000054600F045F804460CB1012000E0002047
:1039E00000B136E005200BF0A7FD00200122CDE953
:1039F00000020290034611460390FFF765FE06465B
:103A000005A80090F0B200231A46194600F062F8AB
:103A100004460CB1012000E0002000B119E09DF83F
:103A20001500401CC7B205A8C05D00F0020018B127
:103A30006FF00E0009B0F0BD1CB906982860079819
:103A400068600220044908700620044908700020BC
:103A5000F0E76FF00E00EDE78D0400208E040020EB
:103A60001FB50020039019A0006801900920039061
:103A700002AB03AA0121022004F05AFE04460CB155
:103A8000012000E0002000B11CE004201049087073
:103A900002A801AB012268210090042004F0B2FFCB
:103AA00004460CB1012000E0002000B10AE002A9A8
:103AB000022004F082FD18B16FF00E0004B010BDBA
:103AC0000020FBE76FF00E00F8E7000001D10000D6
:103AD000E00300202DE9FF4F85B014469946129E61
:103AE00000250020009082460027FF203070002033
:103AF0007070402C04DD6FF00C0009B0BDE8F08F51
:103B0000059800F035F98046B8F1000F01D001208A
:103B100000E0002000B175E029466A1CD5B201AA78
:103B20000598505401222846691CCDB201A90A54B7
:103B30000598FFF702FF012805D129466A1CD5B276
:103B400001AA069850542846691CCDB201A90C540C
:103B5000E4B3402C02D10820009007E02046E11792
:103B600004EB5171C910491CC9B200910098401E64
:103B7000A4EBC00000F0FF0ABAF1000F06D001204C
:103B800000FA0AF0401E4FFA80FB01E04FF0FF3BC5
:103B9000009801280EDD002708E019F807202846C4
:103BA000691CCDB201A90A54781C47B20098401E86
:103BB000B842F2DCBAF1000F08D019F8070000EAA9
:103BC0000B0029466A1CD5B201AA50544FF49B70D1
:103BD0000BF0D0FC324601A9284604F011FE8046C5
:103BE000B8F1000F01D0012000E0002000B109E091
:103BF0003146042004F0E1FC10B16FF00E007CE7C8
:103C000000207AE76FF00E0077E72DE9FF4F85B0CF
:103C100006468A46DDE912474FF00008C14626F005
:103C200020004FFA80FB0020207001A800900BF0CC
:103C3000FF005146DDE90723FFF74CFF054635B984
:103C400001A800F073F810B94FF001090AE04DB96E
:103C50009DF80500821C01A93846FCF7A6FA2078D9
:103C6000401C207023E005200BF02AFC01A800F086
:103C70004FFB05465DB901A800F058F838B901209E
:103C800000FA08F040EA09000FFA80F90FE075B970
:103C900023789DF80510891C03FB01709DF8051021
:103CA0008A1C01A9FCF781FA2078401C207040464C
:103CB000411C4FFA81F80F28D5DB484609B0BDE812
:103CC000F08F2DE9F84F04460D4616461F46DDF8E5
:103CD000288044F020004FFA80F909F0FF003B46AD
:103CE00032462946CDF80080FFF7F4FE8246504662
:103CF000BDE8F88F01460878802801D10020704780
:103D00000878882801D10020F9E708788E2801D1A9
:103D10000020F4E76FF00E00F1E7014601F020000B
:103D200008B1002070476FF00E00FBE701464878AD
:103D3000401C085C00F00302032A01D100207047F8
:103D40006FF00E00FBE770B505460C46002624B167
:103D500021462846FFF798FC0646F04380B24FF212
:103D6000B801884202D06FF00E0070BD0020FCE761
:103D7000014601F0040008B1002070476FF00E000A
:103D8000FBE72DE9F05F80460E4617461C460A9D6C
:103D90004FF0F1092046E11704EB9171C1F38F0A4E
:103DA0002846E91705EB9171C1F38F0B282E0DD131
:103DB0002046E11704EB9171C1F38F0A5B4652462E
:103DC0003946404600F004F9814606E05B4652461B
:103DD0003946404600F05FF881464846BDE8F09F0E
:103DE0002DE9FF4707468846154699460C9E002454
:103DF0002146641C0DF8017023222146641C0DF835
:103E000001203846FFF781FD01280AD10DEB04009F
:103E1000D8F800100160D8F80410416004F10800DF
:103E2000C4B24FF6FF7000EA45153846FFF77DFD36
:103E300030B9EAB22046611CCCB20DF800200BE08C
:103E4000EAB22046611CCCB20DF800202A0A2046B6
:103E5000611CCCB20DF800202046611CCCB20DF8DC
:103E600000904FF49B700BF085FB3246694620466C
:103E700004F0C6FC3146042004F09FFB20B16FF033
:103E80000E0004B0BDE8F087B07810B16FF00E00FE
:103E9000F7E70020F5E72DE9F04FA5B00546894684
:103EA00016461F464FF0020A4FF0000B4FF0000875
:103EB0003046F11706EBD1614911491C1FFA81FB0D
:103EC0003846F91707EBD161C1F34F18012D01D125
:103ED0004FF00A0A00242BE004EB0800082800DC5D
:103EE0000DB1012D0ED102A8009004EB080082B2A2
:103EF0001F2300215046FFF773FF80B1F12025B04A
:103F0000BDE8F08F02A8009004EB080082B21F23E6
:103F100000215046FFF701FC08B1F120EFE709EB63
:103F2000C41080220DF10B01FCF73FF9601C84B234
:103F30005C45D1DB0020E2E72DE9FF4107468846DA
:103F400015461E4600242146641C0DF801702022EF
:103F50002146641C0DF801203846FFF7D6FC0128E5
:103F60000AD10DEB0400D8F800100160D8F8041055
:103F7000416004F10800C4B23846FFF7D6FC30B9FE
:103F8000EAB22046611CCCB20DF800200BE0EAB288
:103F90002046611CCCB20DF800202A0A2046611C84
:103FA000CCB20DF800204FF49B700BF0E3FA3246D0
:103FB0006946204604F024FC3146042004F0FDFA52
:103FC00020B16FF00E0004B0BDE8F0810020FAE7E8
:103FD0002DE9FF470446884691461F464FF0020AE6
:103FE00000253E460CB9F6B20CE0012C02D14FF090
:103FF0000A0A07E0022C01D1B6B203E0F12004B0B6
:10400000BDE8F08700251FE0781986B2FF2E00DC9E
:104010000CB1012C08D16B46324600215046FFF707
:104020008BFF50B1F120EAE76B4632460021504643
:10403000FFF7CAFB08B1F120E1E708EB8500DDF8E6
:1040400003100160681C85B24D45DDDB0020D6E71A
:104050002DE9FF4FADF2344D8346154698460026B4
:10406000CDF828B0B14601240027002006902BF09F
:10407000040040F0200005900420049000200390EC
:1040800080210BA8FCF7B8F8002028706F480DF2CB
:104090002C4332460090DDF838140A98FFF711FEE1
:1040A0006A48FFF727FE20B100200DF2444DBDE81D
:1040B000F08F04A800906548417807AB09AA00F08A
:1040C00036F98246BAF1000F18D1012028705F48F6
:1040D0009DF810208118059800F057F99DF81C00F4
:1040E00088F8000059489DF8101008440168C8F885
:1040F00001104068C8F805000020D6E70A200BF040
:10410000DFF90020287000BF0020CDF82C04CDF886
:104110003004601EC4B20BA800EBC40050F8011FAD
:10412000CDF82C144068CDF83004484808A90DF2A9
:104130002C433246CDE90010DDF838140A98FFF719
:1041400064FD80B203904FF00009002737E004A817
:104150003E4A0090517802EB090007AB09AA00F033
:10416000E6F88246BAF1000F1FD19DF810004844CE
:10417000364A8118059800F008F99DF81C00297846
:1041800001EBC10108F80100287800EBC000401CD9
:1041900040449DF8101049442C4A11440A680260BA
:1041A000496841602878401C2870284909F10100BD
:1041B000085C801C484400F0FF09781CC7B29DF8D9
:1041C00020008742C3DB301DC6B200272FE001204C
:1041D000B8400399084040B3301FC21700EB527239
:1041E000D2100DF22C439A5C311FCB1701EB5373A5
:1041F000DB10A1EBC30307FA03F31A43D3B2C217D0
:1042000000EB5272D2100DF22C4C0CF802300BA8BD
:1042100000F8346000EBC400DDF82C1440F8011FF6
:10422000DDF830144160601CC4B2781CC7B2102F96
:10423000CDDB0698401CC0B20690002C03DD06982A
:104240002028FFF661AF00202FE7000068FB002068
:104250002DE9F04FADF5097D80468A4614461E468D
:104260004FF0000BCDF818800025A94604200290DD
:10427000802107A8FBF7C0FF00202070234804A975
:1042800087AB5A46CDE9001051460698FFF7BDFCB2
:104290009DF8100028B9002020700DF5097DBDE8BB
:1042A000F08F0025A9462BE002A8184A009051780B
:1042B000501903AB05AA00F03AF80746B7B99DF8C4
:1042C0000C00217801EBC1017054207800EBC00094
:1042D000401C30449DF8081029440C4A11440A68D7
:1042E0000260496841602078401C20700749681CC2
:1042F000085C801C2844C5B209F1010000F0FF09E8
:104300009DF810008145CFDB0020C6E768FB002048
:1043100010B50446204604F065FA2146042004F056
:104320004CF910B16FF00E0010BD0020FCE72DE934
:10433000F05F044617469846DDF8289094F802A0EE
:104340006078401E00F0FF0B0225BAF1000F03D089
:104350006FF00E00BDE8F09F60195946FFF7F3FCBF
:1043600006460EB1012000E0002000B10AE0605DC9
:104370003870681C205C88F80000A81C89F80000D0
:104380000020E7E76FF00B00E4E72DE9FF41054669
:104390000E4600242846FFF7C0FC07460FB1012057
:1043A00000E0002000B120E02046611CCCB201A951
:1043B0000D5402222046611CCCB201A90A5401A866
:1043C0002044316801607168416004F10800C4B2A2
:1043D0004FF49B700BF0CEF86A4601A9204604F01A
:1043E0000FFA002004B0BDE8F081FF208DF8000036
:1043F00000208DF801006FF00E00F3E72DE9F04F7B
:104400008BB005460F461446984604200A9046A0F5
:10441000006801902046E11704EB9171C1F38F060B
:10442000E019C11700EB9171C1F38F0A2046E11723
:1044300004EB91718910A4EB810101F0FF0BE019ED
:10444000C11700EB91718910A0EB8101C1F104014A
:1044500001F0FF0945B9F0B28DF8060002AA01A9E2
:10446000032004F0CDF91DE0012D0ED10A208DF8B6
:104470000400F0B28DF80600300A8DF8070002AA99
:1044800001A9042004F0BCF90CE0022D0AD1F0B21D
:104490008DF80600300A8DF8070002AA01A9042051
:1044A00004F0AEF99DF80800802803D0F1200BB08D
:1044B000BDE8F08F5A460DF10B014046FBF775FE43
:1044C000149880F800B04DB90AF0FF008DF806008E
:1044D00002AA01A9032004F093F911E0022D0FD1E3
:1044E0000A208DF804000AF0FF008DF806004FEA5C
:1044F0001A208DF8070002AA01A9042004F080F90F
:104500009DF80800802801D0F120D0E7C9F107000C
:1045100002AA81184A4608F10400FBF746FE1598E6
:1045200080F800900020C2E7022000002DE9F0434F
:1045300087B080460E4614461D462846E91705EB0F
:104540009171C1F38F09E11704EB91718910A4EB0C
:10455000810131B92046E11704EB9171C1F38F0756
:1045600006E02046E11704EB91718910491C8FB2D7
:1045700005A806A903AB2A46CDE90010214640460E
:10458000FFF73CFF9DF81810494270189DF818205D
:1045900003A9FBF70AFE30199DF8142004A9FBF7C4
:1045A00004FE9DF81800404231184B463A464046FA
:1045B00000F072F818B1F12007B0BDE8F0830020D8
:1045C000FAE72DE9F047ADF5047D07468846154624
:1045D00099468C9E00244FF0040A2146641C0DF875
:1045E000017021222146641C0DF801203846FFF796
:1045F0008CF901280AD10DEB0400D8F800100160F5
:10460000D8F80410416004F10800C4B23846FFF73E
:104610008CF930B9EAB22046611CCCB20DF800200A
:104620000BE0EAB22046611CCCB20DF800202A0A49
:104630002046611CCCB20DF800200DEB0400524660
:104640004946FBF7B2FD04EB0A00C4B24FF49B707D
:104650000AF090FF3846FFF760F928B932466946FC
:10466000204604F0CDF80AE032466946204604F0C0
:10467000C7F814200AF060FF3046FFF749FE3146C4
:10468000042003F09AFF28B16FF00E000DF5047DB1
:10469000BDE8F0870020F9E72DE9F0478AB005462C
:1046A0000F4690461C464FF002090026B2460DB94F
:1046B000E4B20CE0012D02D14FF00A0907E0022D0F
:1046C00001D1A4B203E0F1200AB0BDE8F08726468C
:1046D00024E0FF2E00DC0DB1012D0CD102A80090CA
:1046E000301B07EB8003324600214846FFF769FF85
:1046F00070B1F120E8E702A80090301B07EB8003BF
:10470000324600214846FFF7A0F808B1F120DBE768
:104710000AF104001FFA80FA701C86B204EB08004C
:10472000B042D6DC0020CFE72DE9F04104460D462B
:1047300017461E46002008490870B02048700846F9
:104740008470C57000200871084680F805713046F5
:1047500000F030F8BDE8F0819F0101202DE9F04123
:1047600004460D4616461F4600200F490870A42037
:10477000487008468470C570067102793946401D3C
:10478000FBF713FD0021084880F805118078042804
:1047900005D10548C07810B90220044908700448C2
:1047A00000F008F8BDE8F0819F010120D803002047
:1047B0008CFF0020F8B504460025524802782946AF
:1047C0006D1C514842544F48007880F001004D491B
:1047D00008704E48027829466D1C4B4842544B489D
:1047E000427829466D1C48484254484882782946F8
:1047F0006D1C454842544548C27829466D1C4248C4
:1048000042544248007930B1404802792846691C38
:10481000CDB23D490A543D490A793B4948193B49C3
:10482000491DFBF7C2FC394800792844C5B2374816
:1048300090F8050130B93548807804280AD133480A
:10484000C07838B9314890F805212846691CCDB2A6
:104850002D490A542E480078042805D128222846DC
:10486000691CCDB228490A5422462749284603F03C
:10487000C7FF06460EB1012000E0002000B13FE076
:10488000A078F2281AD1E078FEF704FB6088ADF832
:1048900000001F480078042808D128208DF8020065
:1048A00022466946032003F0ABFF04E02246694636
:1048B000022003F0A5FF0120FEF7ECFA144800786F
:1048C000042809D16078401F205C12490870607884
:1048D000001F205C487008E06078C01E205C0D4915
:1048E00008706078801E205C48700A480078902824
:1048F00004D10848407808B90020F8BD7220FCE7D0
:104900007120FAE7D803002079FD00209F010120E3
:104910008E040020D60300202DE9F04104460D4608
:1049200016461F4600200B490870D62048700846DE
:104930008470C570067102793946401DFBF735FC5D
:104940000021044880F805110348FFF733FFBDE854
:10495000F08100009F0101208CFF002070470000C3
:1049600010B518480068047A022C01D0042C05D137
:10497000FCF764FB13480068047A1CE0062C19D18C
:1049800010480068407805280ED10E48006800786D
:1049900000F07F0040B90B490968C87807F0F2FEC3
:1049A00009490968086A8047084909688868804792
:1049B000082400E00824034909680C7207F0DEF8B7
:1049C00010BD0000E4040020F0040020E8040020F2
:1049D00000B5C1B04848007830B901204649087098
:1049E00046A1022000F0C8F94A48007808287ED283
:1049F000DFE800F07D693C5C29047D77464840791A
:104A000088B90120454988700321444806F01EF802
:104A1000C0B900203F49087001203F49487100207B
:104A20008875C8750EE000203C49887003213B481A
:104A300006F00CF830B90020364908703649487144
:104A40008875C87554E00421354805F0FFFF60B94A
:104A5000002030490870324880782F49087130486A
:104A6000C078C87000208875C87541E02A48007B6E
:104A700029490979884213DA2748C0788DF804005B
:104A80002548C078411C01A806F02EF868B92248D4
:104A9000007B401C2049087300208875C87504E01D
:104AA00000201C4908701C49087321E01C488078CC
:104AB000642804DA1A4880780A301949887000207E
:104AC0001449087014E01648C078C82804DA14485D
:104AD000C07814301249C87000200E49087007E0F1
:104AE00005E0FCF7F7F900200A49087000E000BF74
:104AF00000BF41B000BD000030000020436F6D6D6D
:104B0000756E692E2045737461626C6973686564A3
:104B100000000000550000200C7200203900002029
:104B2000350000201CB504466846FCF7BFFE4CB9B2
:104B30004FF47870009000208DF806006846FCF76E
:104B40007DFE12E04FF47870FCF762FE00208DF8D5
:104B500004004FF4787000900C208DF805000120BF
:104B60008DF806006846FCF769FE1CBD1CB50446BE
:104B70006846FCF79BFE44B91020009000208DF899
:104B800006006846FCF75AFE13E000200949087049
:104B90001020FCF73DFE00208DF80400102000904E
:104BA0000C208DF8050001208DF806006846FCF702
:104BB00045FE1CBD4C00002008B54FF4A06002F07B
:104BC00091FA28208DF8000001208DF801008DF861
:104BD00002008DF80300684602F052FA1D208DF89D
:104BE000000000208DF801008DF8020001208DF8F2
:104BF0000300684602F044FA1E208DF800000020F1
:104C00008DF8010001208DF802008DF80300684640
:104C100002F036FA1C208DF8000001208DF801000A
:104C200003208DF8020001208DF80300684602F091
:104C300027FA17208DF8000000208DF801008DF86C
:104C4000020001208DF80300684602F019FA0A20DC
:104C50008DF8000000208DF8010001208DF8020081
:104C60008DF80300684602F00BFA08BD01460529DD
:104C70000ED2DFE801F0030507090B0000207047A2
:104C80000020FCE70020FAE70020F8E70020F6E724
:104C90002220F4E7014631B1122906D0132906D0AB
:104CA000142908D105E0002070470020FCE700200F
:104CB000FAE70020F8E73220F6E7000010B50446D6
:104CC0002CB94FF480510548FDF7F3F804E04FF498
:104CD00080510248FDF7EFF810BD0000000C0140C4
:104CE00070B505460024F0234FF4A0720021084659
:104CF00000F0BCF900F0E4FA00BF03E0284600F041
:104D0000C9FA641CB4F5963FF8D300F0C9FA70BD37
:104D1000F8B50646002408A000680090002508E0C9
:104D20009DF800202946304600F012F8681C85B234
:104D3000641C142CF4D3F8BD2000000070B50446A8
:104D40000D461646324629462046FDF7B6F870BD98
:104D500070B505460E461446A4F12000C4B204EB1B
:104D60004400044901EB00123146284600F01AF8CD
:104D700070BD0000B06205082DE9F04107460C4601
:104D80000025002608E0227831463846FFF7E0FF8C
:104D9000701C86B2641C6D1C207808B1142DF2D3EF
:104DA000BDE8F0812DE9F04780460E461746002504
:104DB0000024A146A24608EB48004FF6FF7101EA25
:104DC000C00A084600EA061900224FF48051204824
:104DD000FFF7B4FF5146484600F0A4F800F070FA1F
:104DE00000BF2CE0B9F5987F14D000240FE037F80D
:104DF00015000121A140084020B91648008800F0A4
:104E000049FA03E01448008800F044FA641C112CAD
:104E1000EDD313E000240FE037F815000121A14085
:104E2000084020B90B48008800F034FA03E00A4833
:104E3000008800F02FFA641C102CEDD36D1C192D86
:104E4000D0D3012211030248FFF778FFBDE8F087B5
:104E5000000C0140C0040020BE0400202DE9F047F2
:104E60008046894614461E460027012536B92B4642
:104E700022464946404600F08DF806E0601C83B2A9
:104E80002A464946404600F085F800F019FA002706
:104E900004E00548008800F0FDF97F1C601C6843B1
:104EA000B842F6D8BDE8F087BE0400202DE9F041F5
:104EB00004460D4617461E46002332462146284624
:104EC000FFF7CCFFE01981B2002332462846FFF7F6
:104ED000C5FF01233A4621462846FFF7BFFFA9191F
:104EE00088B201233A462146FFF7B8FFBDE8F081BA
:104EF00010B5074800884CF2C001484004490880BA
:104F0000362000F08BF90248008800F0A5F910BDAA
:104F1000C204002001B5BDF800000149088008BDA9
:104F2000C004002070B504460D460021184807F063
:104F300031FB2A2000F072F9200A00F08DF9E0B26E
:104F400000F08AF904F11000C0F3072000F084F9A2
:104F500004F11001C8B200F07FF92B2000F05EF9D7
:104F6000280A00F079F9E8B200F076F905F11800A6
:104F7000C0F3072000F070F905F11801C8B200F085
:104F80006BF9292000F04AF92C2000F047F970BD98
:104F9000003800402DE9F04704460D4616461F46EE
:104FA0004FF4A0784FF0F00900212F4807F0F2FAF3
:104FB0002A2000F033F9444501DA214600E0414659
:104FC000080A00F049F9444501DA214600E041466B
:104FD000C8B200F041F9A119491E414502DAA119F0
:104FE000491E00E04146C1F3072000F035F9A11940
:104FF000491E414502DAA119491E00E04146C8B2E6
:1050000000F02AF92B2000F009F94D4501DA294674
:1050100000E04946080A00F01FF94D4501DA29462B
:1050200000E04946C8B200F017F9E919491E4945A0
:1050300002DAE919491E00E04946C1F3072000F0F1
:105040000BF9E919491E494502DAE919491E00E040
:105050004946C8B200F000F9292000F0DFF82C2002
:1050600000F0DCF8BDE8F087003800402DE9F041A1
:1050700004460D4616461F4600211C4807F08AFAD2
:105080003019401EB0F5A07F2EDA7819401EF028A6
:105090002ADA2A2000F0C2F8200A00F0DDF8E0B297
:1050A00000F0DAF83119491EC1F3072000F0D4F8F6
:1050B0003119491EC8B200F0CFF82B2000F0AEF82D
:1050C000280A00F0C9F8E8B200F0C6F87919491EBC
:1050D000C1F3072000F0C0F87919491EC8B200F0EA
:1050E000BBF80120BDE8F0810020FBE7003800405C
:1050F00001B5BDF800000149088008BDBE040020CC
:1051000010B5F0234FF4A07200210846FFF7AEFF60
:1051100010BD00002DE9F74F824614464FF00008FD
:10512000C3460025002600272078451C6078461CD1
:1051300005FB06FB00F0C4F833462A4650460199A9
:10514000FFF794FF28B900F0ABF8FFF7D9FFBDE8EF
:10515000FE8F2C2000F062F84FF400610E4807F03B
:1051600019FA671D4FF000080DE038884FEA102942
:10517000387809EB00201FFA80F9484600F06CF8F7
:10518000BF1C08F10108D845EFD300F089F8FFF7FC
:10519000B7FF00BFDBE70000003800402DE9FF5FEC
:1051A000824616461C460E9F4FF00008C346002557
:1051B00004FB07FB00F084F83B4622465046019969
:1051C000FFF754FF28B900F06BF8FFF799FFBDE82F
:1051D000FF9F2C2000F022F84FF400610E4807F0EA
:1051E000D9F935464FF000080DE028884FEA10291C
:1051F000287809EB00201FFA80F9484600F02CF8C7
:10520000AD1C08F10108D845EFD300F049F8FFF7CD
:1052100077FF00BFDBE700000038004010B5044610
:10522000002240210A48FFF789FD0020FFF746FDD4
:105230002146084807F0E9F900BF8021054807F03A
:10524000DBF90028F9D10120FFF738FD10BD00007F
:10525000001001400038004010B5044601224021F2
:105260000A48FFF76BFD0020FFF728FD214608489C
:1052700007F0CBF900BF8021054807F0BDF90028F1
:10528000F9D10120FFF71AFD10BD00000010014008
:105290000038004010B504462046FFF7DDFF10BD82
:1052A00010B5012211030448FCF707FE0021034852
:1052B00007F070F910BD0000000C014000380040FC
:1052C00010B50021054807F065F92920FFF7A6FF72
:1052D0002C20FFF7A3FF00F003F810BD00380040BA
:1052E00010B50021074807F055F900224FF480510E
:1052F0000548FCF7E2FD4FF40061024807F04AF967
:1053000010BD000000380040000C0140002008E003
:10531000054931F81010054A52F820201161411C4E
:10532000C8B20428F4DD704794740508C404002052
:10533000034931F81010034A52F8202011617047D8
:1053400094740508C4040020034931F81010034A7E
:1053500052F820205161704794740508C40400205D
:105360000C49097851B901210A4A11700A4931F8EA
:1053700010100A4A52F82020116109E00021054A64
:105380001170054931F81010044A52F8202051617B
:1053900070470000D804002094740508C40400205D
:1053A0000749C97D59B9012803D10121044A9175E2
:1053B00002E00021024A91750121014AD17570472E
:1053C0000C72002008B504A0006800906946022015
:1053D00005F03EF808BD0000AA14000008B504A0BE
:1053E000006800906946022005F032F808BD000010
:1053F0000014000000BFFEE70648074908600846A1
:1054000000680649064A127841F822000548064914
:10541000086070475C03002094000020588300203F
:10542000860000200C0300208C000020F8B5044604
:105430000D4616460E480088B8B90E48C778602C4D
:105440000ED13B46021D3146204600950BF036F842
:10545000074908800846008810B108460088F8BD52
:1054600005480BF0BFF90249088001480088F6E7BB
:1054700020060020AD030120443322112FB505463C
:1054800050208DF80C0000208DF80D001520208094
:10549000002005210D4ACDE90021029023882A46EB
:1054A000022103A80BF00CFE094908800846008879
:1054B00020B90021074800680BF00DFC0348008864
:1054C00020800348008804B020BD00002206002090
:1054D000200600201C0600207FB505460E46302021
:1054E0008DF80C008DF80D5015202080002005212E
:1054F000094ACDE90021029023883246022103A8FF
:105500000BF0DEFD0549088003480088208008462E
:10551000008804B070BD0000220600202006002094
:1055200030B5C7B000241AA30FCB03AD0FC51CA123
:1055300003C9CDE9010101250BF05EFC84B2002016
:1055400030802A4601A96020FFF770FF044624B985
:1055500007A92846FFF7C0FF044607A80FC8CDE9F2
:105560000523CDE903019DF80D00401CC0B28DF864
:105570000D0024B903A9284600F016F804461CB90A
:1055800007A8FFF77BFF0446204647B030BD000068
:1055900000222222445566778899AABBCCDDEEFF13
:1055A000FFFFFFFFFFFF00007FB504460D46A02070
:1055B0008DF80C008DF80D4001200A21114A034698
:1055C000CDE900210290104A022103A80BF078FDDA
:1055D0000E4908800846008880B900200A21094A3F
:1055E000CDE9002102903388074A102128460BF0AC
:1055F00067FD06490880034800883080034800881A
:1056000004B070BD220600202406002020060020E1
:105610002DE9F84F814601270024A346A246394AC6
:105620000321002006F0F0FD0746B7F5104F08D122
:10563000344800780602334840780643314890F8F1
:1056400002A036B106F1020B0AF0BF0A4FF054086F
:1056500003E04FF0020B4FF0D40800242146641CF5
:10566000284800F801800F222146641C4254002281
:105670002146641C4254014608190F2222A1FAF760
:1056800094FD4846FAF7C3FD1E4A04F10F0100904D
:1056900050184946009AFAF788FD4846FAF7B7FDD0
:1056A000184988704846FAF7B2FD04F10F01084422
:1056B00085B21FFA8BF0134A294609F0A9FA07466A
:1056C000B7F5104F16D1701985B2280A0D49087028
:1056D0004D704EB1084680F802A00246032100201A
:1056E00009F096FA074605E0064A0221002009F073
:1056F0008FFA0746B7F5104F02D10020BDE8F88FAA
:105700000120FBE7680A0120616E64726F69642EF4
:10571000636F6D3A706B67002DE9F0470746894665
:1057200016460020307086F8400086F8A40007EB8B
:105730000908781C0746054645451AD02C4600E066
:10574000641C01222EA12046FAF768FD08B14445E9
:10575000F6D301222AA12046FAF760FD08B144459C
:1057600007D1621B29463046FAF71FFD0020611B56
:105770007054641C2546082222A12846FAF74EFDE3
:1057800018BB4FF0080A45451FD055442C4600E091
:10579000641C01221EA12046FAF740FD08B14445D1
:1057A000F6D301221AA12046FAF738FD08B1444584
:1057B0000AD1621B294606F14000FAF7F6FC0021E7
:1057C000621B06F140008154641C2546052211A18C
:1057D0002846FAF723FD88B9641DE01B401CA9EB9D
:1057E0000002214606F1A400FAF7DFFC0021E01BCD
:1057F000401CA9EB000206F1A4008154BDE8F0872B
:105800003F0000007375626A6563743D000000002C
:1058100026000000626F64793D0000002DE9F05F12
:105820000746884616460FF27C0B4FF0040A00200C
:105830003070307507EB08093D4600E06D1C52469C
:1058400059462846FAF7EAFC08B14D45F6D34D45CE
:1058500015D055442C4600E0641C012213A12046BB
:10586000FAF7DCFC08B14C45F6D34C4507D0621B77
:1058700029463046FAF799FC0020611B7054641CDD
:105880002546E01BA8EB0002214606F11400FAF7BA
:105890008CFC0021E01BA8EB000206F114008154EF
:1058A000BDE8F09F67656F3A000000002C00000023
:1058B0002DE9F05F0746884616460FF28C0B4FF035
:1058C000040A00203070307407EB08093D4600E000
:1058D0006D1C524659462846FAF7A0FC08B14D45C2
:1058E000F6D34D4515D055442C4600E0641C0122EA
:1058F00017A12046FAF792FC08B14C45F6D34C4567
:1059000007D0621B29463046FAF74FFC0020611B86
:105910007054641C254605220EA12846FAF77EFC29
:1059200078B9641DE01BA8EB0002214606F11000C7
:10593000FAF73BFC0021E01BA8EB000206F1100087
:105940008154BDE8F09F0000736D733A00000000C1
:105950003F000000626F64793D0000002DE9F84FC0
:1059600004460D460120009000F00EF910B1012010
:10597000BDE8F88F2A460121022006F045FC287870
:1059800000F0080010B14FF0010801E04FF00008EE
:10599000287800F0100070B12A460421022006F099
:1059A00033FC6F784FF0010AB8F1010F01D1EE78A6
:1059B0000FE000260DE02A460721022006F024FC15
:1059C0006F784FF0040AB8F1010F01D1AE7900E011
:1059D00000260AF102004044384430441FFA80F99E
:1059E0002A464946022006F00FFC287800F01000F5
:1059F000D0B12878207067700020A070E07020710E
:105A0000A8786071A671F01C41193A46E01DFAF7BA
:105A1000CCFBF01C38444119324604F58370FAF788
:105A2000C4FBA4F806921BE0287820706770A87861
:105A3000A070E878E0702879207168796071A671AB
:105A4000B01D41193A46E01DFAF7AFFBB01D3844CE
:105A50004119324604F58370FAF7A7FBA4F80692C1
:105A6000A0780006E17840EA0140217940EA01206F
:105A7000617940EA010B1FFA8BF1B4F80622921CFF
:105A800090B22A4606F0C0FB00900098B0F5104F87
:105A900001D000986CE7C4F80852204600F0E0F806
:105AA000002065E72DE9F05F04460D464FF0010B3D
:105AB000287800F0080008B1D84601E04FF000084F
:105AC000287800F0100048B16F784FF0010AB8F163
:105AD000010F01D1EE780AE0002608E06F784FF060
