:020000040800F2
:10000000101C0020D5000008DD000008FB220008BD
:1000100000000000000000000000000000000000E0
:10002000000000000000000000000000E1000008E7
:100030000000000000000000E3000008CB250008DD
:10004000E7000008E7000008E7000008E7000008F4
:10005000E7000008A9080008E7000008E70000081A
:10006000E7000008E7000008E7000008E7000008D4
:10007000E7000008E700000800000000E7000008B3
:1000800000000000E7000008000000000000000081
:10009000E700000800000000E7000008E700000893
:1000A000E7000008E7000008E7000008E700000894
:1000B000E7000008E7000008E7000008E700000884
:1000C0000348854600F00EFB00480047B14A00088F
:1000D000101C00200448804704480047FEE7FEE764
:1000E000FEE7FEE7FEE7FEE775260008C100000810
:1000F00030B50B46014600202022012409E00D46C0
:10010000D5409D4205D31D469540491B2546954047
:1001100040191546521E002DF1DC30BD70B500248B
:100120002546002801DA01244042002901DA012590
:100130004942FFF7DDFFAC4200D04042002C00D026
:10014000494270BDF0B51FB40646002082B0054696
:100150004024019100901BE0019922460F46304651
:1001600000F090F9049A059B801A994110D310462B
:100170001946224600F076F9361A8F410197224639
:1001800001200021009F00F06DF938184D410090CA
:100190002046641E0028DFDC019B00982946324679
:1001A00007B0F0BD10B5431A934209D283188818DE
:1001B00003E0401E01785B1E1970521EF9D210BD7B
:1001C00003460B439B0703D009E008C9121F08C070
:1001D000042AFAD203E00B780370401C491C521E1B
:1001E000F9D210BDD2B201E00270401C491EFBD210
:1001F00070470022F6E710B513460A460446194632
:10020000FFF7F0FF204610BD421C0178401C00297A
:10021000FBD1801A704730B504460020034600E049
:100220005B1C934203D2E05CCD5C401BF8D030BD38
:10023000F0B507460846584087B0C00F0490480004
:100240000E46590040084908BC1A884105D2384674
:1002500031461E4617460B460246580040081043DA
:100260004CD0300D039040055900400D490D0590CC
:10027000401A0290402872DA18030121000B090588
:100280000843019004980092002805D00199524239
:100290000020884100920190029840210A1A019999
:1002A000009800F0DFF805460C466B4607CB00F0DF
:1002B000FAF8C0197141039A0E0D0023D717564062
:1002C0001A467A40164344D0049A002A2DD0029A46
:1002D000012A039A15DC1205C01A91410126360540
:1002E000001C7141D20F059ED20700930192029625
:1002F0002A46234600F0F7F807B0F0BD38463146ED
:10030000FAE71605224A0F46B218C01AB741012172
:100310000905001C4F4100187F411146181879410A
:10032000E20F10436D19644113E0E2076D081543B5
:100330006408C2071443039A01261205C01A9141AA
:100340003605001C7141CE07400830434908C018EB
:1003500051412A46234600F0B9F8CDE7FFE704985B
:1003600001224000C117121A00238B410498314624
:10037000C417381AA141EEE730B40124E407634002
:1003800030BC55E730B40124E407614030BC4FE78E
:100390000000E0FFF0B51FB488B00B990998002465
:1003A00048400999C00F490049080991C0070B99B5
:1003B0000090490049080B9109990898A6460843FE
:1003C0001CD00B990A98084318D0099801244000C2
:1003D000420D4800410D099824050003000B2043FD
:1003E00009900B980003000B20430B9050181C49F8
:1003F0004018002201901446104605E000200146F6
:100400000DB0F0BD032801DA034600E003239C464B
:10041000C11A0AAE0AE05F0008ADED5B4F00F75B62
:100420007D430027AA187C41491C5B1E6145F2DD13
:10043000410004AB5A522104120C0A43240C401C04
:100440000828DFDB01980290009970460191009026
:10045000059B049A0799069800F045F8D0E700003C
:100460000DFCFFFF10B5202A04DB0146203A914025
:10047000002010BD914020239C1A0346E3401943FD
:10048000904010BD10B5202A04DB0846203AD04029
:10049000002110BD0B46D340D0402024A21A914029
:1004A0000843194610BD10B5202A06DBCB170846B5
:1004B000203A1041C1170B4306E00B461341D040D0
:1004C0002024A21A91400843194610BD10B5002BF4
:1004D00008DA0024401C614192185B411A4301D1A3
:1004E0004008400010BDF0B51FB482B005460C00B6
:1004F00003D0084602F0A4FB02E002F0A1FB20308A
:100500000246009021462846FFF7ACFF049B059A5F
:1005100004460F4618431143084314D018461043AD
:100520001BD0009840210A1A18460599FFF7AAFF28
:1005300005460E46009A05990498FFF793FF084375
:1005400005D0012004E02046394607B0F0BD002068
:10055000C11705430E432C43374300990E9863059A
:10056000401A7905E40A00220C43FD0A0A3002D53C
:1005700000200146E9E70105101969410C9C0D9D19
:1005800000196941FFF7A2FFDFE70000F0B50C4654
:100590005C4085B0E40FE40703944C000026640837
:1005A00059009446490802460296224321D06246E9
:1005B0000A431ED06200570D4A000E032303550D57
:1005C000012402462C492405781B1B0B360B4018CE
:1005D00023432643614600901C46501AB44103D37E
:1005E0000098401C009002E0921800985B4100289F
:1005F00003DA0020014605B0F0BD00200121090505
:100600000746864611E064461D46141BB54106D3D5
:100610006546521BB341744607430C43A646CD07BB
:1006200040084908284392185B4105460D43EAD12A
:100630001046184313D06046194650407140084395
:1006400006D06046101AB34106D20122002306E00C
:1006500000220123DB0702E00122D243531000985D
:1006600074460105381C6141029C039D00196941D3
:10067000FFF72CFFBFE70000FD0300004A0009035D
:100680000123090B1B0519430A4B10B5520D9A4261
:1006900002DA0020014610BD064B34339A4203DCD7
:1006A0009A1AFFF7EFFE10BD034BD218FFF7DAFEE0
:1006B00010BD0000FF030000CDFBFFFF10B50029B7
:1006C00004DB0124E40740428C412146002B04DB7B
:1006D0001C460123DB075242A341994200D19042BC
:1006E00010BD0000064C0125064E05E0E36807CC6E
:1006F0002B430C3C98471034B442F7D3FFF7E4FC8B
:1007000080C10008A0C1000810B500F0C9FB10BDF1
:1007100030B587B0040007D11648C36A04221343DA
:10072000C362C06A10400590134A6000105A0090DE
:10073000012200200392A200104B0290002913D046
:1007400001290FD10E4801909858694600F0AAF986
:10075000094D00222D1F28570F2100F023FC285798
:1007600000F00CFC07B030BD01909858694600F0CD
:1007700099F9F7E700100240ACBF0008D80000204C
:100780000000211010B5024800F0C8F810BD0000AC
:100790009800002010B50AF025FF10BD10B51849CB
:1007A000164808600024084601F050FA002822D1BB
:1007B00014480068002806D100F02AF8002802D06A
:1007C0000920C04310BD00F09DFE00220E4B1146D3
:1007D0000E4C05E091006158521C072A02D84008CF
:1007E0009842F7D8064801F089FD002802D0072476
:1007F000E44300E00024204610BD0000003001402A
:100800000C04002094000020404B4C0088BF0008DE
:1008100070B50F4900244C7440398C670C48CC6784
:100820000C4A0821403801F004FB251F002807D19D
:100830000748094A0921403801F0FBFA002801D095
:100840002C4602E0054901200860204670BD0000EA
:100850004C04002015240008CD230008940000203B
:1008600070B5FFB0002583B016460C46002803D0B3
:10087000014601A8FFF796FC7D2000010090002CA6
:1008800000D141AC2246334601A9064801F016FBCF
:10089000002802D0FFF782FF05467FB0284603B04C
:1008A00070BD00000C04002010B5FFF76BFF10BDF9
:1008B00070B5044600F0F4FA0546601C00D0641CD4
:1008C00000F0EEFA401BA042FAD370BD70B50546A9
:1008D0004801400F0C46012803D0022801D0062809
:1008E00003D1E006C00E102803D3BA2104A002F001
:1008F0006CFE002D02D000202C6070BD012070BD68
:100900002E2E2F5372632F73746D33326C307878C0
:100910005F68616C5F657874692E63000178CA0650
:10092000D20E01219140054A53690B4204D0516116
:100930004068002800D000477047000000040140D4
:1009400003460020002901D0012070475A607047FB
:10095000F8B5052700263F070D460446B84204D1E6
:100960002804000C0AD0280C19E04748844205D11D
:100970002804000C0BD0280C20D008E04348844207
:1009800005D12804000C0DD0280C78D00AE040488E
:10099000844207D168070CD50421284688430028E3
:1009A0006DD006E03B48844203D1A80701D0A808D7
:1009B000F5E7FF212C31384802F007FE5FE0012007
:1009C000B0408446284059D02268730003219940E2
:1009D0000A438E462260F10889000A190092136AC0
:1009E0007207D10E0F228A409343009A1362A268C5
:1009F00071468A43A2606168624691436160E26821
:100A000071468A43E260B2082449920051188B680B
:100A10008C46B1070A0F0F2191408E461940BC4207
:100A200001D1002314E0184B9C4201D101230FE0B7
:100A3000164B9C4201D102230AE0154B9C4201D186
:100A4000032305E0134B9C4201D1052300E006235C
:100A500093408B4212D16246926871468A43614646
:100A60008A600F490A6882430A604A6882434A6082
:100A70008A6882438A60CA688243CA60761C2846B4
:100A8000F0409CD1F8BD0000000400500008005068
:100A9000000C0050001C005020C000080000014065
:100AA00000040140F8B50446486800270D460028B8
:100AB0001FD001281DD011281BD0022819D01228C0
:100AC00017D08C49884214D08B49884211D08B4969
:100AD00088420ED08A4988420BD08A49884208D081
:100AE0008949884205D0032803D0AE21874802F007
:100AF0006CFDA868002807D0012805D0022803D083
:100B0000AF21824802F061FD05200007844205D133
:100B100028680104090C0BD0000C1BE07C488442BF
:100B200006D128680104090C0CD0000C21D009E082
:100B30007848844206D128680104090C0DD0000CC5
:100B4000F4D00AE07448844207D1286841070CD5E4
:100B5000042188430028E9D007E07048844204D18A
:100B60002868810701D08008F4E7B021674802F0C7
:100B70002CFDB9E00120B840009006407DD06868A7
:100B8000022801D0122827D10520000784420FD067
:100B90005F4884420CD05F48844209D05E4884425A
:100BA00006D05E48844203D0BF21584802F00DFDB4
:100BB0002869072803D9C021544802F006FDF80827
:100BC00080000319186A7907CA0E0F2191408843E3
:100BD00029699140014319626868012805D00228FB
:100BE00003D0112801D012281ED1E868002809D0AE
:100BF000012807D0022805D0032803D0CE2143487E
:100C000002F0E3FCA0687A00032191408843E96880
:100C100091400143A1606068009988432979C90621
:100C2000C90FB9400143616023687A0003209040F6
:100C3000297983438907890F914019432160E1682D
:100C40008143A86890400843E0606868C0004AD5C6
:100C50003348416B012211434163B908314889008F
:100C60000B189868B9070A0F0F2191408843052196
:100C700009078C4202D1002115E034E024498C425E
:100C800001D101210FE023498C4201D102210AE068
:100C900021498C4201D1032105E020498C4201D138
:100CA000052100E006219140014399601E4801683A
:100CB0006A68B143D20300D53143016041686A6874
:100CC000B143920300D53143416081686A68B14302
:100CD000D20200D531438160C1686A68B143920293
:100CE00000D53143C1607F1C2E683046F84000D0EB
:100CF00040E7F8BD00001110000021100000311085
:100D000000001210000022100000321020C0000865
:100D10000004005000080050000C0050001C00505F
:100D200000100240000001400004014070B50C4674
:100D3000054605263607164B16481749174AB54289
:100D400002D1002C1ED118E09D4202D1002C19D1F5
:100D500004E0854202D1002C14D107E08D4205D178
:100D600060070AD504212046884304E0954204D157
:100D7000A00702D0A008002804D0FF217B3108483A
:100D800002F023FC2869204000D0012070BD000043
:100D90000004005000080050000C0050001C0050DF
:100DA00020C0000870B50C46054605263607154BD1
:100DB00015481649164AB54202D1002C1ED118E03A
:100DC0009D4202D1002C19D104E0854202D1002CB1
:100DD00014D107E08D4205D160070AD504212046D1
:100DE000884304E0954204D1A00702D0A00800285F
:100DF00004D0FF21B531074802F0E7FB6869604085
:100E0000686170BD0004005000080050000C0050E4
:100E1000001C005020C00008F8B516460C460546D8
:100E200005273F0719481A491A4A1B4BBD4202D1F0
:100E3000002C1ED118E0854202D1002C19D104E00B
:100E40008D4202D1002C14D107E0954205D16007F4
:100E50000AD504212046884304E09D4204D1A0071E
:100E600002D0A008002804D0FF219D310B4802F0D9
:100E7000ACFB002E08D0012E04D0FF219E31074884
:100E800002F0A3FBAC61F8BDAC62F8BD00040050F9
:100E900000080050000C0050001C005020C000084A
:100EA0000148006870470000E40000200248016823
:100EB000491C016070470000E400002010B508489C
:100EC00000240168402211430160204600F00AF826
:100ED000002801D0012401E000F01CF8204610BDDC
:100EE0000020024070B5054609487D210024C90054
:100EF0000068FFF7FDF801F0FDF8002801D001249B
:100F000004E000222946501E00F04CF8204670BD37
:100F1000E000002010B50C48416B012211434163F1
:100F2000816B02041143816300221146501F00F0BF
:100F300039F800221146901E00F034F800221146C4
:100F4000501E00F02FF810BD0010024010B5040034
:100F500003D5A721074802F038FB002C09DBE10686
:100F6000C90E0120884004490860BFF34F8FBFF3CA
:100F70006F8F10BDD8BF000880E100E010B50400FD
:100F800003D59721054802F020FB002C05DBE10684
:100F9000C90E012088400249086010BDD8BF000872
:100FA00000E100E070B50C460546042903D3872113
:100FB000034802F00AFB2146284601F081FE70BD7D
:100FC000D8BF0008F8B504460068AD49884203D987
:100FD0006721AC4802F0F9FA2068AB4D810601D4D4
:100FE000010574D5A94EAA4F80061AD5606800285D
:100FF00017D0B04215D0B84213D00321090488425B
:101000000FD01321090488420BD023210904884200
:1010100007D033210904884203D07321994802F094
:10102000D4FA208800051AD5A068002817D0B0424D
:1010300015D0B84213D00321090488420FD01321E0
:10104000090488420BD023210904884207D03321A8
:101050000904884203D079218A4802F0B6FA8A4E00
:101060000027403EB06BC00004D4B06B310408438D
:10107000B063012787480168C90511D4016882154A
:1010800011430160FFF70CFF009005E0FFF708FF38
:101090000099401A642845D87E480068C005F5D5F7
:1010A000316803200005626801401040884205D184
:1010B0000323A0681B051840884209D09003800FC5
:1010C000032805D13068800302D50120F8BD47E030
:1010D000286903210904084029D00A40824202D02D
:1010E0002278920606D4A2680A4082421FD0208845
:1010F00000051CD528692A6988430121C9040A43CF
:101100002A612A698A432A612861C0050FD5FFF741
:10111000C7FE009008E0FFF7C3FE0099411A5E4841
:10112000814201D90320D1E728698005F3D56168A0
:101130008803800F032805D13268000582430140EF
:101140000A4332602869032261681204114008438F
:101150002861002F04D0B16B012000078143B163E7
:101160002078C00712D0E068002809D0012807D0F5
:10117000032805D0022803D0DE21424802F025FAD8
:10118000E868E168800880000843E860207880070C
:1011900012D52069002809D0042807D00C2805D0D2
:1011A000082803D0E921374802F00FFAE8680C213B
:1011B000884321690843E8602078400716D5032654
:1011C0006069B60200280CD001218902884208D04B
:1011D000B04206D04900884203D0F321294802F0EA
:1011E000F4F9E8686169B0430843E86020780007D3
:1011F00014D5A06900280AD001210903884206D02D
:101200004900884203D0FD211E4802F0DEF9E8685B
:10121000032109038843A1690843E8602078400658
:1012200010D50126206AB606B04206D0002804D0A8
:10123000FF211431134802F0C8F9E868216AB0436D
:101240000843E8602078000617D50326E069B60455
:1012500000280DD001218904884209D04900884224
:1012600006D0B04204D0FF211C31064802F0ADF98F
:10127000E868E169B0430843E860002026E7000021
:10128000FF080000ACC00008401002400000010050
:10129000000002000070004088130000F8B50E4600
:1012A000050075D02868C10709D1810707D4410717
:1012B00005D4000703D48249824802F086F9002E43
:1012C00006D0012E04D07E497E48491C02F07DF9EB
:1012D0007D480068C007C00FB0420AD27A48016852
:1012E00049084900314301600068C007C00FB0429F
:1012F0004ED12878754C80071DD5A868002814D0D9
:10130000802812D0902810D0A0280ED0B0280CD061
:10131000C0280AD0D02808D0E02806D0F02804D071
:1013200067496848183102F050F9E068F0218843B5
:10133000A9680843E0602878C00763D0686800287F
:1013400011D001282BD0022823D0032824D05C49B7
:101350005C481F3102F039F96868022819D0032867
:101360001AD001281BD02068800500285ADAE068CE
:101370006968800880000843E060FFF791FD6968B4
:101380000746022914D003291ED0012928D035E0B0
:1013900048E020688003E8E720688001E5E72068EE
:1013A0004007E2E7FFF77CFDC11B4948814223D893
:1013B000E0680007800F0228F4D123E0FFF770FDFA
:1013C000C11B4348814217D8E0680007800F0328FB
:1013D000F4D117E0FFF764FDC11B3D4881420BD8F3
:1013E000E0680007800F0128F4D10BE0FFF758FDFB
:1013F000C11B3748814201D90320F8BDE0680007CE
:10140000800FF3D130480168C907C90FB1420BD929
:10141000016849084900314301600068C007C00FF6
:10142000B04201D00120F8BD28782A4F2A4E40074B
:1014300018D5E868002810D0B8420ED0052109025E
:1014400088420AD003214902884206D0B04204D023
:1014500020491C48163902F0B8F8E068E968B04342
:101460000843E060287800071BD52869002810D0C1
:10147000B8420ED00521090288420AD00321490250
:10148000884206D0B04204D012490E480F3902F00B
:101490009CF8E0680721C90288432969C90008430C
:1014A000E06000F03FF8E1680C4A0906090F515C62
:1014B000C8400B4908600020FFF714FDF8BD00008C
:1014C0006603000068C000080020024000100240CF
:1014D000881300000004000000070000AEBF0008F1
:1014E000E0000020044805490068C968044A49052D
:1014F000490F515CC8407047E000002000100240D6
:10150000C7BF0008044805490068C968044A89043F
:10151000490F515CC8407047E000002000100240B5
:10152000C7BF000810B5184AD1680C20084004282D
:101530000BD0082810D00C2810D050680004410FA0
:101540000120C003491C884010BD1068C00601D5A9
:101550000E4810BD0E4810BD0E4810BD88020E4B3F
:10156000000F185C0902D368890F491CDB0301D501
:10157000084A05E01268D20601D5044A00E0044A90
:101580005043FEF7B5FD10BD0010024000093D00BC
:101590000024F40000127A00BEBF0008FEB504006B
:1015A0007ED02068002810D0C1070ED181070CD44E
:1015B00081060AD4010708D4410706D4C00604D422
:1015C000FF216131FE4802F000F8FE4DEF680C206B
:1015D000EE6807400120000406402078C00758D07C
:1015E000606800280CD001210904884208D0052138
:1015F0000904884204D0FF216A31F14801F0E5FF77
:10160000082F05D00C2F0AD101200004864206D1F4
:10161000286880033DD560680028C1D039E00120EA
:1016200061680004814202D12968014312E0052269
:1016300012049142296804D10122920411432960C5
:10164000F2E781432960296801400091296801205F
:10165000800481432960606800280DD0FFF720FCDA
:10166000009005E0FFF71CFC0099401A642875D82B
:1016700028688003F6D50CE0FFF712FC009005E027
:10168000FFF70EFC0099401A6428F0D82868800300
:10169000F6D4207880076AD5E06800280AD000E0F8
:1016A000C6E2012806D0092804D0FF219D31C44894
:1016B00001F08BFF20691F2804D9FF219E31C0480B
:1016C00001F083FF0921E068042F0DD00C2F01D118
:1016D000002E09D0002839D02A688A4302432A60A4
:1016E000FFF7DEFB064625E02A68520701D50028F1
:1016F00093D06A681F231B029A4323691B021A4373
:101700006A602A688A4302432A60FFF70BFFE96890
:1017100009060A0FAC49895CC840AC490860002042
:10172000FFF7E0FB00287DD121E0FFF7B9FB801B2C
:1017300002289CD828684007F7D568681F2109024D
:101740008843216909020843686010E0286840085E
:1017500040002860FFF7A4FB064605E09CE1FFF788
:101760009FFB801B022890D828684007F7D4207878
:10177000C00664D50126F603002F15D0E0690028C5
:101780007ED0012807D04321C9008D4801F01DFFFC
:10179000E069002874D02868FF21013108432860DF
:1017A000FFF77EFB009051E02868800502D5E069D4
:1017B00000289DD0206AFF2804D9012149028048D1
:1017C00001F003FF606A002818D001214903884214
:1017D00014D04900884211D00321490388420DD01A
:1017E000B0420BD005214903884207D00321890369
:1017F000884203D07649724801F0E7FE6868072105
:1018000049038843616A084368606868218C000264
:10181000000A090608436860606A400B401C864065
:10182000E86800E07FE00006010F6748405CC640C2
:10183000664806600020FFF755FB002873D14FE093
:10184000FFF72EFB0099401A02288CD828688005E3
:10185000F6D5206AFF2804D98B218900584801F069
:10186000B4FE606A00281BD001214903884217D0CA
:101870004900884214D003214903884210D000E077
:101880001DE0B0420CD005214903884208D0032155
:101890008903884204D04E4949482C3101F095FE15
:1018A0006868072149038843616A0843686068687B
:1018B000218C0002000A09060843686010E02968CC
:1018C000FF20013081432960FFF7EAFA064604E071
:1018D000FFF7E6FA801B0228B7D828688005F7D4FE
:1018E00020783C4E000730D5606900281CD00128C4
:1018F00007D0374932484A3101F067FE6069002855
:1019000012D03069012108433061FFF7C9FA009015
:1019100005E0FFF7C5FA0099401A022895D830690A
:101920008007F6D511E06BE1306940084000306176
:10193000FFF7B6FA009005E0FFF7B2FA0099401AF7
:101940000228C9D830698007F6D42078400770D5BE
:1019500000200290A06800280BD0C11FF93908D0E0
:1019600005210902884204D019491548763101F051
:101970002CFEA86BC00006D4A86B01210907084300
:10198000A8630120029014480168C90511D40168B8
:10199000821511430160FFF783FA009005E0FFF71D
:1019A0007FFA0099401A642876D80B480068C00571
:1019B000F5D5FF20A2680130824212D131690DE0D5
:1019C00068C0000800100240AEBF0008E000002020
:1019D00001020000401002400070004001433161EC
:1019E00011E001218902002A07D005231B029A4237
:1019F00003D132690A433261E0E7326982433261DE
:101A0000306988433061A06800280ED0FFF748FA9B
:101A1000009006E0FFF744FA0099411A8648814297
:101A20003AD830698005F5D50EE0FFF739FA009015
:101A300007E011E0FFF734FA0099411A7E4881422D
:101A40002AD830698005F5D40298002804D0A96B03
:101A5000012000078143A963207880063BD5A06957
:101A6000764E002822D0012806D07549754801F02D
:101A7000ACFDA069002819D0A96801200143A96024
:101A8000696B01436963306A01214903084330628D
:101A9000FFF706FA064605E081E0FFF701FA801B32
:101AA00002287CD8A8688007F7D514E0A868400809
:101AB0004000A860316A0120400381433162FFF792
:101AC000EFF9064604E0FFF7EBF9801B022866D821
:101AD000A8688007F7D4A06A00287CD0012809D024
:101AE000022807D05D21C900564801F06EFDA06AAA
:101AF000002870D00326B6050C2F6DD001273F06B5
:101B0000022806D02868B8432860FFF7C9F90446C0
:101B100077E0E06A002808D001210904884204D057
:101B200047494848333101F050FD206B002823D04D
:101B30000121890488421FD0490088421CD003211A
:101B40008904884218D001210905884214D0052152
:101B50008904884210D00321C90488420CD007218F
:101B60008904884208D001214905884204D03449BB
:101B70003448343101F029FD0121606B8905884228
:101B800009D04900884206D0B04204D02C492D48E3
:101B9000353101F01AFD2868B843286000E02EE0D6
:101BA000FFF77EF9064604E0FFF77AF9801B02286A
:101BB00025D828688001F7D4216BE06AEA680843D9
:101BC000616BFD231B049A4311430843E8602868B6
:101BD0003843286001E02DE017E0FFF761F9044683
:101BE00004E0FFF75DF9001B022808D8286880018F
:101BF000F7D51FE0FFF754F9001B022801D9032095
:101C0000FEBD28688001F5D414E00128F8D0E8680A
:101C100001210904E26A0140914209D10F2189049E
:101C2000226B0140914203D1616B3040884201D068
:101C30000120FEBD0020FEBD881300000000014011
:101C4000BE02000068C00008704770474030407C0A
:101C500070470000F8B504006ED0694920688842DA
:101C600007D06849884204D0FF214831664801F016
:101C7000ACFC6068002807D0C11FFD3904D0FF21EB
:101C80004931614801F0A1FCA06800280BD0012176
:101C90008902884207D04901884204D0FF214A3195
:101CA000594801F092FC0121E068C902884206D03F
:101CB000002804D0FF214B31534801F086FC012657
:101CC000A0697602B04209D0002807D0710288428C
:101CD00004D0FF214C314C4801F077FCE06900282A
:101CE00012D0082810D010280ED018280CD0202888
:101CF0000AD0282808D0302806D0382804D0FF2160
:101D00004D31414801F061FC206A002806D080284E
:101D100004D0FF214E313C4801F057FC606A002896
:101D20000CD010281ED0FF214F31374801F04DFC58
:101D3000606A002802D015E00120F8BD2069002863
:101D400006D0022804D0FF2152312F4801F03DFC7B
:101D50006069002806D0012804D0FF2153312A48A9
:101D600001F033FC002725464035A762687C002837
:101D700018D12F742548A0652548E06525482066C0
:101D8000254860662548A0662548E0662548206706
:101D900025486067A06F002801D12448A06701464C
:101DA00020468847022068742068016840229143D9
:101DB0000160A168606822690843E1681143084333
:101DC00061690843A16931400843E1690843216A18
:101DD0000843A16A084321680860A0690421000C37
:101DE0000840616A0843216848602068C16901228F
:101DF000D2029143C1616765012068740020F8BD7B
:101E00000030014000380040F4C00008ED20000818
:101E1000B91E0008F1200008EF200008BB1E0008D2
:101E2000F32000084B1C0008491C0008311E000864
:101E3000704770B500258026002A0DD00446403436
:101E4000237C012B0DD001232374637C012B0AD04A
:101E5000637C002B20D023E0416D3143416501209C
:101E600070BD022070BD0B0000F001FF0A06080AD9
:101E70000C0E10121422241A826515E0C26513E0BC
:101E8000026611E042660FE082660DE0C2660BE07A
:101E9000026709E0426707E0082909D0092909D04B
:101EA000416D31434165012500202074284670BDF5
:101EB0008267F9E7C267F7E770477047FFB50446E6
:101EC00083B00120019000200090E0680C9F1D4627
:101ED000002801D1012D0ED90498C00703D08149F3
:101EE000814801F072FB0598C00704D04721090121
:101EF0007D4801F06AFBA068002804D079497A483F
:101F0000491D01F062FB26464036307C01280FD087
:101F100001203074FEF7C4FF0290707C61680128D4
:101F20000DD0CA1FFD3A08D1A168002905D102E0F1
:101F3000022007B0F0BD042801D00220C2E00498BE
:101F4000002828D00598002825D0002D23D0707CAB
:101F5000042801D005207074002060650599A163F4
:101F6000E587A58704992163E586A58620646064DA
:101F700020680168490603D40168402211430160CA
:101F80000121E068C9028842606847D1002804D076
:101F9000012D02D03BE0012094E0206B21680088F5
:101FA000C860206B801C2063E08E401EE0862EE01F
:101FB00020688168890710D5E18E00290DD001992C
:101FC00001290AD1216B0988C160206B801C206324
:101FD000E08E401EE0860020019020688168C907DD
:101FE0000DD0E18F00290AD0C068A16B0880A06BDA
:101FF000801CA063E08F401EE08701200190FEF767
:102000004FFF0299401AB84201D3781C59D1E08E93
:102010000028CDD1E08F0028CAD146E0002801D0A9
:10202000012D3CD1206B216800780873206B401C87
:102030002063E08E401EE08631E0206881688907D9
:1020400010D5E18E00290DD0019901290AD1216B0B
:1020500009780173206B401C2063E08E401EE086EF
:102060000020019020688168C9070DD0E18F002908
:102070000AD0C068A16B0870A06B401CA063E08F01
:10208000401EE08701200190FEF70AFF0299401AE6
:10209000B84202D3781C02D013E0002F11D0E08E9A
:1020A0000028CAD1E08F0028C7D139462046029ABD
:1020B00000F024FA002807D001200090202060655D
:1020C00009E00320009006E0A068002803D1206802
:1020D000C1688068019001207074002030740098FD
:1020E00027E700006F040000F4C000087047704745
:1020F00070477047094910B5401E884201D9012038
:1021000010BD074C60610321081F00F0D9FD0020BD
:10211000A06107202061002010BD0000FFFFFF002C
:1021200000E000E010B504000FD0A06925490028A8
:10213000254A264B20680AD0884213D0904211D0FD
:1021400098420FD0FF21303109E0012010BD8842B4
:1021500008D0904206D0984204D0FF2135311C4867
:1021600001F033FA606F002805D10021702001557D
:10217000204600F02FF82420606720680168490895
:1021800049000160204600F089FB0128DED0606A2A
:10219000002802D0204600F06FFA2068416809222A
:1021A000D20291434160206881682A229143816074
:1021B00020680168012211430160204600F03EFBC7
:1021C00010BD0000003801400044004000480040BD
:1021D00038C10008F0B50068124985B088421FD1A7
:1021E0001148816B012252041143816304240020B1
:1021F0000527022503263F070290009469460396AF
:10220000019504943846FEF74DFC0820009001200B
:10221000029001956946039604943846FEF742FC05
:1022200005B0F0BD0044004000100240FFB5044678
:10223000406F83B017460D4620285CD1002D0AD090
:10224000002F08D0A168C001814207D12069002871
:1022500004D1E80702D0012007B0F0BD204660306D
:102260000290007C012846D00298012101740020D0
:10227000E06721206067FEF713FE26464036019096
:10228000378277820120A1680003814202D1206950
:10229000002802D02F46002511E000270FE0002281
:1022A0008021204600F088FC002815D1002F15D091
:1022B0002168387888627F1C708A401E7082708A1C
:1022C000019B002806980090E9D100224021204679
:1022D00000F072FC002808D00320BDE728882168A0
:1022E000C005C00D8862AD1CE6E72020606702993A
:1022F00000200874B0E70220AEE7FEE710B5002426
:102300008460C46001230461FF224361053242609E
:10231000046244625B0284628361C1610721C1621D
:10232000FFF798FC002800D00124204610BD0000D3
:10233000F0B5184889B0C26A01210A43C262C26A74
:102340000A400092C36A02221343C362C36A134065
:102350000093C36A04221343C362C06A0E4D104047
:1023600000240090E600A85B02900120039000206A
:1023700005907719049002A97868FEF793FBA95B92
:1023800000227868FEF748FD641CE4B2062CE9D30D
:1023900009B0F0BD00100240A4000020C20010B53A
:1023A0000348815A101840680022FEF735FD10BD21
:1023B000A4000020C20010B50348815A10184068DC
:1023C000FEF7F0FC10BD0000A400002010B50520B1
:1023D000FEF7BCFD40210D48FEF7BAFA052424079C
:1023E00001212046FEF7B4FA20212046FEF7B0FA7C
:1023F00040212046FEF7ACFA80212046FEF7A8FADD
:102400000348416B82149143416310BD00040050A6
:1024100000100240F0B5344C87B0E06A0226304329
:10242000E062E06A30400590E06A01252843E062FE
:10243000E06A28400590E06A2843E062E06A2840AC
:102440000590E06A2843E062E06A28400590E06A6F
:102450002843E062E06A0027284005904020694652
:10246000A1C16946214804970395FEF71BFB012291
:1024700040211E48FEF7D0FC00951D48052501901F
:102480002D0769462846FEF70DFB2020009069467F
:10249000049701962846FEF705FB40200090694608
:1024A000049701962846FEF7FDFA802000906946C1
:1024B000049701962846FEF7F5FA606BA1140843CD
:1024C00060630C480168FEF701FA0B4A00210948D5
:1024D000FEF736FA002211460520FEF763FD0520BF
:1024E000FEF74CFD07B0F0BD0010024000040050A4
:1024F00000001110980000209507000838B5044628
:102500004068FF2305332025984204D100920B46F2
:102510000022802107E05120005D05280DD10092A6
:102520000B4600220121204600F009F8002804D0C3
:10253000606D28436065032038BD002038BDF8B5C4
:102540001D4617460E46044609E0681C07D0FEF7F4
:10255000A7FC0699401AA8420BD2002D09D020688A
:102560008168304688432ED00020B842EDD100204B
:10257000F8BD20684168E022914341606068C11F56
:10258000FD390CD10121A068C903884202D049114C
:10259000884204D1206801684022914301600120F3
:1025A000A16A4003814207D121680A6882430A6018
:1025B00021680A6802430A600120403460740020E8
:1025C00020740320F8BD0120CFE710B5FEF76EFCA4
:1025D00010BD000030B59DB038216846FDF709FEFA
:1025E000142117A8FDF705FE24210EA8FDF701FE12
:1025F0001E4801680322D2029143C2148918016067
:10260000022000900A90400401250C9003950001DF
:10261000102100240D900B9404916846FEF7BEFF34
:10262000002800D0FEE70F2017900320189019947F
:102630001A9401211B9417A8FEF730FE002800D041
:10264000FEE70A200E90129414940EA8FEF7BAFC2E
:10265000002800D0FEE70648816B02041143816325
:10266000416B294341631DB030BD00000070004044
:10267000001002407047000070B50446406AFF2811
:1026800003D96A496A4800F0A0FFA08CC00711D0A6
:102690000125A06A6D04002806D0A84204D0634931
:1026A0006348491D00F091FF20684168A26AA94370
:1026B00011434160A08C800711D50125E06A2D04EB
:1026C000002806D0A84204D0584959480C3100F0DF
:1026D0007CFF21684868E26AA84310434860A08CE8
:1026E000400711D50125206BAD04002806D0A84273
:1026F00004D04E494E48133100F067FF206841680E
:10270000226BA94311434160A08C000711D501251C
:10271000606BED03002806D0A84204D0434944482A
:102720001A3100F052FF21684868626BA8431043D9
:102730004860A08CC00611D50125A06B2D03002890
:1027400006D0A84204D039493948213100F03DFF74
:1027500021688868A26BA84310438860A08C80061B
:1027600011D50125E06B6D03002806D0A84204D0E6
:102770002E492F48283100F028FF21688868E26B35
:10278000A84310438860A08C400639D529492068A9
:10279000884207D02849884204D0244924482F3150
:1027A00000F013FF0125206C2D05002806D0A8425B
:1027B00004D01E491E48303100F007FF21684868E8
:1027C000226CA84310434860206CA84218D103250E
:1027D000606C6D0500280DD001214905884209D0A3
:1027E0004900884206D0A84204D01049104835312B
:1027F00000F0EBFE21684868626CA8431043486013
:10280000A08C000611D50125A06CED04002806D08F
:10281000A84204D0054906483D3100F0D6FE2068A4
:102820004168A26CA9431143416070BD9A0B00003E
:1028300038C100080038014000440040F8B50026C7
:102840000446C667FEF72CFB054620680068124F59
:10285000000709D501212B46002249052046009793
:1028600000F0AAF900280DD12068006840070BD5B8
:1028700001212B46002289052046009700F09CF993
:10288000002801D00320F8BD20206067A0676034D5
:1028900026740020F8BD0000FFFFFF01F8B50446D4
:1028A0004068B84910260025884203D3B649B74886
:1028B00000F08BFE01210907A0680F14884208D0A0
:1028C000002806D0B84204D0AF49B048491C00F0F7
:1028D0007CFEAF48226841148242E06806D100289D
:1028E0001FD088421DD0A849091D17E0B8420CD05E
:1028F00000280AD003221203904206D0884204D056
:10290000AD210901A14800F060FE206A002808D02E
:102910000121C902884204D09B4909319B4800F03B
:1029200054FE206900280CD001218902884208D079
:1029300003214902884204D0934994480C3100F0A5
:1029400044FE60690C2102468A4301D1002804D16B
:102950008D498E480D3100F038FEA06900280ED058
:10296000C11FF9390BD0FF39013908D00321090201
:10297000884204D0844985480E3100F026FE0127A4
:10298000E069FF03002806D0B84204D07E497F48A2
:102990000F3100F01AFE2169A068E26908436169FD
:1029A0001143084321680A687A4B1A4002430A60BF
:1029B00021684868032212039043E268104348608C
:1029C000734A2168A069914201D0226A10438A6843
:1029D0000B231B029A4302438A606F4922686F48A7
:1029E0008A420CD1C0688007800F06D0012838D0F9
:1029F000022834D0032820D11EE001261DE06849BA
:102A00008A420AD1C0680C21084026D0042828D068
:102A1000082824D00C2810D10EE05D498A420CD140
:102A2000C16803208002014017D01015091A18D080
:102A3000091A14D0814200D1082658495148544BF4
:102A40004039401E9A4234D1002E0CD0022E0DD0B7
:102A5000042E10D0082E1DD11AE00026EDE7022624
:102A6000EBE70426E9E7FEF73DFD06E00968C90645
:102A700005D44C4803E0FEF755FD002872D062688B
:102A800051005118814205D81103814202D303E05D
:102A90003846F4E7012565E0010E060250080023E0
:102AA00030185941FDF74EFB03210902411A3E4AF5
:102AB00054E0E269BA4232D1330000F0D8F8090795
:102AC0000A0D06250606062B0600E3E7FEF70AFDBB
:102AD0001CE0FEF717FD19E008686168C00602D522
:102AE0004808324A01E0324A48088018FDF700FBE6
:102AF00080B201462F4A10399142CBD8511C014077
:102B00000007400F08432BE0FEF70CFD6168400012
:102B10004A08EAE76168012248081204E5E7330041
:102B200000F0A5F809070A0D06250606062B060083
:102B3000B0E7FEF7D7FC1CE0FEF7E4FC19E00968FB
:102B4000C906616801D54A0801E016484A0810180C
:102B5000FDF7CEFA80B20146164A1039914299D853
:102B60002168C8600020206660662846F8BDFEF730
:102B7000D9FC61684A088018EAE761684808C0190A
:102B8000E6E7000001093D00C80A000038C100085E
:102B900000480040F369FFEF003801404010024058
:102BA000004400400024F400FFFC0F0000127A00F3
:102BB0000048E801EFFF0000FFB581B017460E4660
:102BC00004460A9D09E0681C07D0FEF769F90499DC
:102BD000401AA8420CD8002D0AD02068C16930469E
:102BE000884318D00020B842EDD0002005B0F0BDD9
:102BF00020680168FF22A13291430160206881684A
:102C000049084900816020206067A0670020603487
:102C100020740320EAE70120E5E7FEE77CB51C46C7
:102C20001546491E01910090044B6A4621462846EC
:102C300000F024F9009A002111707CBDB535000820
:102C40002021020C01D010211046020A01D01046AA
:102C50000839020901D01046091F820801D0104628
:102C6000891E420801D0881E7047081A704730B488
:102C70007446641E2578641CAB4200D21D46635D19
:102C80005B00E31830BC1847002809DBC106C90EF9
:102C90000120884003490860BFF34F8FBFF36F8F57
:102CA0007047000080E100E0002805DBC106C90E86
:102CB00001208840014908607047000000E100E001
:102CC0008307FF22DB0E9A408907090E99400028EE
:102CD00008DB830809489B001B18186890430843C9
:102CE000186070470007000F0838830804489B00ED
:102CF0001B18D86990430843D861704700E400E08E
:102D000000ED00E002E008C8121F08C1002AFAD155
:102D100070477047002001E001C1121F002AFBD15B
:102D200070470000F0B51FB484B007980699020DF3
:102D3000014314D04A484B491018484305140F98D2
:102D400001280E981CD0281A401C0024464E4749E2
:102D5000009401910290002814DA474227E00F986E
:102D6000012443A3012808D0002104980F9A84600D
:102D70000360C260416009B0F0BD0E98C143F4E742
:102D80004042E2E7074612E0F80707D02246334602
:102D900001990098FDF7FEFA019100902246334612
:102DA00010461946FDF7F6FA04460E467F10002F2E
:102DB000EAD10298019B0028009A0799069802DA46
:102DC000FDF7E8FA01E0FDF7E1FB04460E460022BC
:102DD000284BFDF773FC03D80020C043014607E0F1
:102DE0000022254B20463146FDF722FAFDF746FC2E
:102DF000102409E0002C0ADB0A220023FDF7A2F9C7
:102E0000059B30321A55641E02460A43F2D1112244
:102E1000641C059B121B1C190F9B012B03D0012363
:102E200008430ED10AE0084304D011200E90002080
:102E30000F9084E70E98151A6D1E0BE00E988242D3
:102E400002DD00236D1C03E0824201DA00236D1EC7
:102E5000002BEED004980F998260C16030C08AE7E1
:102E600001FCFFFF104D0000000024400000F03F77
:102E7000300000000000F0430000E03FFFB597B0D5
:102E80000646002518E2252877D100242746FD496B
:102E9000049400E00443761C32780120203A9040EC
:102EA0000842F7D130782A280ED002223078014625
:102EB0003039092916D804990A2359433039401862
:102EC0001443761C0490F1E7189802C804911890F6
:102ED000002904DA01204003044348420490022000
:102EE0000443761C30782E2814D1042004437078D3
:102EF000761C2A2809D11898761C80C8189009E0F9
:102F00000A214F43303FC719761C307801463039CB
:102F10000929F5D930786C2810D006DC4C281AD055
:102F200068280ED06A2817D104E0742813D07A28B4
:102F300012D110E00120400504430CE001210905F5
:102F400001E0032109050C437178814203D101207E
:102F500000052418761C761C3078119066280BD05A
:102F600013DC58287DD009DC00287BD04528F6D01A
:102F70004628F4D047281AD1A5E118E0632835D0B7
:102F8000642870D0652812D19DE170286CD008DCCF
:102F90006728F1D069287BD06E280DD06F2806D124
:102FA000BAE073282ED0752871D0782859D01A9A93
:102FB000199990476D1C7EE16002400F022809D0EC
:102FC00003280DD00428189801680DD00D60001D4D
:102FD000189070E11898EA1701680D604A60F6E7EA
:102FE000189801680D80F2E70D70F0E718986A46AE
:102FF00001781172001D18900020507202A80090F4
:10300000012005E0189802C8189000200091C043E4
:1030100061070DD5002101E00199491C0191B942D8
:1030200012DA8142F8DB009A515C0029F4D10BE0FE
:10303000002101E00199491C01918142FADB019ACA
:103040000099895C0029F5D1019904981A9B471AC7
:1030500021463846199A00F097FA01994019451807
:103060000BE04FE02CE113E04EE00098009900786F
:10307000491C00911A9A199990470198401E019095
:10308000401CF2D1214638461A9B199A10E137E0CC
:103090000A200021009001916002410F022907D00F
:1030A000189A01CA1892C2179446032908D00AE058
:1030B0001898C01DC108C90005C91891944607E0B9
:1030C00000B2C2179446042902D140B2C1178C46FF
:1030D00000226146944506DA0A46002140429141A9
:1030E0008C462D2102E0210504D52B216A4611735F
:1030F000012103E0E10701D02021F7E7029155E02B
:103100000A200AE0102008E010200090002104208E
:1031100004430191082703E0082000210191009059
:103120006002410F022907D0189A01CA18920022A2
:103130009446032908D008E01898C01DC108C900AA
:1031400005C91891944603E080B2042900D1C0B2A9
:1031500000210291210729D51199702906D0009AE2
:103160001021019B4A401A4305D00EE040216A46D7
:103170001173012108E06146014306D030216A46FF
:1031800011731199517302210291009A0821019B38
:103190004A401A430AD16146014301D1610705D56E
:1031A00030216A46117301217F1E0291119958291D
:1031B00004D035A10E910DA90D910DE037A1F9E7CD
:1031C0006146019B009AFCF7BDFF0E9B8C469B5C01
:1031D0000D9A521E0D92137061460143F0D10D9865
:1031E00005A9081A20300190600703D501200004CA
:1031F000844300E001270198874201DD381A00E08E
:103200000020019900904118029809180498401A6A
:103210000490E00306D421461A9B199A049800F002
:10322000B3F94519002706E003A81A9AC05D199959
:1032300090476D1C7F1C02988742F5DBE0030CD59C
:1032400021461A9B199A049800F09EF9451904E04A
:103250001A9A3020199990476D1C0099481E0090C9
:103260000029F5DC08E00D980D990078491C0D91B6
:103270001A9A199990476D1C0199481E01900029CE
:10328000F1DC63E10928010030313233343536375F
:1032900038396162636465660000000030313233A2
:1032A0003435363738394142434445460000000042
:1032B00000F05AF94519761C3078002800D0E2E574
:1032C00028461BB0F0BD600700D406271898C01D23
:1032D000C108C90048680A680831C30FDB071891A4
:1032E000190001D09CA108E0210501D59BA104E0B3
:1032F000E10701D09AA100E09AA1430011985B0870
:10330000109165280CD006DC452809D046281DD030
:10331000472841D141E0662818D067283CD13CE0DD
:103320000021112F01DB112000E0781C0191009099
:1033300008A911A8FFF7F6FC139905910021119A2D
:1033400015927F1C12980197009150E00120C00750
:1033500003900120019008A9009711A8FFF7E2FC53
:10336000139A149905920022119B009212981593BA
:10337000059A0192002901D0104602E0791C4018FC
:103380000190381A01D5019804E04042401E009097
:10339000781C0190C01B029043E0012F00DA012746
:1033A0000021112F01DD112000E03846019100902D
:1033B00008A911A8FFF7B6FC13990591119A0021ED
:1033C000129815920091019721070CD40599B942E2
:1033D00001DB019900E00191012904DD159A491EE4
:1033E000515C302906D0B84201DA011D05DA01210D
:1033F000029115E00199491EEDE7002805DC0099CE
:10340000411800910199091A03E0019A411C914267
:1034100000DD01910099401A401C02900120C00774
:103420000390200706D402990198814202DB002014
:10343000C043029000206946C87707AF0121039876
:103440000337C907884224D0022011902B20129004
:10345000039800280CDA404203902D20129007E0D8
:103460000A210398FCF744FE30317F1E0390397027
:103470001199481E11900029F2DC03980028EFD121
:10348000791E129808703078202108404530BF1E00
:10349000387006A8C01BC01D039010980078002843
:1034A00000D00120019941180298C017091803980B
:1034B00009180498401A401E0490E00306D42146DF
:1034C0001A9B199A049800F05FF845191098007833
:1034D000002803D01A9A199990476D1CE00324D54F
:1034E00021461A9B199A049800F04EF845191CE0E1
:1034F0000098002807DB00990598884203DD15989D
:10350000405C199901E0199930201A9A9047009867
:103510006D1C401C00900298401E0290002804D1AF
:103520001A9A2E20199990476D1C0199481E0190F6
:103530000029DDDC05E038781A9A7F1C199990473C
:103540006D1C0399481E03900029F4DC21461A9B48
:10355000199A0498ACE600002D0000002B00000032
:103560002000000000000000F8B5044600251E46BB
:103570001746880404D405E039462020B0476D1C66
:10358000641EF9D52846F8BDFFB50446002581B074
:103590001E46C80301D5302700E02027880404D543
:1035A00005E038460399B0476D1C641EF9D52846DE
:1035B00005B0F0BD4A68002A06D00A68531C0B60AB
:1035C00010704868401E4860704770473EB500253F
:1035D000ED4302AB01AA0D212548009500F054FCF3
:1035E000040002D023A224A106E0029801880198D9
:1035F00000F058FC024622A122A001F013FA002C90
:1036000034D101980178902930D1407800282DD10B
:10361000174802AB01AA07212538009500F034FCB9
:10362000002802D013A214A106E002980188019894
:1036300000F038FC024612A11CA001F0F3F90C487E
:1036400002AB01AA05212A38009500F01DFC0028D4
:1036500002D008A208A106E002980188019800F0B3
:1036600021FC024606A118A001F0DCF93EBD0000D5
:1036700032000020000000004641494C00000000DC
:103680004F4B00002053656C656374204E444546E3
:10369000204170706C69636174696F6E3A202573A4
:1036A00020446174613A2025730D0A002053656C33
:1036B0006563742043433A20257320446174613A62
:1036C0002025730D0A0000002052656164204343E9
:1036D0003A20257320446174613A2025730D0A0055
:1036E000F0B587B004F086FF0125A84F6D03294689
:1036F0003846FDF71BFBA64C012817D0A548017BD7
:10370000002907D00021017301202070002903D077
:10371000A1A102E00121F6E7A0A1A1A001F082F998
:1037200029463846FDF702FB0128F9D12078052506
:10373000A24E2D0701281BD0022875D104F06EFA85
:103740001E2871D304F06AFA22286DD29048001D19
:1037500004F032FA606801780B00FFF788FA103144
:10376000667A9EE6F3D5D5D5D5F1D5F1D5D5F3D585
:10377000002201213046FDF74FFB00221021284690
:10378000FDF74AFB002202212846FDF745FB0022F7
:1037900002213846FDF740FB002201213846FDF7A3
:1037A0003BFBFF21002201312846FDF735FB0020BD
:1037B00003F0DCFD7748603804F0ACF90220B1E09A
:1037C000012211463046FDF727FB60684178012948
:1037D0000CD0202913D040291AD0602918D0017F9D
:1037E000806900F05FFB014675A005E0017F8069FC
:1037F00000F058FB01467CA001F014F984E0017F41
:10380000806900F04FFB014684A001F00BF91DE038
:10381000017F806900F046FB01468CA001F002F9AF
:10382000606800F09BFA6FE07DE0017F806900F046
:1038300039FB014690A001F0F5F80122102128463D
:10384000FDF7EAFA6068007BC0075DD0FFF7BEFEB7
:103850005AE0C178012902D10179FE2911D0017FF6
:10386000806900F01FFB01468DA001F0DBF8606865
:10387000401C00F0E7F9012202212846FDF7CCFAAE
:1038800042E0017F806900F00DFB01468DA001F050
:10389000C9F8606800F062FAEDE7027F816902A86A
:1038A000FCF780FC02A9C81D05E00A7803780B70BC
:1038B0000270401E491C8142F7D3082102A800F083
:1038C000F1FA01468AA001F0ADF801220221384642
:1038D000FDF7A2FA6168072306AD009301220220DA
:1038E000019504ABC91C05F016FF002802D08AA27E
:1038F0008AA106E004A80421013000F0D3FA0246B0
:1039000088A18BA001F08EF8002003F02FFD6068E5
:1039100000780A2805D00C2803D0FF20F530FCF7EA
:10392000C7FF0120207007B0F0BD017F806900F063
:10393000B9FA014684A001F075F8012210219CE734
:103940000EE0FFE7017F806900F0ACFA014686A037
:1039500001F068F8012211463846FDF75DFA5FE78D
:103960000A290BD08BA18DA001F05CF8606800786B
:103970000A2805D002210A2804D004E08EA1F2E72B
:103980000121F8E735462846012277E70008005074
:1039900000000020600100204F4E00004F4646000E
:1039A000546F67676C696E672057616B652055704F
:1039B000206D6F64652025730D0A0000000400501F
:1039C00049534F3134343433412F4E46432D412037
:1039D0006361726420666F756E642E205549443AA7
:1039E0002025730D0A00000049534F31343434331D
:1039F000412F546F70617A20284E46432D41205448
:103A00003154292054414720666F756E642E20552D
:103A100049443A2025730D0A000000004E464341F8
:103A200020506173736976652049534F2D4445508A
:103A30002064657669636520666F756E642E205517
:103A400049443A2025730D0A000000004E464341C8
:103A5000205061737369766520503250206465761A
:103A600069636520666F756E642E204E4643494437
:103A70003A2025730D0A000049534F313434343352
:103A8000422F4E46432D42206361726420666F755B
:103A90006E642E205549443A2025730D0A0000001B
:103AA00046656C6963612F4E46432D462063617203
:103AB0006420666F756E642E205549443A20257344
:103AC0000D0A00004E4643462050617373697665C7
:103AD000205032502064657669636520666F756E8C
:103AE000642E204E464349443A2025730D0A0000B7
:103AF00049534F31353639332F4E46432D562063C7
:103B000061726420666F756E642E205549443A20B8
:103B100025730D0A00000000000000004641494CDA
:103B2000000000004F4B20446174613A0000000027
:103B3000205265616420426C6F636B3A20257320CC
:103B400025730D0A0000000053543235544220639F
:103B500061726420666F756E642E205549443A2068
:103B600025730D0A000000004E464320416374692E
:103B70007665205032502064657669636520666FF3
:103B8000756E642E204E46434944333A2025730D0A
:103B90000A0000004E46432D460000004163746950
:103BA000766174656420696E204345202573206D1D
:103BB0006F64652E0D0A00004E46432D4100000043
:103BC000F8B504F031F800282ED11B4C00272770DF
:103BD0000125A57126462572022040363071FF204E
:103BE000E07120460A2215490930FCF7DBFA134937
:103BF000204614220A311330FCF7D4FA1420F07056
:103C00000F48A06620466030077345737D20C000D2
:103C1000A0802F206080204603F07CFF0446002017
:103C200003F0A4FB002C01D00020F8BD0348143899
:103C300005700120F8BD00000001002014000020E4
:103C4000C13C000800B599B009216A4611840121E0
:103C5000117108AA02926A46117305AA0492802380
:103C60006A461375D18218A90091392309AA01A9BE
:103C7000801C05F0EDFA002802D0074A111D06E06D
:103C800009A81021013000F00DF9024603A104A09B
:103C900000F0C8FE19B000BD183B00084F4B0000F3
:103CA00020436865636B20426C6F636B3A20257319
:103CB00020446174613A20202573200D0A00000021
:103CC0001CB5032810D00A2810D00C280BD1694647
:103CD00001A803F08BFF002004F07EFC6846017809
:103CE00004A000F09FFE1CBD0AA000E00FA000F0A1
:103CF00099FE1CBD4D756C7469706C6520546167CC
:103D0000732064657465637465643A202564200DCE
:103D10000A00000057616B65205570206D6F646567
:103D20002073746172746564200D0A0057616B65BD
:103D3000205570206D6F6465207465726D696E61C9
:103D40007465642E20506F6C6C696E6720666F72AC
:103D50002064657669636573200D0A003EB50078BE
:103D60000F2806D1002001AB02AA0146009000F006
:103D70008BF81DA000F056FE0024E44301AB02AA1C
:103D80001A211F48009400F07FF8002801D01DA0E0
:103D900027E01FA000F046FE21A000F043FE1848D7
:103DA00001AB02AA2C211A30009400F06DF8002813
:103DB000EDD117A000F036FE21A000F033FE104830
:103DC00001AB02AA02213E38009400F05DF80546DE
:103DD00026A000F027FE3220FCF76AFD002DEED071
:103DE00023A000F01FFE3EBD20496E697469616C1E
:103DF000697A6520646576696365202E2E2000004F
:103E00003F0000206661696C65642E0D0A000000A9
:103E10007375636365656465642E0D0A00000000B8
:103E20002050757368204E444546205572693A20EB
:103E30007777772E73742E636F6D202E2E200000FF
:103E4000204465766963652070726573656E742CB5
:103E5000206D61696E7461696E696E6720636F6E53
:103E60006E656374696F6E20000000002E00000014
:103E70000D0A204465766963652072656D6F76650D
:103E8000642E0D0A0000000038B5049C009403F075
:103E900095F9002805D104F0ADFB03F041F90228A3
:103EA000F9D038BDF0B51F4B1F4A1E7818A4F50194
:103EB000AA180025402901D9402104E000290FD18A
:103EC000002010701AE007786D1C3F09E75D17703D
:103ED0000778401C3F073F0FE75D5770EDB2921C1B
:103EE0004F1EBD42EFD301780909615C1170007863
:103EF0000007000F205C5070002090701878F101CE
:103F0000401C8007800F187007480818F0BD00009B
:103F100030313233343536373839414243444546FF
:103F200000000000880000208C01002010B518C897
:103F3000064A083894605360436803220348032B01
:103F400000D8D21AC2700860002010BDF000002016
:103F5000F0B500241C80402A01D20120F0BD0022CF
:103F600002260827002807D0012807D0022807D0FA
:103F7000032807D0002506E00E7005E00F7003E06F
:103F8000202500E080250D701D88001F6D1C521C2F
:103F900092B2491C1D80C0B2402AE3D32046F0BD36
:103FA000F0B500241C80042A01D20120F0BD0022BB
:103FB000022608278507AD0F06D0012D06D0022D59
:103FC00006D0032D08D105E00E7005E00F7003E068
:103FD000202500E080250D701D88521C6D1C800876
:103FE00092B2491C1D80042AE4D32046F0BD000093
:103FF000FFB58BB09C460C4600200D9B169D159A74
:1040000018990790002B01D0022600E00026199F86
:1040100000233B805F4B1B78002B0DD0A619042793
:10402000B6010597B61C16802E8881235A4F002EA4
:104030000DD040290DD30FE00427A619B60005972F
:10404000B61C2123554F1680052902D304E04129CF
:1040500002D201200FB0F0BD002C03D02A88002A24
:1040600003D010E0012616800DE06246002A0AD037
:10407000149A002A07D10B9A022612783243560866
:104080000B9A76001670179E0191002C27D0298874
:10409000002924D133701999199A0988491C118073
:1040A0000199491E89B2761C019118E00B9802AB68
:1040B000405C3146019AB84719990A8869460989CE
:1040C000521819990A8069460989019A7618511A75
:1040D00089B20191002802D12988491C29802988A8
:1040E000A14202D20028E1D052E0002850D137E0AE
:1040F0000798002813D11498002805D0621E0B9948
:1041000092B22748491C02E0224626480B9901F04A
:1041100055FB1499002900D1C04380B2079069462D
:104120000876079802AB000A4876288806A9001B83
:10413000085C3146019AB84719990A886946098985
:104140005118199A118069460989019A7618511AED
:1041500089B2019100281BD12988491C298001E0DE
:10416000A11C09910D99002907D02A8809998A4232
:10417000BED392B28A4203D00AE02988A14207D175
:10418000059931701999199A0988491C118061E7BC
:104190000D205FE7F4000020513F0008A13F000818
:1041A00012E00000FFFF0000FFB583B00D9900266C
:1041B0000C9F0E803E8003980078C006C00E172822
:1041C00002D0092007B0F0BD06980028FAD00146B9
:1041D000052500240598FCF70CF80498002860D009
:1041E000C000801E8446AC454FD900208646E808B2
:1041F00003990090085C6907490FC840C3076A1C0F
:104200000398D108405CDB0F5107490FC840C00735
:10421000800F1843012802D0022805D001E0641C59
:10422000A4B261070DD019E0E20805990192895CFA
:1042300063075B0F01229A401143059B019A995431
:10424000EDE7039A0099515C4909052906D10099C7
:1042500089184978032901D101218E46002801D00F
:10426000032809D17046002806D10E98844201D354
:104270001D2601E0641CA4B20698C000A04204D927
:104280001D2E02D07046002806D0E00838800D9818
:10429000002E048028D102E0AD1CADB2A3E7600778
:1042A00001D015208EE7388802281CD9801E82B2E2
:1042B0000F98002801D00D4800E00D48059901F045
:1042C0007DFA0F99002900D1C043059A3988921EC2
:1042D00080B28A5CC3B2934205D1020A0598401E9F
:1042E000085C824200D0152630466BE712E00000E1
:1042F000FFFF00000348002141718171C17101720B
:10430000417270479C040020F3B581B006001BD0B9
:104310000298002818D000278D4C077001252046F0
:10432000E5722038C178002901D00221E1720179BB
:10433000FF2902D0E17A491CE1726279E17A8A426E
:1043400002D322798A4201D20720FEBD804820385C
:1043500000780028F9D0012805D0022818D00328B9
:1043600016D00C20FEBD7A4820380369C168C918F0
:1043700000918169038C80788A18C007C00F801C67
:1043800000F0F8FA0028EDD17149022020390870B8
:1043900001F082FB09280DD006DC00281AD0022883
:1043A000E0D00428DED105E0152803D01B2801D079
:1043B0002828D7D166482038C17D002902D00021A5
:1043C00008464AE00078032801D1002145E0002199
:1043D000012042E03088C01DC1083180E07A864665
:1043E000814227D35A482038C28C914222D2C169D7
:1043F000024640328C46527909780092012A03D154
:104400000A0717D44A0715D4C278002A05D00B072B
:1044100010D563465B789A420CD1C7220A40F62336
:10442000C22A08D0E6220A40A22A27D0E2220A4065
:10443000022A40D08AE0F7221140F22902D0C22994
:1044400016D083E0217A1940B2290CD04772604619
:104450007146405C8106890E022000F0F9F90028BF
:1044600080D10220FEBD417A491C41728771EEE77E
:10447000007803286AD101F045FF0FE00A461A4090
:10448000A22A63D1CA078178D20F8A4208D18D430C
:104490008570807D002859D0FFF72CFF0020FEBDDD
:1044A00041794A1C4271E27F914202D287710570C4
:1044B000D7E70420FEBDCA0627D5C575029A157038
:1044C000CA078178D20F8A4200D078E78D43074629
:1044D0008570FFF70FFF0021084600F0B9F90028AA
:1044E000E8D13088E17A401A82B23280E17A60798C
:1044F000814206D0002A04D0FB6959181818FBF72E
:1045000051FEFFF7F7FE0D20FEBD0022C275CA075F
:104510008178D20F8A4215D18D4385700746318844
:104520007046081A82B23280E17A6079814206D000
:10453000002A04D0FB6959181818FBF733FE002035
:104540003870A9E70098022800D140E70B20FEBD93
:10455000BC040020FEB5BC4F002538783C4601263F
:1045600020340300FEF783FB0A06797979797919FB
:10457000467108790020FEBD0020C04300902079DC
:10458000B9693B8C0A18B878C007C00F801C00F0CE
:10459000F1F9657756E00620BBE001F07DFA0928C5
:1045A0000BD006DC002810D00228E4D00428E2D189
:1045B00003E0152801D01B28DDD1396B0020C04352
:1045C000019500910290FA6965E0386B0188C91D78
:1045D000C9080180FFF78EFEFA6910780107C90F3C
:1045E0004307DB0F491CCB18E372F97801910029CE
:1045F00035D039E0B86B07F070FB002851D0924DF0
:10460000A67740356879012813D0082001F080FD95
:10461000F968FBF76DFDC0B23B280ED2687901281E
:1046200009D0082001F074FDF968FBF761FDC1B203
:1046300004E00720EAE70720F4E73B21617202204B
:1046400000F006F9002896D1A5E701F073FC0028D8
:1046500027D001F057FE2020FEBD0C20FEBDC14337
:104660000907C917491C2177396B00910E887649D3
:10467000B44680319E4220D3734FFF8CBF1EBC4591
:104680001BD8019E002E0DD0060716D55678019F27
:10469000B74212D10BE0FF2300210433084606F095
:1046A00091F878E0060702D55678002E05D1664FBE
:1046B0003E79FF2E09D1460707D54A680020C0433E
:1046C0000195009202900A68E5E7C7210140C229DE
:1046D00006D0E62601463140E226A22932D05CE02F
:1046E000F7210840F2280CD1217A8906890F032985
:1046F00007D1D15C667AB14203D16146C91A01295A
:1047000002D0C22814D05AE0A577607F00283AD1A1
:1047100001E038703FE04D49F868FBF7E9FC704371
:10472000C108401A80B207F0D2FAB8630720F0E758
:104730009C4544D10021032000F08AF800288DD147
:104740000820E6E79C4528D1F6210140A22902D0A5
:10475000B2290FD033E0C107B878C90F81420ED01B
:10476000B97D00292BD001218143B9705EE000F0B2
:10477000DFF810E0C007B978C00F884205D1207A71
:1047800030400228F3D10920C3E70021084600F099
:104790005FF80028D3D10220FEBD01463140022936
:1047A0000DD1BE7801210B46B343C607F60FBB708F
:1047B0009E4202D1BE7D002E06D09943B9700021E1
:1047C000C9430195029166E7C0061BD5F975786B60
:1047D00001700021084600F03BF80028DCD1386B5E
:1047E000E27A0188891A8AB20280E17A6379994271
:1047F00006D0002A04D0F8694118C018FBF7D2FC93
:104800000D20FEBDFD75786B0570386BE27A01886E
:10481000891A8AB20280E17A6079814206D0002A40
:1048200004D0FB6959181818FBF7BCFC0749F86855
:10483000FBF75EFC0146C008081A80B207F047FA91
:10484000B8630720387095E69C040020F834000017
:10485000FEB500229646354AD36802931469009447
:104860001E191446463400230194238063800346B6
:10487000104684792546641CE4B2A4460446807838
:104880004034C007C00F2778A230002B09D0012B7D
:104890000DD010464078022B14D0032B2FD00C20C3
:1048A000FEBD61469171BD422FD8C0B236E061466F
:1048B0009171BD4229D8517AE278914225D21021D6
:1048C00008432BE0137A5D1C1572A278934201D93C
:1048D000FF2A02D14A1E3B2A01D30B20FEBD00282D
:1048E00008D10298012248439206904200D910460E
:1048F000009A1618F220217201218E460EE0D1791D
:104900004B1CD3716378994201D90420FEBD002865
:1049100003D12326F60203201070C220034A7346F7
:1049200048320096019900F025F8FEBD9C04002055
:1049300010B50F4AF623107A01461840A22809D074
:10494000B2280AD0F7200140C22909D0F2290AD0A2
:10495000212010BD0021084607E00021012004E0CD
:104960000021032001E0517A0220FFF771FF10BD02
:10497000BC040020F0B52A4D87B014462872002BE5
:1049800006D0EE7A511AB14202D2012007B0F0BD32
:1049900023492039CE78002E02D12E7F002E01D05F
:1049A000082630430E79FF2E01D0042738438F7D2F
:1049B000002F05D0E2270740022F01D110273843EE
:1049C000FF2E01D0541E2670CE78002E02D12D7FEE
:1049D000002D01D0641E2670641E2070101B8A8A70
:1049E000C01880B2921E824201D21820CEE7C000C9
:1049F0006A4600949080C8690290488CC0009081FB
:104A0000086B0490002005904878012805D00C9888
:104A10000690104605F0A6FDB8E70020C043F7E772
:104A2000BC0400200FB410B5C0B0FF2143AB01316E
:104A30006846429AFEF7F2F804466846FBF7E4FB44
:104A400081B2684600F022F8204640B010BC08BC95
:104A500004B0184710B504460A482060E12040021F
:104A600060600020A060E0602061A061E0610C2136
:104A70002062616160622046FDF754FB0248446099
:104A800010BD0000004400408800002010B504461E
:104A900006484068002806D07D230A46DB002146F0
:104AA000FDF7C4FB10BD262010BD000088000020CB
:104AB000FCF704FAFDF78EFDFDF73AFC00210846ED
:104AC000FBF726FEFBF76AFE2948FFF7C3FF29A084
:104AD000FFF7A8FFFFF774F8002830D02DA0FFF7EC
:104AE000A1FF00240520FDF765FC0220FDF762FC14
:104AF0000120FDF75FFC0020FDF75CFC0320FDF7C3
:104B000059FC0420FDF756FCC820FBF7D1FE641CBD
:104B1000062CE7DB0220FDF741FC0120FDF73EFCFF
:104B20000020FDF73BFC0320FDF738FC0420FDF7D7
:104B300035FC0520FDF732FCFEF7D2FDFCE71DA099
:104B4000FFF770FF0520FDF735FC0220FDF732FC72
:104B50000120FDF72FFC0020FDF72CFC0320FDF7C2
:104B600029FC0420FDF726FC6420FBF7A1FEE9E701
:104B70008C03002057656C636F6D6520746F20583F
:104B80002D4E55434C454F2D4E4643303641310D49
:104B90000A000000496E697469616C697A61746920
:104BA0006F6E207375636365656465642E2E0D0AF0
:104BB00000000000496E697469616C697A6174690A
:104BC0006F6E206661696C65642E2E0D0A00000010
:104BD0000348002181764176C17581750176704761
:104BE000540E002010B500281DD0014650220F4859
:104BF000FBF7D8FA0D48403001790E2900D90E2173
:104C000001710A49CA780E2A00D30E22CA70C278EE
:104C100092014032FE2A00D3FE22828309780129C4
:104C200002D00121017410BD0A21FBE7140E0020FF
:104C300030B5154A87B01278012A09D00624030935
:104C4000012A07D0104D092BAA6CED6C05D005E0A8
:104C50000724F4E70022D24301E04A435219092B0A
:104C600009D00023019200901A4602A9204600F0C4
:104C70002BFC07B030BD6B4659730192012303AA88
:104C800000900132F1E70000140E002010B500285A
:104C900002D005F089FD01E000F0FEFE022814D0EC
:104CA0000A4BDA6E002A10D01188C91DC90811807C
:104CB00000280AD15A6E002A07D01278914203D1F7
:104CC000032901D3FF2900D9092010BD140E0020AB
:104CD000FFB581B0039A0026014616800C20049A85
:104CE00010258A4C84461670092937D006DC002925
:104CF0003BD0022972D0042906D108E015292DD015
:104D00001B292BD01D2929D0084605B0F0BDE17D17
:104D1000481CE075032977D27C48403000680028A1
:104D200004D08047002801D00420EEE7E07C000991
:104D3000052807D0A07E411CA176032864D200215B
:104D4000802087E0607E411C617603285CD2607C15
:104D50008007800F4030284300217BE0607E411CAB
:104D600061760328F3D30920CFE7684B403B596EA7
:104D7000087800904878D52846D18878072843D10C
:104D8000CD7804276A09042A03D0022A01D06809D1
:104D90003AD15E484038C078002807D00B79052703
:104DA000834277D1680775D5012601E0680771D481
:104DB000564840380379002B07D0C85D7F1C9842C5
:104DC00068D1280766D5761C01E0280762D4022A3C
:104DD00005D0042A26D0680957D082E03EE0280991
:104DE000042857D1607CAB079B0F98420DD1401C23
:104DF0008007800F6074A07F00284BD0FFF7E8FE8B
:104E000004202074002080E711E0A27D511CA175D0
:104E1000032A3FD2401E8007800F98423AD10520D6
:104E200020741BE02809082802D0092818D031E096
:104E3000E07C000908282DD10020A076207D000903
:104E4000092805D0A17D481CA075032922D2E6E7D8
:104E5000617D9020FFF7ECFE002885D1022054E709
:104E6000CD5D217E481C20760A2913D8E07C0009FC
:104E700008280FD0681E3B280CD229469020FFF747
:104E8000D7FE0028BFD16575E8E7607CA907890FC8
:104E9000884201D00B2038E7401C8007800F6074E7
:104EA000FFF796FE0098801B001F82B203980280D5
:104EB00016484038416E6030407C8B190818C31A80
:104EC000042B05D0002A03D0361D8919FBF76AF997
:104ED0002809012807D00020E07704202074002052
:104EE0008446604611E70120E0770499087007487E
:104EF0004038406EC15D607C8007800F4030FFF716
:104F000097FE0028ABD10D20FFE60000540E0020D4
:104F1000F3B5484C70222546403D617C525D2B6EB6
:104F200085B0277C9A180393238D89072E46029318
:104F30001420890F80363B00FDF799FE110A0B0BF8
:104F40000B0A0D1D0B0B0B0B0B0A6C29540A0B00E3
:104F5000002007B0F0BDEB6CA86C0091C018019068
:104F60000620029B039900F0AFFA002801D004212B
:104F70004CE0062020740020FFF788FE0228E8D0CD
:104F8000E96E069B0988059AFFF7A2FEE1E7E86F44
:104F900006F0A3FE002804D0A878C00703D00420A0
:104FA000D7E70220D5E7207E411C21760A2801D9C7
:104FB0000B20CEE7207901250007000F29460C3091
:104FC0008140A806FBF794F83B2800D33B20C1B2F0
:104FD00061759020FFF72CFE0028BAD1B5710D2025
:104FE0002074DEE70020C043009101900720029B5F
:104FF000039900F069FA00217171B171617C491C5B
:105000008907890F6174002802D00C212174A0E760
:105010000D2020743079002802D00020307104E087
:105020000020FFF733FE022893D0069A059900F07E
:10503000B7F88EE7540E002010B51B4CC17AA1774B
:105040002146403942680A66C2684A66028922855A
:10505000028A62850A46837A60321374837C5374B1
:105060000278FF2A03D00E2A00D30E22CA704269AA
:105070008A648269CA64828BA2830978012904D078
:10508000FFF7A6FD0520207410BD0089002806D07A
:10509000054840308179002903D0012141710D205C
:1050A000F1E70F20EFE70000540E00207FB53B4DE5
:1050B0000446287C0E460B2802D0212004B070BD87
:1050C000002E0ED00020FFF7E1FD0028F6D1334A74
:1050D000C0203070403A506E01234178D42953D11A
:1050E00001E00720EAE78178042902D006293ED0B2
:1050F0004CE0C178D378994246D100793070506E37
:1051000040798007800FE87080014030FE2800D38E
:10511000FE20A883002C16D030788006410F204650
:105120004030017531784907490F4175E9780174BC
:10513000A98B4182E07BCF210840E073E9788907A1
:10514000890E0843E073906F4030017DFF2004F02A
:1051500083FE00200021C9430346024601910090CE
:1051600002A9052000F0B0F90028A7D111E0C1780C
:105170008C0709D1490704D50079D178884203D139
:1051800004E0D078002801D00B2097E70348403096
:1051900003710D202874002090E70000540E0020B9
:1051A000F7B58EB00C21009100270F9AC44D1780DF
:1051B000109A2C46791E0426403417700B280CD008
:1051C00005DC002810D0022807D111B0F0BD152849
:1051D00003D01B2801D02528F7D0E86E0196029154
:1051E0000090638D6A6E09E06A6E1078844650788C
:1051F000D42808D0E86E0196009068E000210846A7
:1052000005F0E0FA0FE1907806283BD008280BD093
:105210000A28EFD1D278E878824202D16246042A85
:105220001ED00028EED11DE0D278E878824202D16B
:105230006246042A02D00028E4D101E0002802D10D
:1052400060460328DED1002003460246019100900B
:105250000BA9092000F038F9102020742020B4E7B1
:10526000002802D160460328CCD80020034602461D
:10527000019100900BA90B2000F026F90C2020745E
:105280001F20A2E72B46D57804266809079004283A
:1052900006D0022804D0680902D00420DB6E14E096
:1052A0008748C0780290002816D0680705D4844843
:1052B0000423C06E0193009009E013790298804F97
:1052C0000526834206D0FB6E0420009301900291D4
:1052D000638D93E7012701E06807E8D478480079F7
:1052E000002808D0935D0298761C8342DFD16807BE
:1052F000DDD57F1C01E02807D9D40798022839D1D1
:10530000280904280AD00528D1D1607CAB07401EAB
:105310008007800F9B0F98422AD0C8E7607CAB07BC
:105320009B0F0290984219D1A07F0028BFD020790E
:105330000107090F01200C3188406249FAF7D8FEB5
:105340000146401CC008081A401C80B206F0BFFC91
:105350005B49C8670E202074002036E7E07C000916
:10536000082807D10298401E8007800F984201D17B
:1053700060744BE00798042808D12809082809D050
:10538000092894D1207D000909280AD068092BD06A
:1053900000981AE700218020FFF74AFC0028DCD1A2
:1053A00041E0935D607D464D834202D00420EB6E68
:1053B0008BE74349002280318A714979002925D140
:1053C00021790907090F0C3188403E49FAF790FE10
:1053D0000146401CC008081A401C80B206F077FC49
:1053E000E8670E2020741EE0607CAB079B0F98429C
:1053F0001BD0E77C3F09082F8FD1401E8007800F0C
:1054000098428AD129096074012901D00F20E9E767
:10541000915D4030FFF70CFC00289ED1607C401C61
:105420008007800F60740220CFE66046C01B0F9992
:10543000001F0880FFF7CCFB2148416E6030407CA4
:10544000CA190818821A042A07D00F9A1288002A4B
:1054500003D03F1DC919FAF7A5FE2809012818D065
:1054600020790107090F01200C3188401549FAF70E
:105470003FFE0146401CC008081A401C80B206F0DE
:1054800026FC0F49C8670E2020740020E0770090AA
:105490009BE60120E077109908700948406E815D15
:1054A000607C8007800F4030FFF7C2FB0028BBD133
:1054B000607C401C8007800F60740D2085E6000032
:1054C000140E0020F8340000FFB583B007460C9896
:1054D000154600297ED0069A002A01D0002D00D161
:1054E0004D1D5B4EFF22B774F2743246403A0021E4
:1054F0002C46D2783B00FDF7BAFB0C07073E54540C
:1055000054575752525252970A212046FAF771FEC9
:105510004F484038427C002A03D0C11D2846FAF784
:1055200041FE4B484038C178A9724179E9728079CF
:105530000D212873012F02D1307968730E21B078C4
:105540000028F0780FD08007800E801C6854491C1A
:10555000009168183E49B2782E39FAF723FEB078E8
:105560000099411803E08007800E6854491C881C8C
:10557000402859D846E00A212046FAF73AFE344836
:105580004038427C002A03D0C11D2846FAF70AFEA3
:105590002F480A214038C078641E207032E0002A6B
:1055A00030D06C1E22702DE0002A01D0042210435E
:1055B000274A403A1379002B01D008221043B27FCA
:1055C000002A03D0420901D1102210430209F074CD
:1055D000082A00E028E000D030751D4A403A002B30
:1055E00001D06C1E2370D378002B01D0641E237071
:1055F000641E2070069B002B04D19278520701D5BF
:10560000400911D0601E0770FA070FD0D522401E46
:105610000270069A2B1A9A185118B28B89B28A42D4
:1056200006D2182007B0F0BD0720FBE7D422EEE732
:105630000D9A531C00D15A1E054C0423403CE56EC4
:10564000009501930292738D626E05F0BBF8E9E755
:10565000540E0020FEB50A9F099D0B9C9C4606280F
:105660001BD0072819D00E4E3346403375665F8530
:10567000F466002908D00023009301926246089B3B
:10568000FFF722FF002807D10120FFF7FFFA0028CB
:1056900002D1287820800020FEBD0720FEBD00003A
:1056A000140E0020054804490160054909888180DD
:1056B0000121817170470000EEBC0008E800002065
:1056C00086BF0008F0B5194C226894464204520E79
:1056D0000BD0034602070BD002461343144A134370
:1056E0000207120F042A05D005E0114BF13BF1E748
:1056F0000F22F2E70F4B0A88A58812E06446A4182F
:105700006678277836023E4376BA1E40864203D139
:10571000D21C0A80A078F0BDA478A400A218D21CE4
:1057200092B29542EAD8FF20F0BD0000E8000020C8
:10573000F0800000FFFF000008B50948007800284D
:105740000BD0002280212C2005F012FE002802D070
:10575000684605F041FD002008BD212008BD00007D
:105760000810002070B5044615460E46C0B205F07C
:1057700033FF002805D0E0B22A46314605F07FFD10
:1057800070BD072070BD10B5C0B205F07DFD0020D2
:1057900010BD000010B5E021052005F027FE08210E
:1057A0000C2006F0BAF80448002181644164006DC1
:1057B000002800D0804710BD0810002030B500231D
:1057C0000DE0CC5C444025016540ECB2000A2502A6
:1057D0006840E5006840240960405B1C9BB293422E
:1057E000EFD330BD70B500F02BF80F4C0546607854
:1057F000012817D1608B1B2801D0152812D100F089
:105800002DF800280ED02946606A05F0D9FFE06A1D
:10581000002803D000F00AF8E16A0880282060839D
:105820005A20207670BD00000810002010B500F04E
:1058300021F80248C07F0007400F10BD281000204B
:1058400010B500F017F80448C17F807F89098901ED
:105850008900084310BD00002810002010B500F09A
:1058600009F80348C07F0007400F00D0012010BD99
:105870002810002010B50548C07FFF2805D1034936
:1058800002221E311E2005F0AEFF10BD28100020A0
:10589000FFB5424B89B01C78022C02D35C78062CF1
:1058A00002D021200DB0F0BD002705466E463773AB
:1058B000080A7073B173F273357438483C46C07986
:1058C00006900526022004F0DFFB0321A8038903CC
:1058D000401807AA0092314A0021019102909632A5
:1058E0001423314603A8059204F06CFF060030D162
:1058F00004F05AFF0646042811D0D12005F093FD8C
:10590000D52005F090FD002E0BD07F1CFFB20022A9
:105910000221242005F02CFD00280CD012E00120EB
:1059200010E0641CE4B21420214641431B480918CE
:1059300096314162EBE7194902224A8303220A7039
:1059400051220A7629466D1EEDB2002901D00028A9
:10595000CED0069804F098FB0C9800280FD012982F
:1059600000280CD0002C0AD0A04201D2024600E050
:1059700022461420424305990C98FAF713FC139819
:10598000002800D004701498002800D00770274326
:1059900001D0002086E7304684E700000810002090
:1059A00010B5084C207E002801D0FFF7F3FE4821F7
:1059B000022005F01BFD032004F008FA00202071EE
:1059C00010BD00000810002070B580221146022092
:1059D00005F0CEFC002812D01F4C207800280ED0F5
:1059E0000025022004F0F2F908221146022005F0F9
:1059F000BFFC002805D02079002802D01DE021201E
:105A000070BD0021552006F09DF8FF22237D114630
:105A1000C82005F089FE0546207D0822401C80072D
:105A2000800F20751146022005F0A2FC207100288D
:105A300003D04821022005F070FFA068002809D09B
:105A40000649884200D80846FAF752FB80B206F0B1
:105A50003EF92064284670BD08100020F83400008C
:105A6000094A1378002B0CD05378002B09D000285A
:105A700001D093780370002901D0D07808700020FD
:105A8000704721207047000008100020014800697D
:105A900070470000081000200348017E002901D053
:105AA00002207047408B704708100020F0B5044674
:105AB00051480D4601788DB01F461646022902D383
:105AC0004078012802D021200DB0F0BD002C4ED02E
:105AD000002D4CD0002E4AD0002F48D0FF2004309B
