:020000040800F2
:10000000E0060020490100087D1D0008451B00088E
:10001000791D00084903000865230008000000005E
:10002000000000000000000000000000092000089F
:10003000F903000800000000771E000829200008CE
:100040006301000863010008630100086301000800
:1000500063010008630100086301000863010008F0
:1000600063010008630100086301000863010008E0
:1000700063010008630100086301000863010008D0
:1000800063010008630100086301000863010008C0
:1000900063010008630100086301000863010008B0
:1000A00063010008630100086301000863010008A0
:1000B0006301000863010008630100086301000890
:1000C0006301000863010008630100086301000880
:1000D000630100085523000863010008630100085C
:1000E000FB030008630100086301000863010008C6
:1000F0006301000863010008630100086301000850
:10010000630100086301000863010008630100083F
:10011000630100086301000863010008630100082F
:10012000630100086301000863010008630100081F
:10013000DFF810D000F080F800480047692B000875
:10014000AFF30080E00600200648804706480047DD
:10015000FEE7FEE7FEE7FEE7FEE7FEE7FEE7FEE777
:10016000FEE7FEE79720000831010008202A04DBA3
:10017000203A21FA02F00021704721FA02F3D04020
:10018000C2F12002914008431946704740EA01033A
:100190009B0703D009E008C9121F08C0042AFAD23D
:1001A00003E011F8013B00F8013B521EF9D2704701
:1001B000D2B201E000F8012B491EFBD270470022A9
:1001C000F6E710B513460A4604461946FFF7F0FF56
:1001D000204610BD2DE9F05F0546002092469B4663
:1001E00088460646814640241BE02846414647464D
:1001F0002246FFF7BBFF53465A46C01A914110D31F
:1002000011461846224600F029F82D1A67EB01081E
:100210004F4622460120002100F020F817EB00098C
:100220004E41201EA4F10104DFDC484631462A4637
:100230004346BDE8F09F0000064C074D06E0E0682D
:1002400040F0010394E8070098471034AC42F6D31D
:10025000FFF772FFE82D0008082E0008202A04DBB3
:10026000203A00FA02F1002070479140C2F12003C9
:1002700020FA03F319439040704700001CB505A114
:1002800003C9CDE900010549684602F0B3FB00202F
:100290001CBD000009043A00580400003000002092
:1002A0002DE9F04389B006460F464FF004094FF0A0
:1002B00006080C2521A103C9CDE9070100200490FF
:1002C00005900690009001900290039060208DF8B8
:1002D0001000F8B28DF81100002406E007A8015DB7
:1002E00004AAA01C1154601CC4B24445F6DB0024CF
:1002F00006E0315DA01C404404AA1154601CC4B245
:10030000AC42F6DB04208DF80000681CC0B28DF80A
:1003100001000498CDF802000598CDF80600069873
:10032000CDF80A002821A81C0DF8001005496846E0
:1003300002F060FB09B0BDE8F0830000FFFFFFFFA3
:10034000FFFF00003000002000BFFEE710B58EB0B8
:100350000CA000680D900D2109A8FFF730FF0A4896
:10036000006808901A2101A8FFF729FF0648001D20
:1003700000680090002469460DA802F03BFB0020B5
:100380000EB010BD01000000A82D000838B55520A2
:1003900000900A2402F010FB02F0CCFA01221103B3
:1003A000134800F0D9FA012000F004F900224FF4BC
:1003B00080510F4800F0D0FA012000F0FBF800BF98
:1003C0000C49684602F016FB0A2000F0F3F8601EA4
:1003D00084B21CB1074800785528F1D101221103DD
:1003E000034800F0B9FA012000F0E4F8002038BD1D
:1003F000000C014030000020704710B54FF4006041
:1004000000F0F2F810BD72B600BFFEE770B504460A
:10041000002594F82100022803D00420A0630125C0
:10042000C1E02068006820F00E00216808602068A4
:10043000006820F00100216808605C49206888425B
:1004400052D95A4978392068884201D1012047E0C1
:10045000564964392068884201D1102040E0534950
:1004600050392068884201D1801539E04F493C3924
:100470002068884201D1801432E04C492839206834
:10048000884202D14FF480302AE04849143920686C
:10049000884202D14FF4801022E04449206888420B
:1004A00001D140041CE042492068884201D101206A
:1004B00016E03F4914312068884201D110200FE036
:1004C0003B4928312068884201D1801508E038492D
:1004D0003C312068884201D1801401E04FF4803023
:1004E0003349091F086051E0304978392068884253
:1004F00001D1012047E02D4964392068884201D1AB
:10050000102040E0294950392068884201D18015E7
:1005100039E026493C392068884201D1801432E014
:10052000224928392068884202D14FF480302AE0DD
:100530001E4914392068884202D14FF4801022E00D
:100540001A492068884201D140041CE018492068FB
:10055000884201D1012016E01549143120688842F3
:1005600001D110200FE0124928312068884201D1C2
:10057000801508E00E493C312068884201D1801482
:1005800001E04FF48030094980394860012084F847
:10059000210000BF002084F8200000BF606B10B174
:1005A0002046616B8847284670BD000080000240ED
:1005B0000804024070B5044600F0D4F9064625460A
:1005C000681C10B104480078054400BF00F0CAF967
:1005D000801BA842FAD370BD240000200121014AEB
:1005E000117070471800002010B5044604480068D8
:1005F000204020B1024804602046FFF7EFFF10BD05
:10060000140401402DE9F847024600239C467BE193
:100610004FF0010808FA03F4D1F8008008EA04005A
:10062000A0427DD1DFF8F4A2D1F80480A8EB0A093A
:10063000D0453AD014DCB8F1030F50D009DCB8F142
:10064000000F31D0B8F1010F1CD0B8F1020F49D121
:1006500020E0B8F1110F18D0B8F1120F42D11EE00E
:10066000B9F5881F25D006DCB9F5803F20D0B9F553
:10067000801F37D11AE0B9F5001F18D0B9F5041F53
:1006800030D117E0D1F80CC02DE0D1F80C8008F182
:10069000040C28E0D1F80C8008F1080C23E0D1F814
:1006A0000C8008F10C0C1EE000BF00BF00BF00BFB3
:1006B00000BF00BFD1F80880B8F1000F02D14FF0A1
:1006C000040C0BE0D1F80880B8F1010F03D14FF012
:1006D000080C146102E04FF0080C546103E04FF085
:1006E000000C00E000BF00BFFF2801D8904601E0E9
:1006F00002F104084646FF2802D84FEA830803E0C7
:10070000A3F108084FEA88084746D6F800804FF062
:100710000F0909FA07F928EA09080CFA07F900E0B5
:100720007AE048EA0908C6F80080D1F8048008F0A9
:100730008058B8F1805F6FD100BFDFF8E481D8F84E
:10074000188048F00108DFF8D891C9F81880C84629
:10075000D8F8188008F00108CDF8008000BF00BF6D
:100760004FEAB9384FEA930958F829504FEA83788D
:100770004FEA18794FF00F0808FA09F825EA08053A
:10078000DFF8A081424502D14FF0000824E0DFF8F5
:100790009881424502D14FF001081DE0DFF88C81BD
:1007A000424502D14FF0020816E0DFF8848142454D
:1007B00002D14FF003080FE0DFF87881424502D103
:1007C0004FF0040808E0DFF87081424502D14FF095
:1007D000050801E04FF006084FEA83794FEA1979DE
:1007E00008FA09F848EA0505DFF850814FEA93094D
:1007F00048F82950D1F8048008F48038B8F5803FD3
:100800000BD1DFF83C81D8F8008048EA0008DFF817
:100810003091C9F800800AE075E0DFF82481D8F84B
:10082000008028EA0008DFF81891C9F80080D1F8A4
:10083000048008F40038B8F5003F0ED1DFF80081DD
:1008400008F10408D8F8008048EA0008DFF8F090C2
:1008500009F10409C9F800800DE0DFF8E48008F12F
:100860000408D8F8008028EA0008DFF8D49009F1DD
:100870000409C9F80080D1F8048008F48018B8F59C
:10088000801F0ED1DFF8B88008F10808D8F8008082
:1008900048EA0008DFF8A89009F10809C9F80080C3
:1008A0000DE0DFF89C8008F10808D8F8008028EAFD
:1008B0000008DFF88C9009F10809C9F80080D1F828
:1008C000048008F40018B8F5001F0ED1DFF870801E
:1008D00008F10C08D8F8008048EA0008DFF86090BA
:1008E00009F10C09C9F800800DE0DFF8548008F127
:1008F0000C08D8F8008028EA0008DFF8449009F1D5
:100900000C09C9F800805B1CD1F8008028FA03F8B4
:10091000B8F1000F7FF47CAEBDE8F887000011103D
:100920000010024000080140000C0140001001408E
:100930000014014000180140001C01400800014063
:100940000004014010B5C26821EA020302EA010472
:1009500043EA0443036110BD0AB1016101E00B04E5
:100960000361704701480068704700001C000020C8
:100970000348006803490978084401490860704742
:100980001C0000202400002010B50848006840F03A
:10099000100006490860032000F0ACF8002000F0C9
:1009A00007F800F02BF8002010BD000000200240E6
:1009B00070B504460E4800784FF47A71B1FBF0F040
:1009C0000C490968B1FBF0F5284600F0C1FE08B1FA
:1009D000012070BD102C07D200222146501E00F0CD
:1009E0004BF80548046001E00120F2E70020F0E741
:1009F00024000020280000202000002008B500BFAF
:100A00001348806940F001001149886108468069F7
:100A100000F00100009000BF00BF00BF0846C069A1
:100A200040F08050C8610846C06900F080500090D6
:100A300000BF00BF052000F05DF800BF0549486811
:100A400020F0E06040F00070486000BF08BD00008A
:100A5000001002400000014001460846002809DB62
:100A600000F01F0301229A4043099B0003F1E02399
:100A7000C3F8002100BF70472DE9F05F80460D46A6
:100A80001646002701F080FC074639462A463346C1
:100A900001F00700C0F1070ABAF1040F02D94FF0C4
:100AA000040A01E0C0F1070AD14600F1040ABAF1D4
:100AB000070F02D24FF0000A01E0A0F1030AD4466A
:100AC0004FF0010A0AFA09FAAAF1010A0AEA020A2F
:100AD0000AFA0CFA4FF0010B0BFA0CFBABF1010B0D
:100AE0000BEA030B4AEA0B042146404601F054FC92
:100AF000BDE8F09F00BF00F00702064B19684FF6F3
:100B0000FF031940044B0B4343EA0221014B1960D8
:100B100000BF70470CED00E00000FA0500BF00BF09
:100B200000BF00BF00BFBFF34F8F00BF00BF00BFBB
:100B30000948006800F4E06008490843001D0649C0
:100B4000086000BF00BF00BFBFF34F8F00BF00BFF2
:100B500000BF00BF00BFFDE70CED00E00000FA059C
:100B600070B504460D460CB9012070BD5A480068A6
:100B700000F00700A8420ED25748006820F0070096
:100B80002843554908600846006800F00700A8425D
:100B900001D00120E9E7207800F0020002281DD1F1
:100BA000207800F00400042805D14C48406840F447
:100BB000E0604A494860207800F00800082805D124
:100BC0004648406840F460504449486043484068A3
:100BD00020F0F000A168084340494860207800F008
:100BE000010078B36068012806D13C48006800F431
:100BF000003090B90120B8E76068022806D1374874
:100C0000006800F0007040B90120AEE7334800688A
:100C100000F0020008B90120A7E73048406820F042
:100C20000300616808432D494860FFF79BFE0646B4
:100C300009E0FFF797FE801B41F28831884202D914
:100C4000032092E707E02548406800F00C00616847
:100C5000B0EB810FEDD12048006800F00700A842FA
:100C60000ED91D48006820F0070028431A49086083
:100C70000846006800F00700A84201D0012074E790
:100C8000207800F00400042807D11448406820F4BC
:100C9000E060E168084311494860207800F00800EE
:100CA000082808D10D48406820F46050216940EAC6
:100CB000C1000A49486000F03FF808494968C1F39B
:100CC0000311074A515CC84006490860064800689D
:100CD000FFF76EFE002048E70020024000100240AF
:100CE000D02D0008280000202000002001480068C6
:100CF000704700002800002000B5FFF7F7FF044907
:100D00004968C1F30221034A515CC84000BD00009C
:100D100000100240E02D000800B5FFF7E7FF04498E
:100D20004968C1F3C221034A515CC84000BD0000BC
:100D300000100240E02D0008F0B585B00FF26C0CF9
:100D40009CE8E01001A8A0E8E0101CA52D68009523
:100D500000210022002300240020194D696801F0C1
:100D60000C05F5B1042D02D0082D19D101E015486C
:100D700019E001ADC1F38346AC5D01F4803555B196
:100D80000F4D6D68C5F340451DF805200D4D6543B9
:100D9000B5FBF2F302E00C4D04FB05F3184602E04C
:100DA00000BF084800BF00BF05B0F0BD0203040546
:100DB000060708090A0B0C0D0E0F101001020000A7
:100DC0000010024000127A0000093D00F8B5044608
:100DD0000CB90120F8BD207800F00100002878D07F
:100DE000F848406800F00C0004280CD0F548406832
:100DF00000F00C00082811D1F248406800F480305F
:100E0000B0F5803F0AD1EF48006800F400300028B8
:100E10005FD0606800285CD10120DBE700BF60681C
:100E2000B0F5803F06D1E748006840F48030E549DE
:100E3000086028E0606858B9E248006820F4803013
:100E4000E04908600846006820F4802008601AE045
:100E50006068B0F5A02F0BD1DA48006840F480201C
:100E6000D84908600846006840F4803008600AE00D
:100E7000D448006820F48030D249086008460068F1
:100E800020F48020086000BF606888B1FFF76AFD29
:100E9000054606E0FFF766FD401B642801D90320E4
:100EA00098E7C848006800F400300028F2D010E04D
:100EB000FFF758FD054606E0FFF754FD401B642888
:100EC00001D9032086E7BF48006800F400300028FD
:100ED000F2D1207800F00200022857D1B9484068CA
:100EE00000F00C0050B1B748406800F00C00082832
:100EF00018D1B448406800F4803098B9B14800680F
:100F000000F0020020B12069012801D0012061E732
:100F1000AC48006820F0F800616940EAC100A949C6
:100F2000086033E02069E8B10120A7490860FFF7B5
:100F300019FD054606E0FFF715FD401B022801D903
:100F4000032047E79F48006800F002000028F2D025
:100F50009C48006820F0F800616940EAC1009949A6
:100F6000086013E0002098490860FFF7FBFC054685
:100F700006E0FFF7F7FC401B022801D9032029E710
:100F80009048006800F002000028F2D1207800F0BC
:100F9000080008282DD1A069B8B101208B4908604C
:100FA000FFF7E0FC054606E0FFF7DCFC401B0228EB
:100FB00001D903200EE78348406A00F002000028B0
:100FC000F2D0012000F058FF13E000207F490860B4
:100FD000FFF7C8FC054606E0FFF7C4FC401B0228EB
:100FE00001D90320F6E67748406A00F002000028A5
:100FF000F2D1207800F00400042873D10027714852
:10100000C06900F0805070B900BF6E48C06940F000
:1010100080506C49C8610846C06900F0805000905B
:1010200000BF00BF01276A48006800F48070B0B9B3
:101030006748006840F4807065490860FFF792FCDB
:10104000054606E0FFF78EFC401B642801D903200B
:10105000C0E65F48006800F480700028F2D000BF4E
:10106000E068012806D15748006A40F00100554960
:10107000086227E0E06858B95248006A20F0010091
:10108000504908620846006A20F00400086219E02E
:10109000E06805280BD14B48006A40F0040049493C
:1010A00008620846006A40F0010008620AE045480C
:1010B000006A20F00100434908620846006A20F0F7
:1010C0000400086200BFE068A0B1FFF74BFC0546D2
:1010D00009E0FFF747FC401B41F28831884202D902
:1010E000032077E622E03748006A00F0020000287B
:1010F000EFD012E0FFF736FC054608E0FFF732FCC0
:10110000401B41F28831884201D9032062E62D4814
:10111000006A00F002000028F0D1012F05D1294813
:10112000C06920F080502749C86100BFE069C8B39A
:101130002448406800F00C00082860D0E0690228CC
:1011400048D1002020490866FFF70CFC054606E060
:10115000FFF708FC401B022801D903203AE6194892
:10116000006800F000700028F2D1206AB0F5803FDE
:1011700007D11448406820F40030A16808431149A1
:101180004860D4E9080108430E49496821F4741104
:1011900008430C49486001200B490866FFF7E2FB51
:1011A000054607E03DE0FFF7DDFB401B022801D9C3
:1011B00003200FE60348006800F000700028F2D01A
:1011C0002FE0000000100240000042428004424232
:1011D00000700040002014490866FFF7C3FB054675
:1011E00006E0FFF7BFFB401B022801D90320F1E511
:1011F0000E48006800F000700028F2D111E0E069AC
:10120000012800D1E6E50948466806F48031206AE5
:10121000814204D106F47011606A814201D001203C
:10122000D8E50020D6E50000000042420010024050
:1012300010B504460CB9012010BD606A38B9606869
:10124000B0F5827F00D105E00021E16102E00021DC
:10125000216161610021A16294F8510028B9002048
:1012600084F85000204600F043F8022084F8510032
:101270002068006820F0400021680860A08800F421
:101280008270218901F404410843A18901F40061BD
:101290000843217C01F002010843217D01F0010196
:1012A0000843218B01F400710843217F01F03801CC
:1012B00008432021095D01F080010843218D01F4DC
:1012C00000510843216808600421A06901EA104028
:1012D000216848602068C06920F400602168C86106
:1012E00000206065012084F851000020A4E7000080
:1012F00010B586B00446002002900390049005903B
:101300001A49206888422FD100BF1948C06940F4AB
:1013100080401749C8610846C06900F480400190C8
:1013200000BF00BF00BF0846806940F00800886128
:101330000846806900F00800019000BF00BF4FF42C
:1013400020400290022003900320059002A9094842
:10135000FFF758F94FF4804002900020039004906A
:1013600002A90448FFF74EF906B010BD003800404E
:1013700000100240000C01402DE9F84F0446884659
:1013800016461D464FF0000A00BF94F85000012891
:1013900002D10220BDE8F88F012084F8500000BF80
:1013A000FFF7E0FA0746B14694F85100012802D051
:1013B0004FF0020AADE0B8F1000F00D016B94FF0BF
:1013C000010AA6E0032084F8510000206065C4F8FB
:1013D0003080A686E686A063A087E08760642064EC
:1013E000A068B0F5004F0BD12068006820F04000E5
:1013F000216808602068006840F480402168086027
:101400002068006800F04000402805D0206800688F
:1014100040F0400021680860E068B0F5006F2FD10F
:10142000606810B1B9F1010F09D1206B0088216803
:10143000C860206B801C2063E08E401EE0861BE0AD
:101440002068806800F0020002280AD1206B008822
:101450002168C860206B801C2063E08E401EE086FF
:101460000AE0FFF77FFAC01BA84201D3681C00B94D
:1014700015B94FF0030A4CE0E08E0028E0D12EE0D1
:10148000606810B1B9F1010F09D1206B00782168B3
:101490000873206B401C2063E08E401EE0861BE03A
:1014A0002068806800F0020002280AD1206B0078D2
:1014B00021680873206B401C2063E08E401EE0868C
:1014C0000AE0FFF74FFAC01BA84201D3681C00B91D
:1014D00015B94FF0030A1CE0E08E0028E0D13A462F
:1014E0002946204600F0F0FC08B120206065A06885
:1014F00050B900BF002000902068C06800902068AC
:101500008068009000BF00BF606D08B14FF0010A15
:1015100000BF012084F8510000BF002084F8500073
:1015200000BF504636E72DE9FF5F044688469146E6
:101530001D460E9E012002900020019000BF94F8ED
:101540005000012803D1022004B0BDE8F09F012023
:1015500084F8500000BFFFF705FA074694F851B031
:1015600060680390AA46BBF1010F0BD00398B0F559
:10157000827F04D1A06810B9BBF1040F02D0022011
:101580000190DBE0B8F1000F03D0B9F1000F00D0FB
:1015900015B901200190D1E094F85100042802D03F
:1015A000052084F8510000206065C4F83890E58774
:1015B000A587C4F83080E586A5862064606420682D
:1015C000006800F04000402805D02068006840F026
:1015D000400021680860E068B0F5006F4AD160689B
:1015E00010B1BAF1010F09D1206B00882168C860E1
:1015F000206B801C2063E08E401EE08633E0206874
:10160000806800F00200022810D1E08E70B10298CC
:1016100001280BD1206B00882168C860206B801CDA
:101620002063E08E401EE0860020029020688068E3
:1016300000F0010068B1E08F58B12068C068A16B6C
:101640000880A06B801CA063E08F401EE087012013
:101650000290FFF787F9C01BB04204D3701C10B191
:10166000032001906AE0E08E0028C8D1E08F0028B6
:10167000C5D14AE0606810B1BAF1010F09D1206B01
:10168000007821680873206B401C2063E08E401EA8
:10169000E08634E02068806800F00200022810D163
:1016A000E08E70B1029801280BD1206B0078216880
:1016B0000873206B401C2063E08E401EE0860020F3
:1016C00002902068806800F0010068B1E08F58B196
:1016D0002068C068A16B0870A06B401CA063E08FFD
:1016E000401EE08701200290FFF73CF9C01BB0428A
:1016F00001D3701C00B916B9032001901EE0E08EE2
:101700000028C7D1E08F0028C4D13A463146204690
:1017100000F0DAFB20B101200190202060650DE08F
:10172000A06850B900BF002000902068C0680090F9
:1017300020688068009000BF00BF00BF012084F8CF
:10174000510000BF002084F8500000BF0198FBE664
:1017500070B504462546681EB0F1807F01D3012094
:101760000FE0681E4FF0E02148610F214FF0FF307D
:1017700000F012FE00204FF0E02188610720086190
:10178000002070BD704700002DE9F0470446206836
:1017900005682068C668206847694FF00008C146A0
:1017A00005F00F08B8F1000F0AD105F0200038B19C
:1017B00006F0200020B1204600F098FCBDE8F0873C
:1017C000B8F1000F71D007F0010018B906F490705D
:1017D00000286AD005F0010030B106F4807018B11D
:1017E000E06B40F00100E06305F0040030B107F069
:1017F000010018B1E06B40F00200E06305F0020068
:1018000030B107F0010018B1E06B40F00400E06374
:1018100005F0080048B106F0200010B907F00100FB
:1018200018B1E06B40F00800E063E06B68B305F0CE
:10183000200028B106F0200010B1204600F056FC30
:1018400020684069C0F38019E06B00F0080010B90F
:10185000B9F1000F22D0204600F028FC2068406932
:1018600000F04000B0B12068406920F040002168DD
:101870004861606B50B11848616B4863606BFEF75C
:10188000C5FD10B1606B416B88470CE02046FFF747
:1018900079FF08E02046FFF775FF04E02046FFF7D8
:1018A00071FF0020E06389E7FFE705F0800030B1B9
:1018B00006F0800018B1204600F0E6FC7EE705F057
:1018C000400030B106F0400018B1204600F0FEFBA9
:1018D00074E700BF72E700009920000810B50446C5
:1018E0000CB9012010BDA06900B100E000BF94F860
:1018F000390028B9002084F83800204600F028F884
:10190000242084F839002068C06820F40050216841
:10191000C860204600F03AFC2068006920F490403E
:10192000216808612068406920F02A002168486128
:101930002068C06840F400502168C8600020E0635F
:10194000202084F8390084F83A000020CAE700001B
:1019500010B586B0044600200290039004900590D4
:101960001E492068884236D100BF1D48806940F476
:1019700080401B4988610846806900F480400190DE
:1019800000BF00BF00BF0846806940F004008861C6
:101990000846806900F00400019000BF00BF4815B0
:1019A0000290022003900320059002A90D48FEF743
:1019B00029FE4FF48060029000200390049002A959
:1019C0000848FEF71FFE012211462520FFF754F8B4
:1019D0002520FFF741F806B010BD00000038014097
:1019E000001002400008014010B5034693F83A0089
:1019F00020282FD101B10AB9012010BD00BF93F8F2
:101A00003800012801D10220F7E7012083F83800CF
:101A100000BF99629A85DA850020D863222083F876
:101A20003A0000BF002083F8380000BF1868C06883
:101A300040F480701C68E0601868406940F0010064
:101A40001C6860611868C06840F020001C68E06095
:101A50000020D2E70220D0E710B504460122024957
:101A60000248FFF7C1FF10BD140000209C020020B7
:101A70002DE9F84F04460E46174699464FF0000AE6
:101A800094F8390020285AD106B117B90120BDE8D1
:101A9000F88F00BF94F83800012801D10220F6E742
:101AA000012084F8380000BF0020E063212084F882
:101AB0003900FEF757FF8246A784E784A068B0F597
:101AC000805F04D1206910B90025B04602E0354698
:101AD0004FF0000800BF002084F8380000BF1BE072
:101AE0005346002280212046CDF8009000F0FCFBF8
:101AF00008B10320CBE745B9B8F80000C0F30800EF
:101B00002168486008F1020803E0287821684860ED
:101B10006D1CE08C401EE084E08C0028E0D1534630
:101B2000002240212046CDF8009000F0DDFB08B1F6
:101B30000320ACE7202084F839000020A7E702202A
:101B4000A5E7704700BFFEE71CB5044608A103C91E
:101B5000CDE900010849684600F04CFF28B9064865
:101B6000D0F8021021608079207100201CBD000097
:101B700004039320080000003000002008B504A0F2
:101B8000006800900349684600F034FF002008BD5B
:101B9000040226073000002030B585B00546052434
:101BA00004208DF80000E01C8DF8010093208DF8D2
:101BB000020070208DF803002246294601A8FEF796
:101BC000E5FA2821201D0DF800100349684600F0B1
:101BD00011FF002005B030BD3000002000B585B0F9
:101BE0000020019002900390049000BF3E4880695D
:101BF00040F020003C4988610846806900F02000E0
:101C0000009000BF00BF00BF0846806940F0100090
:101C100088610846806900F01000009000BF00BF96
:101C200000BF0846806940F0080088610846806966
:101C300000F00800009000BF00BF00BF08468069A8
:101C400040F0040088610846806900F004000090BC
:101C500000BF00BF00220F212448FEF77DFE0122B5
:101C60004FF4A0512248FEF777FE012291021F484F
:101C7000FEF772FE0F2001900120029002200390D7
:101C80000320049001A91948FEF7BCFC4FF4A050B2
:101C900001900120029003900320049001A91448B0
:101CA000FEF7B0FC4FF40060019012480290002053
:101CB000039001A90E48FEF7A5FC4FF48060019047
:101CC0000120029003900320049001A90748FEF729
:101CD00099FC002201212820FEF7CEFE2820FEF7E5
:101CE000BBFE05B000BD0000001002400010014026
:101CF000000C01400000211010B50F480F4908608A
:101D00004FF48270486000210C488160C16002215C
:101D1000016101214161490281613021C1610021DC
:101D20000162416281620A21C162FFF781FA08B152
:101D3000FEF769FB10BD000000380040440200209F
:101D400010B50B480B4908604FF4E13048600021A2
:101D500008488160C16001610C21416100218161FD
:101D6000C161FFF7BBFD08B1FEF74DFB10BD0000E0
:101D7000003801409C02002000BFFEE700BFFEE7E4
:101D800002460878212801D123207047072A54D021
:101D900006DC012A11D0022A15D0042A69D121E0DB
:101DA000082A55D0092A5ED0552A62D108785528CC
:101DB00001D10020E9E72120E7E7087808B90020F1
:101DC000E3E72120E1E7087820B1822804D08328C6
:101DD00006D103E00020D8E72120D6E72120D4E770
:101DE0002120D2E708788038112824D2DFE800F0DB
:101DF00009232323232311131517191B1D1F212327
:101E00000F00487808B10020BFE72120BDE700207F
:101E1000BBE72120B9E72120B7E72120B5E7212042
:101E2000B3E72120B1E72120AFE72120ADE7212052
:101E3000ABE72120A9E72120A7E7087810B1822885
:101E400004D101E00020A0E721209EE721209CE7AB
:101E5000087810B1822804D101E0002095E7212004
:101E600093E7212091E7087808B900208DE7212029
:101E70008BE7012089E7704708B508490968C90858
:101E80004FF47A72B1FBF2F14143009100BF00BF01
:101E900000994A1E00920029F9D108BD28000020AF
:101EA0001FB50446064B0FCB8DE80F008DF803409D
:101EB0000449684600F09EFD002004B010BD0000FB
:101EC000B02D000830000020F8B504460D46164637
:101ED0002B46002280212046009600F029F828B1E8
:101EE000606D40F0200060650320F8BD0020FCE735
:101EF0002DE9F84380460E4617461D460024B5F5E9
:101F0000047F02DD4FF4047000E0284605460024FB
:101F100009E0FF203A193119012300904046FFF7EC
:101F200002FB601C84B2AC42F3DBBDE8F883000026
:101F30002DE9F84F04460D4690461E46DDF82890E0
:101F4000FEF710FDA0EB0900371AFEF70BFD8246E5
:101F50002C480068C0F3CB307843009045E0701CFB
:101F6000002842D0FEF7FEFCA0EB0A00B84200D2E7
:101F7000A7BB2068406820F0E000216848606068E6
:101F8000B0F5827F0DD1A068B0F5004F03D0A068F6
:101F9000B0F5806F05D12068006820F0400021680E
:101FA0000860A06AB0F5005F0DD100BF206800682E
:101FB00020F40050216808602068006840F4005058
:101FC0002168086000BF012084F8510000BF002094
:101FD00084F8500000BF0320BDE8F88FFFE70098A9
:101FE00000B900270098401E0090206880682840B3
:101FF000A84201D1012000E000204045AFD10020DF
:10200000EAE70000280000207047000008B504A09F
:10201000006800900349684600F0ECFC002008BD11
:10202000020202003000002010B5FEF7A1FC10BD36
:1020300000B58FB0282105A8FEF7C1F81421684625
:10204000FEF7BDF8012005900004069000200790DF
:102050000120099002200C90C1030D914FF4E01172
:102060000E9105A8FEF7B2FE08B1FEF7CCF90F20DD
:10207000009002200190002002904FF480600390B5
:102080000020049002216846FEF76AFD08B1FEF7C1
:10209000BAF90FB000BD704770B505466C6A0020F4
:1020A000E085E0842046FFF76DFB70BD0168C968DC
:1020B00021F490710268D1600168496921F0010141
:1020C00002685161202180F83A10704710B504462B
:1020D0002068C06820F040002168C860202084F893
:1020E00039002046FFF72DFD002010BD70B50446D5
:1020F00094F83A00222847D1A068B0F5805F0CD14F
:10210000206950B90025A66A20684068C0F308001D
:102110003080A06A801CA06215E0A56A0026A06835
:10212000B0F5805F03D0A06828B9206918B920688D
:102130004068287004E02068406800F07F00287044
:10214000A06A401CA062E08D401E80B2E085C8B944
:102150002068C06820F020002168C8602068C0683E
:1021600020F480702168C8602068406920F0010078
:1021700021684861202084F83A002046FFF76CFC73
:10218000002070BD0020FCE70220FAE770B504468D
:102190002168096921F44051E26811432268116104
:1021A0002269A1681143626941EA02052168C96890
:1021B00041F20C62914329432268D1602168496948
:1021C00021F44071A2691143226851612D4A2168AE
:1021D000914202D1FEF7A0FD01E0FEF78DFD00EB7C
:1021E000C00101EB001162689200B1FBF2F100EB5B
:1021F000C00202EB001263689B00B2FBF3F264239F
:10220000B2FBF3F202EBC20303EB0212A1EB820179
:10221000322202EB01116422B1FBF2F101F0F00174
:1022200000EBC00202EB001263689B00B2FBF3F20A
:102230006423B2FBF3F201EB021200EBC00101EBED
:10224000001163689B00B1FBF3F100EBC00303EBEB
:1022500000136668B600B3FBF6F36426B3FBF6F32F
:1022600003EBC30606EB0313A1EB8301322303EB5D
:1022700001116423B1FBF3F101F00F011144226855
:10228000916070BD00380140014691F83900212865
:1022900028D18868B0F5805F0BD1086948B90A6A0F
:1022A0001088C0F308000B685860086A801C086238
:1022B00005E00B6A581C086218780B685860C88CD7
:1022C000401E80B2C88458B90868C06820F08000F9
:1022D0000B68D8600868C06840F040000B68D860A0
:1022E000002070470220FCE72DE9F04104460D462E
:1022F00017469846069E21E0701CF8B12EB1FEF7F5
:1023000031FBA0EB0800B04218D92068C06820F467
:10231000D0702168C8602068406920F00100216801
:102320004861202084F8390084F83A0000BF00207A
:1023300084F8380000BF0320BDE8F0812068006801
:102340002840A84201D1012000E00020B842D3D0AB
:102350000020F1E710B50248FFF716FA10BD0000A3
:102360009C02002000BFFEE70FB4054B10B503A987
:10237000044A029800F034F810BC5DF814FB000029
:10238000492B00082C00002002480068C0F30220FE
:10239000704700000CED00E010B5002804DB0A07D0
:1023A000130E054A135406E00A07140E034A00F000
:1023B0000F031B1FD45410BD00E400E018ED00E033
:1023C00002E008C8121F08C1002AFAD170477047FE
:1023D000002001E001C1121F002AFBD1704700005C
:1023E0002DE9FF4F8DB00F460546002606E0252853
:1023F0000BD0DDE90F1290476D1C761C2878002861
:10240000F5D111B03046BDE8F08F0024A246A146B8
:102410000122E94900E0044315F8013F203B02FA9C
:1024200003F00842F7D128782A2810D06FF02F0245
:102430002878A0F13001092914D80AEB8A0102EBAF
:10244000410144F0020400EB010A6D1CF0E701CFEA
:102450005FEA000A03D544F40054CAF1000A44F0CC
:1024600002046D1C28782E2817D115F8010F44F0AE
:1024700004042A280ED06FF02F022878A0F1300132
:1024800009290AD809EB890102EB410100EB010996
:102490006D1CF2E757F8049B6D1C28786C280FD050
:1024A00006DC4C2817D068280DD06A2814D104E027
:1024B000742810D07A280FD10DE044F400140AE0FB
:1024C00044F4801401E044F440146978814202D15C
:1024D00004F580146D1C6D1C28786E281ED00CDC51
:1024E000632830D004DC00288BD0582811D19FE01D
:1024F000642867D069280CD164E073282DD004DCEF
:102500006F2872D0702804D194E075286ED0782896
:102510006DD0DDE90F129047761C4BE1C4F30250F9
:10252000022806D0032809D0042801CF09D006606C
:1025300040E101CFF117C0E900613BE101CF068026
:1025400038E1067036E117F8040B8DF80000002022
:102550008DF80100EB46012003E057F804BB4FF073
:10256000FF3061074FF0000102D40DE008F10101D6
:10257000884649450FDA8045F8DB1BF8081000292A
:10258000F4D108E008F1010188468142FADB1BF82A
:1025900008100029F6D1DDE90F23AAEB08008146D7
:1025A000214600F031F9304400EB080604E0DDE993
:1025B0000F121BF8010B9047B8F10108F7D2214622
:1025C0004846F2E00A21C4F302524FF0000B089192
:1025D000022A04D001CFC117032A09D00AE0FF1D47
:1025E00027F00707F7E8020108E02CE01EE01FE0F3
:1025F00000B2C117042A01D140B2C117021E71F105
:10260000000206DA0023D0EB030063EB01012D2268
:1026100002E0220504D52B228DF82420012203E0BC
:10262000E20701D02022F7E7904653E00A210BE0B1
:10263000102109E010214FF0000B44F004044FF08A
:102640000809089103E008214FF0000B0891C4F33A
:102650000252022A04D001CF0021032A06D006E04C
:10266000FF1D27F00707F7E8020103E080B2042A04
:1026700000D1C0B24FF0000822072BD52A78702A6B
:1026800007D0DDF820C08CF0100C5CEA0B0C05D0F4
:102690000EE040228DF82420012208E050EA0103D8
:1026A00006D030238DF824308DF825200222904664
:1026B000089B83F0080353EA0B030BD150EA010295
:1026C00001D1620706D530228DF824204FF0010891
:1026D000A9F101092A78582A04D038A20B9208AA35
:1026E0000A920BE03AA2F9E75B46089AFDF772FD01
:1026F0000B9B9B5C0A9A521E0A92137050EA0102CD
:10270000F2D10A98ADEB000000F1200B600702D572
:1027100024F4803401E04FF00109D94502DDA9EB32
:102720000B0000E0002000EB0B0141440890AAEBF5
:10273000010AE00306D4DDE90F232146504600F0EC
:1027400063F806444FF0000908E009A911F80900F0
:10275000DDE90F12904709F10109761CC145F4DB50
:10276000E0030CD5DDE90F232146504600F04CF87C
:10277000064404E0DDE90F1230209047761C0899EA
:10278000481E08900029F5DC08E00A980A990078AC
:10279000491C0A91DDE90F129047761CBBF100013C
:1027A000ABF1010BF1DC21465046DDE90F2300F0CF
:1027B00019F806446D1C21E6092801003031323336
:1027C000343536373839616263646566000000006D
:1027D0003031323334353637383941424344454657
:1027E000000000002DE9F041044600251E46174672
:1027F000880404D405E039462020B0476D1C641ECF
:10280000F9D52846BDE8F0812DE9F04104460025C0
:102810001E469046C80301D5302700E020278804D3
:1028200004D505E041463846B0476D1C641EF9D515
:102830002846BDE8F081000030B5ADF5077D0446BF
:1028400002200290FF200190002501221103374849
:10285000FEF782F80120FDF7ADFE00224FF4805113
:102860003248FEF779F80120FDF7A4FEFF2301228C
:1028700002A92F48FEF780FDFF200123224601A96F
:1028800000902B48FEF74FFE2078552812D10020EB
:102890006070FF200123A21C01A900902448FEF7CC
:1028A00042FEFF200123E21C01A900902048FEF710
:1028B0003AFE30E02078FF2812D100206070FF201F
:1028C0000123A21C01A900901948FEF72CFEFF204D
:1028D0000123E21C01A900901548FEF724FE1AE02E
:1028E000FF200123621C01A900901148FEF71BFE86
:1028F000207800F0E000802801D1607858B120787D
:1029000000F06005607800EBC5052B46A21C03A90A
:102910000748FFF7EDFA012211030448FEF71CF8FF
:102920000120FDF747FE0DF5077D30BD000C01408D
:102930004402002008B50120009001220103104844
:10294000FEF70AF80120FDF735FE00224FF4805112
:102950000B48FEF701F8FF23012269460948FEF7FC
:102960000BFD012211030648FDF7F6FF0320FDF7DA
:1029700021FE00F021F80A20FDF71CFE08BD000032
:10298000000C01404402002070B5032500264FF4DE
:10299000FA7400BF04E00220FDF70CFE601E84B252
:1029A0000448007808B9002CF5D1002001490870CE
:1029B00070BD00001800002010B5012291020C48E3
:1029C000FDF7CAFF0120FDF7F5FD00224FF48061FD
:1029D0000748FDF7C1FF0120FDF7ECFD0122910240
:1029E0000348FDF7B9FF0A20FDF7E4FD10BD000024
:1029F000000C01402DE9F04106460D460027002459
:102A00001DA0FFF7B1FC00BF05E0315D1BA0FFF783
:102A1000ABFC601C84B27078801CA042F5DC19A06D
:102A2000FFF7A2FC304600F043F8FFF7ADFF284661
:102A3000FFF702FF30782946FFF7A2F9C7B2A7B91E
:102A400011A0FFF791FC002405E0295D0BA0FFF722
:102A50008BFC601C84B26878801CA042F5DC0BA063
:102A6000FFF782FC0020BDE8F081297809A0FFF77C
:102A70007BFC0120F7E700003E3E3E002530325847
:102A8000200000000D0A00003C3C3C000D0A0D0A2D
:102A900000000000526573706F6E65205B457272B6
:102AA0006F725D3A203078253032580D0A0D0A00D9
:102AB00030B5ADF5097D04460020889055208790FB
:102AC000FF208690002500224FF480511C48FDF71E
:102AD00043FF0120FDF76EFDFF23012288A919485D
:102AE000FEF74AFC2078552808D1FF20012386AA4A
:102AF00087A900901348FEF716FD15E020782428DA
:102B000003D1607800F5817508E02078442803D16E
:102B1000607800F2022501E06078851C2B4602AA4D
:102B200021460848FFF7E4F9012211030448FDF7A4
:102B300013FF0120FDF73EFD0DF5097D30BD0000BE
:102B4000000C01404402002038B504460D46E0B2B6
:102B500000900223012269460248FEF789FF2046C1
:102B600038BD00009C02002086B0142101A8FDF7AA
:102B700026FBFDF709FFFFF75BFAFFF72FF8FFF7DA
:102B8000DFF8FFF7B9F801222A492B48FEF72CFF9E
:102B90002AA0FFF7E9FB2EA0FFF7E6FBFDF7F6FB07
:102BA0002DA0FFF7E1FBFDF7D1FB2FA0FFF7DCFB2A
:102BB000FFF72CFA31A0FFF7D7FBFDF75FFB33A03F
:102BC000FFF7D2FB3FA0FFF7CFFBFEF7D7FF41A0F7
:102BD000FFF7CAFB01A8FEF7B7FF42A0FFF7C4FB4F
:102BE00001A8FEF7D9FF44A0FFF7BEFB17A0FFF72F
:102BF000BBFB4FA0FFF7B8FB012101A8FDF750FB7D
:102C000056A0FFF7B1FB01245FA0FFF7ADFB204604
:102C1000FFF746F90DE04FF480615D48FDF792FE45
:102C200004480078312804D15AA0FFF79DFBFDF736
:102C300075FFF0E7140000209C02002053797374A4
:102C4000656D20496E6974205B4F4B5D0D0A000075
:102C5000504F52200D0A0000726561642044657671
:102C60004944200D0A00000073656C656374207090
:102C7000726F746F636F6C200D0A000061646A7577
:102C80007374206761696E0D0A0000003D3D3D3D93
:102C90003D3D3D3D3D3D3D3D49534F313434343361
:102CA0004120616E7469636F6C6C69736F6E207321
:102CB000746172743D3D3D3D3D3D3D3D3D3D3D3D7D
:102CC0003D0D0A00416E7469636F6C20524551419D
:102CD0000D0A0000416E7469636F6C20434C310D26
:102CE0000A000000416E7469636F6C2053656C6567
:102CF0006374310D0A0000003D3D3D3D3D3D3D3DCD
:102D00003D3D3D3D49534F31343434334120616EB4
:102D10007469636F6C6C69736F6E2073746F703D50
:102D20003D3D3D3D3D3D3D3D3D3D3D3D3D0D0A0073
:102D30003D3D3D3D3D3D3D3D3D3D3D3D4175746825
:102D4000656E7469636174652073617472743D3D6E
:102D50003D3D3D3D3D3D3D3D0D0A00003D3D3D3D80
:102D60003D3D3D3D3D3D3D3D41757468656E746939
:102D7000636174652073746F703D3D3D3D3D3D3D25
:102D80003D3D3D3D0D0A0000726561640D0A000085
:102D900000100140536F667477617265205B526565
:102DA0007365745D0D0A0000FF000000FF00000065
:102DB00004033000280000000000000000000000B4
:102DC0000400A2000000000000000000000000005D
:102DD00000000000000000000102030406070809CB
:102DE0000000000001020304082E0008000000207B
:102DF00030000000C0230008382E000830000020FA
:102E0000B0060000D0230008FF0000000000000012
:102E100000000000000000000000000000000000B2
:102E20000000000000000000100000000100000091
:082E30000024F4000000000082
:0400000508000131BD
:00000001FF
